{
	"contracts/MultiSigWallet.sol": {
		"MultiSigWallet": {
			"abi": [
				{
					"inputs": [
						{
							"internalType": "address[]",
							"name": "_owners",
							"type": "address[]"
						},
						{
							"internalType": "uint256",
							"name": "required",
							"type": "uint256"
						}
					],
					"stateMutability": "nonpayable",
					"type": "constructor"
				},
				{
					"anonymous": false,
					"inputs": [
						{
							"indexed": true,
							"internalType": "address",
							"name": "owner",
							"type": "address"
						},
						{
							"indexed": true,
							"internalType": "uint256",
							"name": "txId",
							"type": "uint256"
						}
					],
					"name": "Approve",
					"type": "event"
				},
				{
					"anonymous": false,
					"inputs": [
						{
							"indexed": true,
							"internalType": "address",
							"name": "sender",
							"type": "address"
						},
						{
							"indexed": false,
							"internalType": "uint256",
							"name": "amount",
							"type": "uint256"
						}
					],
					"name": "Deposit",
					"type": "event"
				},
				{
					"anonymous": false,
					"inputs": [
						{
							"indexed": true,
							"internalType": "uint256",
							"name": "txId",
							"type": "uint256"
						}
					],
					"name": "Execute",
					"type": "event"
				},
				{
					"anonymous": false,
					"inputs": [
						{
							"indexed": true,
							"internalType": "address",
							"name": "owner",
							"type": "address"
						},
						{
							"indexed": true,
							"internalType": "uint256",
							"name": "txId",
							"type": "uint256"
						}
					],
					"name": "Revoke",
					"type": "event"
				},
				{
					"anonymous": false,
					"inputs": [
						{
							"indexed": true,
							"internalType": "uint256",
							"name": "txId",
							"type": "uint256"
						}
					],
					"name": "Submit",
					"type": "event"
				},
				{
					"inputs": [
						{
							"internalType": "uint256",
							"name": "_txId",
							"type": "uint256"
						}
					],
					"name": "approve",
					"outputs": [],
					"stateMutability": "nonpayable",
					"type": "function"
				},
				{
					"inputs": [
						{
							"internalType": "uint256",
							"name": "",
							"type": "uint256"
						},
						{
							"internalType": "address",
							"name": "",
							"type": "address"
						}
					],
					"name": "approved",
					"outputs": [
						{
							"internalType": "bool",
							"name": "",
							"type": "bool"
						}
					],
					"stateMutability": "view",
					"type": "function"
				},
				{
					"inputs": [
						{
							"internalType": "uint256",
							"name": "_txId",
							"type": "uint256"
						}
					],
					"name": "execute",
					"outputs": [],
					"stateMutability": "nonpayable",
					"type": "function"
				},
				{
					"inputs": [
						{
							"internalType": "address",
							"name": "",
							"type": "address"
						}
					],
					"name": "isOwner",
					"outputs": [
						{
							"internalType": "bool",
							"name": "",
							"type": "bool"
						}
					],
					"stateMutability": "view",
					"type": "function"
				},
				{
					"inputs": [
						{
							"internalType": "uint256",
							"name": "",
							"type": "uint256"
						}
					],
					"name": "owners",
					"outputs": [
						{
							"internalType": "address",
							"name": "",
							"type": "address"
						}
					],
					"stateMutability": "view",
					"type": "function"
				},
				{
					"inputs": [],
					"name": "required",
					"outputs": [
						{
							"internalType": "uint256",
							"name": "",
							"type": "uint256"
						}
					],
					"stateMutability": "view",
					"type": "function"
				},
				{
					"inputs": [
						{
							"internalType": "address",
							"name": "_to",
							"type": "address"
						},
						{
							"internalType": "uint256",
							"name": "_value",
							"type": "uint256"
						},
						{
							"internalType": "bytes",
							"name": "data",
							"type": "bytes"
						}
					],
					"name": "submit",
					"outputs": [],
					"stateMutability": "nonpayable",
					"type": "function"
				},
				{
					"inputs": [
						{
							"internalType": "uint256",
							"name": "",
							"type": "uint256"
						}
					],
					"name": "transactions",
					"outputs": [
						{
							"internalType": "address",
							"name": "to",
							"type": "address"
						},
						{
							"internalType": "uint256",
							"name": "value",
							"type": "uint256"
						},
						{
							"internalType": "bytes",
							"name": "data",
							"type": "bytes"
						},
						{
							"internalType": "bool",
							"name": "executed",
							"type": "bool"
						}
					],
					"stateMutability": "view",
					"type": "function"
				},
				{
					"stateMutability": "payable",
					"type": "receive"
				}
			],
			"devdoc": {
				"kind": "dev",
				"methods": {},
				"version": 1
			},
			"evm": {
				"assembly": "    /* \"contracts/MultiSigWallet.sol\":58:2971  contract MultiSigWallet {... */\n  mstore(0x40, 0x80)\n    /* \"contracts/MultiSigWallet.sol\":1130:1659  constructor(address[] memory _owners, uint required){... */\n  callvalue\n  dup1\n  iszero\n  tag_1\n  jumpi\n  0x00\n  dup1\n  revert\ntag_1:\n  pop\n  mload(0x40)\n  sub(codesize, bytecodeSize)\n  dup1\n  bytecodeSize\n  dup4\n  codecopy\n  dup2\n  dup2\n  add\n  0x40\n  mstore\n  dup2\n  add\n  swap1\n  tag_2\n  swap2\n  swap1\n  tag_3\n  jump\t// in\ntag_2:\n    /* \"contracts/MultiSigWallet.sol\":1217:1218  0 */\n  0x00\n    /* \"contracts/MultiSigWallet.sol\":1200:1207  _owners */\n  dup3\n    /* \"contracts/MultiSigWallet.sol\":1200:1214  _owners.length */\n  mload\n    /* \"contracts/MultiSigWallet.sol\":1200:1218  _owners.length > 0 */\n  gt\n    /* \"contracts/MultiSigWallet.sol\":1192:1238  require(_owners.length > 0, \"owners required\") */\n  tag_6\n  jumpi\n  mload(0x40)\n  0x08c379a000000000000000000000000000000000000000000000000000000000\n  dup2\n  mstore\n  0x04\n  add\n  tag_7\n  swap1\n  tag_8\n  jump\t// in\ntag_7:\n  mload(0x40)\n  dup1\n  swap2\n  sub\n  swap1\n  revert\ntag_6:\n    /* \"contracts/MultiSigWallet.sol\":1280:1281  0 */\n  0x00\n    /* \"contracts/MultiSigWallet.sol\":1269:1277  required */\n  dup2\n    /* \"contracts/MultiSigWallet.sol\":1269:1281  required > 0 */\n  gt\n    /* \"contracts/MultiSigWallet.sol\":1269:1310  required > 0 && required <= owners.length */\n  dup1\n  iszero\n  tag_9\n  jumpi\n  pop\n    /* \"contracts/MultiSigWallet.sol\":1297:1303  owners */\n  0x00\n    /* \"contracts/MultiSigWallet.sol\":1297:1310  owners.length */\n  dup1\n  sload\n  swap1\n  pop\n    /* \"contracts/MultiSigWallet.sol\":1285:1293  required */\n  dup2\n    /* \"contracts/MultiSigWallet.sol\":1285:1310  required <= owners.length */\n  gt\n  iszero\n    /* \"contracts/MultiSigWallet.sol\":1269:1310  required > 0 && required <= owners.length */\ntag_9:\n    /* \"contracts/MultiSigWallet.sol\":1248:1369  require(... */\n  tag_10\n  jumpi\n  mload(0x40)\n  0x08c379a000000000000000000000000000000000000000000000000000000000\n  dup2\n  mstore\n  0x04\n  add\n  tag_11\n  swap1\n  tag_12\n  jump\t// in\ntag_11:\n  mload(0x40)\n  dup1\n  swap2\n  sub\n  swap1\n  revert\ntag_10:\n    /* \"contracts/MultiSigWallet.sol\":1383:1389  uint i */\n  0x00\n    /* \"contracts/MultiSigWallet.sol\":1379:1653  for(uint i; i < owners.length; i++) {... */\ntag_13:\n    /* \"contracts/MultiSigWallet.sol\":1395:1401  owners */\n  0x00\n    /* \"contracts/MultiSigWallet.sol\":1395:1408  owners.length */\n  dup1\n  sload\n  swap1\n  pop\n    /* \"contracts/MultiSigWallet.sol\":1391:1392  i */\n  dup2\n    /* \"contracts/MultiSigWallet.sol\":1391:1408  i < owners.length */\n  lt\n    /* \"contracts/MultiSigWallet.sol\":1379:1653  for(uint i; i < owners.length; i++) {... */\n  iszero\n  tag_14\n  jumpi\n    /* \"contracts/MultiSigWallet.sol\":1429:1442  address owner */\n  0x00\n    /* \"contracts/MultiSigWallet.sol\":1445:1452  _owners */\n  dup4\n    /* \"contracts/MultiSigWallet.sol\":1453:1454  i */\n  dup3\n    /* \"contracts/MultiSigWallet.sol\":1445:1455  _owners[i] */\n  dup2\n  mload\n  dup2\n  lt\n  tag_16\n  jumpi\n  tag_17\n  tag_18\n  jump\t// in\ntag_17:\ntag_16:\n  0x20\n  mul\n  0x20\n  add\n  add\n  mload\n    /* \"contracts/MultiSigWallet.sol\":1429:1455  address owner = _owners[i] */\n  swap1\n  pop\n    /* \"contracts/MultiSigWallet.sol\":1494:1495  0 */\n  0x00\n    /* \"contracts/MultiSigWallet.sol\":1477:1496  owner != address(0) */\n  0xffffffffffffffffffffffffffffffffffffffff\n  and\n    /* \"contracts/MultiSigWallet.sol\":1477:1482  owner */\n  dup2\n    /* \"contracts/MultiSigWallet.sol\":1477:1496  owner != address(0) */\n  0xffffffffffffffffffffffffffffffffffffffff\n  and\n  eq\n  iszero\n    /* \"contracts/MultiSigWallet.sol\":1469:1514  require(owner != address(0), \"invalid owner\") */\n  tag_19\n  jumpi\n  mload(0x40)\n  0x08c379a000000000000000000000000000000000000000000000000000000000\n  dup2\n  mstore\n  0x04\n  add\n  tag_20\n  swap1\n  tag_21\n  jump\t// in\ntag_20:\n  mload(0x40)\n  dup1\n  swap2\n  sub\n  swap1\n  revert\ntag_19:\n    /* \"contracts/MultiSigWallet.sol\":1537:1544  isOwner */\n  0x01\n    /* \"contracts/MultiSigWallet.sol\":1537:1551  isOwner[owner] */\n  0x00\n    /* \"contracts/MultiSigWallet.sol\":1545:1550  owner */\n  dup3\n    /* \"contracts/MultiSigWallet.sol\":1537:1551  isOwner[owner] */\n  0xffffffffffffffffffffffffffffffffffffffff\n  and\n  0xffffffffffffffffffffffffffffffffffffffff\n  and\n  dup2\n  mstore\n  0x20\n  add\n  swap1\n  dup2\n  mstore\n  0x20\n  add\n  0x00\n  keccak256\n  0x00\n  swap1\n  sload\n  swap1\n  0x0100\n  exp\n  swap1\n  div\n  0xff\n  and\n    /* \"contracts/MultiSigWallet.sol\":1536:1551  !isOwner[owner] */\n  iszero\n    /* \"contracts/MultiSigWallet.sol\":1528:1575  require(!isOwner[owner], \"owner is not unique\") */\n  tag_22\n  jumpi\n  mload(0x40)\n  0x08c379a000000000000000000000000000000000000000000000000000000000\n  dup2\n  mstore\n  0x04\n  add\n  tag_23\n  swap1\n  tag_24\n  jump\t// in\ntag_23:\n  mload(0x40)\n  dup1\n  swap2\n  sub\n  swap1\n  revert\ntag_22:\n    /* \"contracts/MultiSigWallet.sol\":1606:1610  true */\n  0x01\n    /* \"contracts/MultiSigWallet.sol\":1589:1596  isOwner */\n  dup1\n    /* \"contracts/MultiSigWallet.sol\":1589:1603  isOwner[owner] */\n  0x00\n    /* \"contracts/MultiSigWallet.sol\":1597:1602  owner */\n  dup4\n    /* \"contracts/MultiSigWallet.sol\":1589:1603  isOwner[owner] */\n  0xffffffffffffffffffffffffffffffffffffffff\n  and\n  0xffffffffffffffffffffffffffffffffffffffff\n  and\n  dup2\n  mstore\n  0x20\n  add\n  swap1\n  dup2\n  mstore\n  0x20\n  add\n  0x00\n  keccak256\n  0x00\n    /* \"contracts/MultiSigWallet.sol\":1589:1610  isOwner[owner] = true */\n  0x0100\n  exp\n  dup2\n  sload\n  dup2\n  0xff\n  mul\n  not\n  and\n  swap1\n  dup4\n  iszero\n  iszero\n  mul\n  or\n  swap1\n  sstore\n  pop\n    /* \"contracts/MultiSigWallet.sol\":1624:1630  owners */\n  0x00\n    /* \"contracts/MultiSigWallet.sol\":1636:1641  owner */\n  dup2\n    /* \"contracts/MultiSigWallet.sol\":1624:1642  owners.push(owner) */\n  swap1\n  dup1\n  0x01\n  dup2\n  sload\n  add\n  dup1\n  dup3\n  sstore\n  dup1\n  swap2\n  pop\n  pop\n  0x01\n  swap1\n  sub\n  swap1\n  0x00\n  mstore\n  keccak256(0x00, 0x20)\n  add\n  0x00\n  swap1\n  swap2\n  swap1\n  swap2\n  swap1\n  swap2\n  0x0100\n  exp\n  dup2\n  sload\n  dup2\n  0xffffffffffffffffffffffffffffffffffffffff\n  mul\n  not\n  and\n  swap1\n  dup4\n  0xffffffffffffffffffffffffffffffffffffffff\n  and\n  mul\n  or\n  swap1\n  sstore\n  pop\n    /* \"contracts/MultiSigWallet.sol\":1415:1653  {... */\n  pop\n    /* \"contracts/MultiSigWallet.sol\":1410:1413  i++ */\n  dup1\n  dup1\n  tag_26\n  swap1\n  tag_27\n  jump\t// in\ntag_26:\n  swap2\n  pop\n  pop\n    /* \"contracts/MultiSigWallet.sol\":1379:1653  for(uint i; i < owners.length; i++) {... */\n  jump(tag_13)\ntag_14:\n  pop\n    /* \"contracts/MultiSigWallet.sol\":1130:1659  constructor(address[] memory _owners, uint required){... */\n  pop\n  pop\n    /* \"contracts/MultiSigWallet.sol\":58:2971  contract MultiSigWallet {... */\n  jump(tag_28)\n    /* \"#utility.yul\":7:82   */\ntag_29:\n    /* \"#utility.yul\":40:46   */\n  0x00\n    /* \"#utility.yul\":73:75   */\n  0x40\n    /* \"#utility.yul\":67:76   */\n  mload\n    /* \"#utility.yul\":57:76   */\n  swap1\n  pop\n    /* \"#utility.yul\":7:82   */\n  swap1\n  jump\t// out\n    /* \"#utility.yul\":88:205   */\ntag_30:\n    /* \"#utility.yul\":197:198   */\n  0x00\n    /* \"#utility.yul\":194:195   */\n  dup1\n    /* \"#utility.yul\":187:199   */\n  revert\n    /* \"#utility.yul\":211:328   */\ntag_31:\n    /* \"#utility.yul\":320:321   */\n  0x00\n    /* \"#utility.yul\":317:318   */\n  dup1\n    /* \"#utility.yul\":310:322   */\n  revert\n    /* \"#utility.yul\":334:451   */\ntag_32:\n    /* \"#utility.yul\":443:444   */\n  0x00\n    /* \"#utility.yul\":440:441   */\n  dup1\n    /* \"#utility.yul\":433:445   */\n  revert\n    /* \"#utility.yul\":457:559   */\ntag_33:\n    /* \"#utility.yul\":498:504   */\n  0x00\n    /* \"#utility.yul\":549:551   */\n  0x1f\n    /* \"#utility.yul\":545:552   */\n  not\n    /* \"#utility.yul\":540:542   */\n  0x1f\n    /* \"#utility.yul\":533:538   */\n  dup4\n    /* \"#utility.yul\":529:543   */\n  add\n    /* \"#utility.yul\":525:553   */\n  and\n    /* \"#utility.yul\":515:553   */\n  swap1\n  pop\n    /* \"#utility.yul\":457:559   */\n  swap2\n  swap1\n  pop\n  jump\t// out\n    /* \"#utility.yul\":565:745   */\ntag_34:\n    /* \"#utility.yul\":613:690   */\n  0x4e487b7100000000000000000000000000000000000000000000000000000000\n    /* \"#utility.yul\":610:611   */\n  0x00\n    /* \"#utility.yul\":603:691   */\n  mstore\n    /* \"#utility.yul\":710:714   */\n  0x41\n    /* \"#utility.yul\":707:708   */\n  0x04\n    /* \"#utility.yul\":700:715   */\n  mstore\n    /* \"#utility.yul\":734:738   */\n  0x24\n    /* \"#utility.yul\":731:732   */\n  0x00\n    /* \"#utility.yul\":724:739   */\n  revert\n    /* \"#utility.yul\":751:1032   */\ntag_35:\n    /* \"#utility.yul\":834:861   */\n  tag_66\n    /* \"#utility.yul\":856:860   */\n  dup3\n    /* \"#utility.yul\":834:861   */\n  tag_33\n  jump\t// in\ntag_66:\n    /* \"#utility.yul\":826:832   */\n  dup2\n    /* \"#utility.yul\":822:862   */\n  add\n    /* \"#utility.yul\":964:970   */\n  dup2\n    /* \"#utility.yul\":952:962   */\n  dup2\n    /* \"#utility.yul\":949:971   */\n  lt\n    /* \"#utility.yul\":928:946   */\n  0xffffffffffffffff\n    /* \"#utility.yul\":916:926   */\n  dup3\n    /* \"#utility.yul\":913:947   */\n  gt\n    /* \"#utility.yul\":910:972   */\n  or\n    /* \"#utility.yul\":907:995   */\n  iszero\n  tag_67\n  jumpi\n    /* \"#utility.yul\":975:993   */\n  tag_68\n  tag_34\n  jump\t// in\ntag_68:\n    /* \"#utility.yul\":907:995   */\ntag_67:\n    /* \"#utility.yul\":1015:1025   */\n  dup1\n    /* \"#utility.yul\":1011:1013   */\n  0x40\n    /* \"#utility.yul\":1004:1026   */\n  mstore\n    /* \"#utility.yul\":794:1032   */\n  pop\n    /* \"#utility.yul\":751:1032   */\n  pop\n  pop\n  jump\t// out\n    /* \"#utility.yul\":1038:1167   */\ntag_36:\n    /* \"#utility.yul\":1072:1078   */\n  0x00\n    /* \"#utility.yul\":1099:1119   */\n  tag_70\n  tag_29\n  jump\t// in\ntag_70:\n    /* \"#utility.yul\":1089:1119   */\n  swap1\n  pop\n    /* \"#utility.yul\":1128:1161   */\n  tag_71\n    /* \"#utility.yul\":1156:1160   */\n  dup3\n    /* \"#utility.yul\":1148:1154   */\n  dup3\n    /* \"#utility.yul\":1128:1161   */\n  tag_35\n  jump\t// in\ntag_71:\n    /* \"#utility.yul\":1038:1167   */\n  swap2\n  swap1\n  pop\n  jump\t// out\n    /* \"#utility.yul\":1173:1484   */\ntag_37:\n    /* \"#utility.yul\":1250:1254   */\n  0x00\n    /* \"#utility.yul\":1340:1358   */\n  0xffffffffffffffff\n    /* \"#utility.yul\":1332:1338   */\n  dup3\n    /* \"#utility.yul\":1329:1359   */\n  gt\n    /* \"#utility.yul\":1326:1382   */\n  iszero\n  tag_73\n  jumpi\n    /* \"#utility.yul\":1362:1380   */\n  tag_74\n  tag_34\n  jump\t// in\ntag_74:\n    /* \"#utility.yul\":1326:1382   */\ntag_73:\n    /* \"#utility.yul\":1412:1416   */\n  0x20\n    /* \"#utility.yul\":1404:1410   */\n  dup3\n    /* \"#utility.yul\":1400:1417   */\n  mul\n    /* \"#utility.yul\":1392:1417   */\n  swap1\n  pop\n    /* \"#utility.yul\":1472:1476   */\n  0x20\n    /* \"#utility.yul\":1466:1470   */\n  dup2\n    /* \"#utility.yul\":1462:1477   */\n  add\n    /* \"#utility.yul\":1454:1477   */\n  swap1\n  pop\n    /* \"#utility.yul\":1173:1484   */\n  swap2\n  swap1\n  pop\n  jump\t// out\n    /* \"#utility.yul\":1490:1607   */\ntag_38:\n    /* \"#utility.yul\":1599:1600   */\n  0x00\n    /* \"#utility.yul\":1596:1597   */\n  dup1\n    /* \"#utility.yul\":1589:1601   */\n  revert\n    /* \"#utility.yul\":1613:1739   */\ntag_39:\n    /* \"#utility.yul\":1650:1657   */\n  0x00\n    /* \"#utility.yul\":1690:1732   */\n  0xffffffffffffffffffffffffffffffffffffffff\n    /* \"#utility.yul\":1683:1688   */\n  dup3\n    /* \"#utility.yul\":1679:1733   */\n  and\n    /* \"#utility.yul\":1668:1733   */\n  swap1\n  pop\n    /* \"#utility.yul\":1613:1739   */\n  swap2\n  swap1\n  pop\n  jump\t// out\n    /* \"#utility.yul\":1745:1841   */\ntag_40:\n    /* \"#utility.yul\":1782:1789   */\n  0x00\n    /* \"#utility.yul\":1811:1835   */\n  tag_78\n    /* \"#utility.yul\":1829:1834   */\n  dup3\n    /* \"#utility.yul\":1811:1835   */\n  tag_39\n  jump\t// in\ntag_78:\n    /* \"#utility.yul\":1800:1835   */\n  swap1\n  pop\n    /* \"#utility.yul\":1745:1841   */\n  swap2\n  swap1\n  pop\n  jump\t// out\n    /* \"#utility.yul\":1847:1969   */\ntag_41:\n    /* \"#utility.yul\":1920:1944   */\n  tag_80\n    /* \"#utility.yul\":1938:1943   */\n  dup2\n    /* \"#utility.yul\":1920:1944   */\n  tag_40\n  jump\t// in\ntag_80:\n    /* \"#utility.yul\":1913:1918   */\n  dup2\n    /* \"#utility.yul\":1910:1945   */\n  eq\n    /* \"#utility.yul\":1900:1963   */\n  tag_81\n  jumpi\n    /* \"#utility.yul\":1959:1960   */\n  0x00\n    /* \"#utility.yul\":1956:1957   */\n  dup1\n    /* \"#utility.yul\":1949:1961   */\n  revert\n    /* \"#utility.yul\":1900:1963   */\ntag_81:\n    /* \"#utility.yul\":1847:1969   */\n  pop\n  jump\t// out\n    /* \"#utility.yul\":1975:2118   */\ntag_42:\n    /* \"#utility.yul\":2032:2037   */\n  0x00\n    /* \"#utility.yul\":2063:2069   */\n  dup2\n    /* \"#utility.yul\":2057:2070   */\n  mload\n    /* \"#utility.yul\":2048:2070   */\n  swap1\n  pop\n    /* \"#utility.yul\":2079:2112   */\n  tag_83\n    /* \"#utility.yul\":2106:2111   */\n  dup2\n    /* \"#utility.yul\":2079:2112   */\n  tag_41\n  jump\t// in\ntag_83:\n    /* \"#utility.yul\":1975:2118   */\n  swap3\n  swap2\n  pop\n  pop\n  jump\t// out\n    /* \"#utility.yul\":2141:2873   */\ntag_43:\n    /* \"#utility.yul\":2248:2253   */\n  0x00\n    /* \"#utility.yul\":2273:2354   */\n  tag_85\n    /* \"#utility.yul\":2289:2353   */\n  tag_86\n    /* \"#utility.yul\":2346:2352   */\n  dup5\n    /* \"#utility.yul\":2289:2353   */\n  tag_37\n  jump\t// in\ntag_86:\n    /* \"#utility.yul\":2273:2354   */\n  tag_36\n  jump\t// in\ntag_85:\n    /* \"#utility.yul\":2264:2354   */\n  swap1\n  pop\n    /* \"#utility.yul\":2374:2379   */\n  dup1\n    /* \"#utility.yul\":2403:2409   */\n  dup4\n    /* \"#utility.yul\":2396:2401   */\n  dup3\n    /* \"#utility.yul\":2389:2410   */\n  mstore\n    /* \"#utility.yul\":2437:2441   */\n  0x20\n    /* \"#utility.yul\":2430:2435   */\n  dup3\n    /* \"#utility.yul\":2426:2442   */\n  add\n    /* \"#utility.yul\":2419:2442   */\n  swap1\n  pop\n    /* \"#utility.yul\":2490:2494   */\n  0x20\n    /* \"#utility.yul\":2482:2488   */\n  dup5\n    /* \"#utility.yul\":2478:2495   */\n  mul\n    /* \"#utility.yul\":2470:2476   */\n  dup4\n    /* \"#utility.yul\":2466:2496   */\n  add\n    /* \"#utility.yul\":2519:2522   */\n  dup6\n    /* \"#utility.yul\":2511:2517   */\n  dup2\n    /* \"#utility.yul\":2508:2523   */\n  gt\n    /* \"#utility.yul\":2505:2627   */\n  iszero\n  tag_87\n  jumpi\n    /* \"#utility.yul\":2538:2617   */\n  tag_88\n  tag_38\n  jump\t// in\ntag_88:\n    /* \"#utility.yul\":2505:2627   */\ntag_87:\n    /* \"#utility.yul\":2653:2659   */\n  dup4\n    /* \"#utility.yul\":2636:2867   */\ntag_89:\n    /* \"#utility.yul\":2670:2676   */\n  dup2\n    /* \"#utility.yul\":2665:2668   */\n  dup2\n    /* \"#utility.yul\":2662:2677   */\n  lt\n    /* \"#utility.yul\":2636:2867   */\n  iszero\n  tag_91\n  jumpi\n    /* \"#utility.yul\":2745:2748   */\n  dup1\n    /* \"#utility.yul\":2774:2822   */\n  tag_92\n    /* \"#utility.yul\":2818:2821   */\n  dup9\n    /* \"#utility.yul\":2806:2816   */\n  dup3\n    /* \"#utility.yul\":2774:2822   */\n  tag_42\n  jump\t// in\ntag_92:\n    /* \"#utility.yul\":2769:2772   */\n  dup5\n    /* \"#utility.yul\":2762:2823   */\n  mstore\n    /* \"#utility.yul\":2852:2856   */\n  0x20\n    /* \"#utility.yul\":2847:2850   */\n  dup5\n    /* \"#utility.yul\":2843:2857   */\n  add\n    /* \"#utility.yul\":2836:2857   */\n  swap4\n  pop\n    /* \"#utility.yul\":2712:2867   */\n  pop\n    /* \"#utility.yul\":2696:2700   */\n  0x20\n    /* \"#utility.yul\":2691:2694   */\n  dup2\n    /* \"#utility.yul\":2687:2701   */\n  add\n    /* \"#utility.yul\":2680:2701   */\n  swap1\n  pop\n    /* \"#utility.yul\":2636:2867   */\n  jump(tag_89)\ntag_91:\n    /* \"#utility.yul\":2640:2661   */\n  pop\n    /* \"#utility.yul\":2254:2873   */\n  pop\n  pop\n    /* \"#utility.yul\":2141:2873   */\n  swap4\n  swap3\n  pop\n  pop\n  pop\n  jump\t// out\n    /* \"#utility.yul\":2896:3281   */\ntag_44:\n    /* \"#utility.yul\":2978:2983   */\n  0x00\n    /* \"#utility.yul\":3027:3030   */\n  dup3\n    /* \"#utility.yul\":3020:3024   */\n  0x1f\n    /* \"#utility.yul\":3012:3018   */\n  dup4\n    /* \"#utility.yul\":3008:3025   */\n  add\n    /* \"#utility.yul\":3004:3031   */\n  slt\n    /* \"#utility.yul\":2994:3116   */\n  tag_94\n  jumpi\n    /* \"#utility.yul\":3035:3114   */\n  tag_95\n  tag_32\n  jump\t// in\ntag_95:\n    /* \"#utility.yul\":2994:3116   */\ntag_94:\n    /* \"#utility.yul\":3145:3151   */\n  dup2\n    /* \"#utility.yul\":3139:3152   */\n  mload\n    /* \"#utility.yul\":3170:3275   */\n  tag_96\n    /* \"#utility.yul\":3271:3274   */\n  dup5\n    /* \"#utility.yul\":3263:3269   */\n  dup3\n    /* \"#utility.yul\":3256:3260   */\n  0x20\n    /* \"#utility.yul\":3248:3254   */\n  dup7\n    /* \"#utility.yul\":3244:3261   */\n  add\n    /* \"#utility.yul\":3170:3275   */\n  tag_43\n  jump\t// in\ntag_96:\n    /* \"#utility.yul\":3161:3275   */\n  swap2\n  pop\n    /* \"#utility.yul\":2984:3281   */\n  pop\n    /* \"#utility.yul\":2896:3281   */\n  swap3\n  swap2\n  pop\n  pop\n  jump\t// out\n    /* \"#utility.yul\":3287:3364   */\ntag_45:\n    /* \"#utility.yul\":3324:3331   */\n  0x00\n    /* \"#utility.yul\":3353:3358   */\n  dup2\n    /* \"#utility.yul\":3342:3358   */\n  swap1\n  pop\n    /* \"#utility.yul\":3287:3364   */\n  swap2\n  swap1\n  pop\n  jump\t// out\n    /* \"#utility.yul\":3370:3492   */\ntag_46:\n    /* \"#utility.yul\":3443:3467   */\n  tag_99\n    /* \"#utility.yul\":3461:3466   */\n  dup2\n    /* \"#utility.yul\":3443:3467   */\n  tag_45\n  jump\t// in\ntag_99:\n    /* \"#utility.yul\":3436:3441   */\n  dup2\n    /* \"#utility.yul\":3433:3468   */\n  eq\n    /* \"#utility.yul\":3423:3486   */\n  tag_100\n  jumpi\n    /* \"#utility.yul\":3482:3483   */\n  0x00\n    /* \"#utility.yul\":3479:3480   */\n  dup1\n    /* \"#utility.yul\":3472:3484   */\n  revert\n    /* \"#utility.yul\":3423:3486   */\ntag_100:\n    /* \"#utility.yul\":3370:3492   */\n  pop\n  jump\t// out\n    /* \"#utility.yul\":3498:3641   */\ntag_47:\n    /* \"#utility.yul\":3555:3560   */\n  0x00\n    /* \"#utility.yul\":3586:3592   */\n  dup2\n    /* \"#utility.yul\":3580:3593   */\n  mload\n    /* \"#utility.yul\":3571:3593   */\n  swap1\n  pop\n    /* \"#utility.yul\":3602:3635   */\n  tag_102\n    /* \"#utility.yul\":3629:3634   */\n  dup2\n    /* \"#utility.yul\":3602:3635   */\n  tag_46\n  jump\t// in\ntag_102:\n    /* \"#utility.yul\":3498:3641   */\n  swap3\n  swap2\n  pop\n  pop\n  jump\t// out\n    /* \"#utility.yul\":3647:4357   */\ntag_3:\n    /* \"#utility.yul\":3751:3757   */\n  0x00\n    /* \"#utility.yul\":3759:3765   */\n  dup1\n    /* \"#utility.yul\":3808:3810   */\n  0x40\n    /* \"#utility.yul\":3796:3805   */\n  dup4\n    /* \"#utility.yul\":3787:3794   */\n  dup6\n    /* \"#utility.yul\":3783:3806   */\n  sub\n    /* \"#utility.yul\":3779:3811   */\n  slt\n    /* \"#utility.yul\":3776:3895   */\n  iszero\n  tag_104\n  jumpi\n    /* \"#utility.yul\":3814:3893   */\n  tag_105\n  tag_30\n  jump\t// in\ntag_105:\n    /* \"#utility.yul\":3776:3895   */\ntag_104:\n    /* \"#utility.yul\":3955:3956   */\n  0x00\n    /* \"#utility.yul\":3944:3953   */\n  dup4\n    /* \"#utility.yul\":3940:3957   */\n  add\n    /* \"#utility.yul\":3934:3958   */\n  mload\n    /* \"#utility.yul\":3985:4003   */\n  0xffffffffffffffff\n    /* \"#utility.yul\":3977:3983   */\n  dup2\n    /* \"#utility.yul\":3974:4004   */\n  gt\n    /* \"#utility.yul\":3971:4088   */\n  iszero\n  tag_106\n  jumpi\n    /* \"#utility.yul\":4007:4086   */\n  tag_107\n  tag_31\n  jump\t// in\ntag_107:\n    /* \"#utility.yul\":3971:4088   */\ntag_106:\n    /* \"#utility.yul\":4112:4201   */\n  tag_108\n    /* \"#utility.yul\":4193:4200   */\n  dup6\n    /* \"#utility.yul\":4184:4190   */\n  dup3\n    /* \"#utility.yul\":4173:4182   */\n  dup7\n    /* \"#utility.yul\":4169:4191   */\n  add\n    /* \"#utility.yul\":4112:4201   */\n  tag_44\n  jump\t// in\ntag_108:\n    /* \"#utility.yul\":4102:4201   */\n  swap3\n  pop\n    /* \"#utility.yul\":3905:4211   */\n  pop\n    /* \"#utility.yul\":4250:4252   */\n  0x20\n    /* \"#utility.yul\":4276:4340   */\n  tag_109\n    /* \"#utility.yul\":4332:4339   */\n  dup6\n    /* \"#utility.yul\":4323:4329   */\n  dup3\n    /* \"#utility.yul\":4312:4321   */\n  dup7\n    /* \"#utility.yul\":4308:4330   */\n  add\n    /* \"#utility.yul\":4276:4340   */\n  tag_47\n  jump\t// in\ntag_109:\n    /* \"#utility.yul\":4266:4340   */\n  swap2\n  pop\n    /* \"#utility.yul\":4221:4350   */\n  pop\n    /* \"#utility.yul\":3647:4357   */\n  swap3\n  pop\n  swap3\n  swap1\n  pop\n  jump\t// out\n    /* \"#utility.yul\":4363:4532   */\ntag_48:\n    /* \"#utility.yul\":4447:4458   */\n  0x00\n    /* \"#utility.yul\":4481:4487   */\n  dup3\n    /* \"#utility.yul\":4476:4479   */\n  dup3\n    /* \"#utility.yul\":4469:4488   */\n  mstore\n    /* \"#utility.yul\":4521:4525   */\n  0x20\n    /* \"#utility.yul\":4516:4519   */\n  dup3\n    /* \"#utility.yul\":4512:4526   */\n  add\n    /* \"#utility.yul\":4497:4526   */\n  swap1\n  pop\n    /* \"#utility.yul\":4363:4532   */\n  swap3\n  swap2\n  pop\n  pop\n  jump\t// out\n    /* \"#utility.yul\":4538:4703   */\ntag_49:\n    /* \"#utility.yul\":4678:4695   */\n  0x6f776e6572732072657175697265640000000000000000000000000000000000\n    /* \"#utility.yul\":4674:4675   */\n  0x00\n    /* \"#utility.yul\":4666:4672   */\n  dup3\n    /* \"#utility.yul\":4662:4676   */\n  add\n    /* \"#utility.yul\":4655:4696   */\n  mstore\n    /* \"#utility.yul\":4538:4703   */\n  pop\n  jump\t// out\n    /* \"#utility.yul\":4709:5075   */\ntag_50:\n    /* \"#utility.yul\":4851:4854   */\n  0x00\n    /* \"#utility.yul\":4872:4939   */\n  tag_113\n    /* \"#utility.yul\":4936:4938   */\n  0x0f\n    /* \"#utility.yul\":4931:4934   */\n  dup4\n    /* \"#utility.yul\":4872:4939   */\n  tag_48\n  jump\t// in\ntag_113:\n    /* \"#utility.yul\":4865:4939   */\n  swap2\n  pop\n    /* \"#utility.yul\":4948:5041   */\n  tag_114\n    /* \"#utility.yul\":5037:5040   */\n  dup3\n    /* \"#utility.yul\":4948:5041   */\n  tag_49\n  jump\t// in\ntag_114:\n    /* \"#utility.yul\":5066:5068   */\n  0x20\n    /* \"#utility.yul\":5061:5064   */\n  dup3\n    /* \"#utility.yul\":5057:5069   */\n  add\n    /* \"#utility.yul\":5050:5069   */\n  swap1\n  pop\n    /* \"#utility.yul\":4709:5075   */\n  swap2\n  swap1\n  pop\n  jump\t// out\n    /* \"#utility.yul\":5081:5500   */\ntag_8:\n    /* \"#utility.yul\":5247:5251   */\n  0x00\n    /* \"#utility.yul\":5285:5287   */\n  0x20\n    /* \"#utility.yul\":5274:5283   */\n  dup3\n    /* \"#utility.yul\":5270:5288   */\n  add\n    /* \"#utility.yul\":5262:5288   */\n  swap1\n  pop\n    /* \"#utility.yul\":5334:5343   */\n  dup2\n    /* \"#utility.yul\":5328:5332   */\n  dup2\n    /* \"#utility.yul\":5324:5344   */\n  sub\n    /* \"#utility.yul\":5320:5321   */\n  0x00\n    /* \"#utility.yul\":5309:5318   */\n  dup4\n    /* \"#utility.yul\":5305:5322   */\n  add\n    /* \"#utility.yul\":5298:5345   */\n  mstore\n    /* \"#utility.yul\":5362:5493   */\n  tag_116\n    /* \"#utility.yul\":5488:5492   */\n  dup2\n    /* \"#utility.yul\":5362:5493   */\n  tag_50\n  jump\t// in\ntag_116:\n    /* \"#utility.yul\":5354:5493   */\n  swap1\n  pop\n    /* \"#utility.yul\":5081:5500   */\n  swap2\n  swap1\n  pop\n  jump\t// out\n    /* \"#utility.yul\":5506:5726   */\ntag_51:\n    /* \"#utility.yul\":5646:5680   */\n  0x696e76616c6964207265717569726564206e756d626572206f66206f776e6572\n    /* \"#utility.yul\":5642:5643   */\n  0x00\n    /* \"#utility.yul\":5634:5640   */\n  dup3\n    /* \"#utility.yul\":5630:5644   */\n  add\n    /* \"#utility.yul\":5623:5681   */\n  mstore\n    /* \"#utility.yul\":5715:5718   */\n  0x7300000000000000000000000000000000000000000000000000000000000000\n    /* \"#utility.yul\":5710:5712   */\n  0x20\n    /* \"#utility.yul\":5702:5708   */\n  dup3\n    /* \"#utility.yul\":5698:5713   */\n  add\n    /* \"#utility.yul\":5691:5719   */\n  mstore\n    /* \"#utility.yul\":5506:5726   */\n  pop\n  jump\t// out\n    /* \"#utility.yul\":5732:6098   */\ntag_52:\n    /* \"#utility.yul\":5874:5877   */\n  0x00\n    /* \"#utility.yul\":5895:5962   */\n  tag_119\n    /* \"#utility.yul\":5959:5961   */\n  0x21\n    /* \"#utility.yul\":5954:5957   */\n  dup4\n    /* \"#utility.yul\":5895:5962   */\n  tag_48\n  jump\t// in\ntag_119:\n    /* \"#utility.yul\":5888:5962   */\n  swap2\n  pop\n    /* \"#utility.yul\":5971:6064   */\n  tag_120\n    /* \"#utility.yul\":6060:6063   */\n  dup3\n    /* \"#utility.yul\":5971:6064   */\n  tag_51\n  jump\t// in\ntag_120:\n    /* \"#utility.yul\":6089:6091   */\n  0x40\n    /* \"#utility.yul\":6084:6087   */\n  dup3\n    /* \"#utility.yul\":6080:6092   */\n  add\n    /* \"#utility.yul\":6073:6092   */\n  swap1\n  pop\n    /* \"#utility.yul\":5732:6098   */\n  swap2\n  swap1\n  pop\n  jump\t// out\n    /* \"#utility.yul\":6104:6523   */\ntag_12:\n    /* \"#utility.yul\":6270:6274   */\n  0x00\n    /* \"#utility.yul\":6308:6310   */\n  0x20\n    /* \"#utility.yul\":6297:6306   */\n  dup3\n    /* \"#utility.yul\":6293:6311   */\n  add\n    /* \"#utility.yul\":6285:6311   */\n  swap1\n  pop\n    /* \"#utility.yul\":6357:6366   */\n  dup2\n    /* \"#utility.yul\":6351:6355   */\n  dup2\n    /* \"#utility.yul\":6347:6367   */\n  sub\n    /* \"#utility.yul\":6343:6344   */\n  0x00\n    /* \"#utility.yul\":6332:6341   */\n  dup4\n    /* \"#utility.yul\":6328:6345   */\n  add\n    /* \"#utility.yul\":6321:6368   */\n  mstore\n    /* \"#utility.yul\":6385:6516   */\n  tag_122\n    /* \"#utility.yul\":6511:6515   */\n  dup2\n    /* \"#utility.yul\":6385:6516   */\n  tag_52\n  jump\t// in\ntag_122:\n    /* \"#utility.yul\":6377:6516   */\n  swap1\n  pop\n    /* \"#utility.yul\":6104:6523   */\n  swap2\n  swap1\n  pop\n  jump\t// out\n    /* \"#utility.yul\":6529:6709   */\ntag_18:\n    /* \"#utility.yul\":6577:6654   */\n  0x4e487b7100000000000000000000000000000000000000000000000000000000\n    /* \"#utility.yul\":6574:6575   */\n  0x00\n    /* \"#utility.yul\":6567:6655   */\n  mstore\n    /* \"#utility.yul\":6674:6678   */\n  0x32\n    /* \"#utility.yul\":6671:6672   */\n  0x04\n    /* \"#utility.yul\":6664:6679   */\n  mstore\n    /* \"#utility.yul\":6698:6702   */\n  0x24\n    /* \"#utility.yul\":6695:6696   */\n  0x00\n    /* \"#utility.yul\":6688:6703   */\n  revert\n    /* \"#utility.yul\":6715:6878   */\ntag_53:\n    /* \"#utility.yul\":6855:6870   */\n  0x696e76616c6964206f776e657200000000000000000000000000000000000000\n    /* \"#utility.yul\":6851:6852   */\n  0x00\n    /* \"#utility.yul\":6843:6849   */\n  dup3\n    /* \"#utility.yul\":6839:6853   */\n  add\n    /* \"#utility.yul\":6832:6871   */\n  mstore\n    /* \"#utility.yul\":6715:6878   */\n  pop\n  jump\t// out\n    /* \"#utility.yul\":6884:7250   */\ntag_54:\n    /* \"#utility.yul\":7026:7029   */\n  0x00\n    /* \"#utility.yul\":7047:7114   */\n  tag_126\n    /* \"#utility.yul\":7111:7113   */\n  0x0d\n    /* \"#utility.yul\":7106:7109   */\n  dup4\n    /* \"#utility.yul\":7047:7114   */\n  tag_48\n  jump\t// in\ntag_126:\n    /* \"#utility.yul\":7040:7114   */\n  swap2\n  pop\n    /* \"#utility.yul\":7123:7216   */\n  tag_127\n    /* \"#utility.yul\":7212:7215   */\n  dup3\n    /* \"#utility.yul\":7123:7216   */\n  tag_53\n  jump\t// in\ntag_127:\n    /* \"#utility.yul\":7241:7243   */\n  0x20\n    /* \"#utility.yul\":7236:7239   */\n  dup3\n    /* \"#utility.yul\":7232:7244   */\n  add\n    /* \"#utility.yul\":7225:7244   */\n  swap1\n  pop\n    /* \"#utility.yul\":6884:7250   */\n  swap2\n  swap1\n  pop\n  jump\t// out\n    /* \"#utility.yul\":7256:7675   */\ntag_21:\n    /* \"#utility.yul\":7422:7426   */\n  0x00\n    /* \"#utility.yul\":7460:7462   */\n  0x20\n    /* \"#utility.yul\":7449:7458   */\n  dup3\n    /* \"#utility.yul\":7445:7463   */\n  add\n    /* \"#utility.yul\":7437:7463   */\n  swap1\n  pop\n    /* \"#utility.yul\":7509:7518   */\n  dup2\n    /* \"#utility.yul\":7503:7507   */\n  dup2\n    /* \"#utility.yul\":7499:7519   */\n  sub\n    /* \"#utility.yul\":7495:7496   */\n  0x00\n    /* \"#utility.yul\":7484:7493   */\n  dup4\n    /* \"#utility.yul\":7480:7497   */\n  add\n    /* \"#utility.yul\":7473:7520   */\n  mstore\n    /* \"#utility.yul\":7537:7668   */\n  tag_129\n    /* \"#utility.yul\":7663:7667   */\n  dup2\n    /* \"#utility.yul\":7537:7668   */\n  tag_54\n  jump\t// in\ntag_129:\n    /* \"#utility.yul\":7529:7668   */\n  swap1\n  pop\n    /* \"#utility.yul\":7256:7675   */\n  swap2\n  swap1\n  pop\n  jump\t// out\n    /* \"#utility.yul\":7681:7850   */\ntag_55:\n    /* \"#utility.yul\":7821:7842   */\n  0x6f776e6572206973206e6f7420756e6971756500000000000000000000000000\n    /* \"#utility.yul\":7817:7818   */\n  0x00\n    /* \"#utility.yul\":7809:7815   */\n  dup3\n    /* \"#utility.yul\":7805:7819   */\n  add\n    /* \"#utility.yul\":7798:7843   */\n  mstore\n    /* \"#utility.yul\":7681:7850   */\n  pop\n  jump\t// out\n    /* \"#utility.yul\":7856:8222   */\ntag_56:\n    /* \"#utility.yul\":7998:8001   */\n  0x00\n    /* \"#utility.yul\":8019:8086   */\n  tag_132\n    /* \"#utility.yul\":8083:8085   */\n  0x13\n    /* \"#utility.yul\":8078:8081   */\n  dup4\n    /* \"#utility.yul\":8019:8086   */\n  tag_48\n  jump\t// in\ntag_132:\n    /* \"#utility.yul\":8012:8086   */\n  swap2\n  pop\n    /* \"#utility.yul\":8095:8188   */\n  tag_133\n    /* \"#utility.yul\":8184:8187   */\n  dup3\n    /* \"#utility.yul\":8095:8188   */\n  tag_55\n  jump\t// in\ntag_133:\n    /* \"#utility.yul\":8213:8215   */\n  0x20\n    /* \"#utility.yul\":8208:8211   */\n  dup3\n    /* \"#utility.yul\":8204:8216   */\n  add\n    /* \"#utility.yul\":8197:8216   */\n  swap1\n  pop\n    /* \"#utility.yul\":7856:8222   */\n  swap2\n  swap1\n  pop\n  jump\t// out\n    /* \"#utility.yul\":8228:8647   */\ntag_24:\n    /* \"#utility.yul\":8394:8398   */\n  0x00\n    /* \"#utility.yul\":8432:8434   */\n  0x20\n    /* \"#utility.yul\":8421:8430   */\n  dup3\n    /* \"#utility.yul\":8417:8435   */\n  add\n    /* \"#utility.yul\":8409:8435   */\n  swap1\n  pop\n    /* \"#utility.yul\":8481:8490   */\n  dup2\n    /* \"#utility.yul\":8475:8479   */\n  dup2\n    /* \"#utility.yul\":8471:8491   */\n  sub\n    /* \"#utility.yul\":8467:8468   */\n  0x00\n    /* \"#utility.yul\":8456:8465   */\n  dup4\n    /* \"#utility.yul\":8452:8469   */\n  add\n    /* \"#utility.yul\":8445:8492   */\n  mstore\n    /* \"#utility.yul\":8509:8640   */\n  tag_135\n    /* \"#utility.yul\":8635:8639   */\n  dup2\n    /* \"#utility.yul\":8509:8640   */\n  tag_56\n  jump\t// in\ntag_135:\n    /* \"#utility.yul\":8501:8640   */\n  swap1\n  pop\n    /* \"#utility.yul\":8228:8647   */\n  swap2\n  swap1\n  pop\n  jump\t// out\n    /* \"#utility.yul\":8653:8833   */\ntag_57:\n    /* \"#utility.yul\":8701:8778   */\n  0x4e487b7100000000000000000000000000000000000000000000000000000000\n    /* \"#utility.yul\":8698:8699   */\n  0x00\n    /* \"#utility.yul\":8691:8779   */\n  mstore\n    /* \"#utility.yul\":8798:8802   */\n  0x11\n    /* \"#utility.yul\":8795:8796   */\n  0x04\n    /* \"#utility.yul\":8788:8803   */\n  mstore\n    /* \"#utility.yul\":8822:8826   */\n  0x24\n    /* \"#utility.yul\":8819:8820   */\n  0x00\n    /* \"#utility.yul\":8812:8827   */\n  revert\n    /* \"#utility.yul\":8839:9072   */\ntag_27:\n    /* \"#utility.yul\":8878:8881   */\n  0x00\n    /* \"#utility.yul\":8901:8925   */\n  tag_138\n    /* \"#utility.yul\":8919:8924   */\n  dup3\n    /* \"#utility.yul\":8901:8925   */\n  tag_45\n  jump\t// in\ntag_138:\n    /* \"#utility.yul\":8892:8925   */\n  swap2\n  pop\n    /* \"#utility.yul\":8947:9013   */\n  0xffffffffffffffffffffffffffffffffffffffffffffffffffffffffffffffff\n    /* \"#utility.yul\":8940:8945   */\n  dup3\n    /* \"#utility.yul\":8937:9014   */\n  eq\n    /* \"#utility.yul\":8934:9037   */\n  iszero\n  tag_139\n  jumpi\n    /* \"#utility.yul\":9017:9035   */\n  tag_140\n  tag_57\n  jump\t// in\ntag_140:\n    /* \"#utility.yul\":8934:9037   */\ntag_139:\n    /* \"#utility.yul\":9064:9065   */\n  0x01\n    /* \"#utility.yul\":9057:9062   */\n  dup3\n    /* \"#utility.yul\":9053:9066   */\n  add\n    /* \"#utility.yul\":9046:9066   */\n  swap1\n  pop\n    /* \"#utility.yul\":8839:9072   */\n  swap2\n  swap1\n  pop\n  jump\t// out\n    /* \"contracts/MultiSigWallet.sol\":58:2971  contract MultiSigWallet {... */\ntag_28:\n  dataSize(sub_0)\n  dup1\n  dataOffset(sub_0)\n  0x00\n  codecopy\n  0x00\n  return\nstop\n\nsub_0: assembly {\n        /* \"contracts/MultiSigWallet.sol\":58:2971  contract MultiSigWallet {... */\n      mstore(0x40, 0x80)\n      jumpi(tag_1, lt(calldatasize, 0x04))\n      shr(0xe0, calldataload(0x00))\n      dup1\n      0x9ace38c2\n      gt\n      tag_11\n      jumpi\n      dup1\n      0x9ace38c2\n      eq\n      tag_7\n      jumpi\n      dup1\n      0xb759f954\n      eq\n      tag_8\n      jumpi\n      dup1\n      0xdc8452cd\n      eq\n      tag_9\n      jumpi\n      dup1\n      0xfe0d94c1\n      eq\n      tag_10\n      jumpi\n      jump(tag_2)\n    tag_11:\n      dup1\n      0x025e7c27\n      eq\n      tag_3\n      jumpi\n      dup1\n      0x14de327f\n      eq\n      tag_4\n      jumpi\n      dup1\n      0x2f54bf6e\n      eq\n      tag_5\n      jumpi\n      dup1\n      0x8253951a\n      eq\n      tag_6\n      jumpi\n      jump(tag_2)\n    tag_1:\n      jumpi(tag_2, calldatasize)\n        /* \"contracts/MultiSigWallet.sol\":1715:1725  msg.sender */\n      caller\n        /* \"contracts/MultiSigWallet.sol\":1707:1737  Deposit(msg.sender, msg.value) */\n      0xffffffffffffffffffffffffffffffffffffffff\n      and\n      0xe1fffcc4923d04b559f4d29a8bfc6cda04eb5b0d3c460751c2402c5c5cc9109c\n        /* \"contracts/MultiSigWallet.sol\":1727:1736  msg.value */\n      callvalue\n        /* \"contracts/MultiSigWallet.sol\":1707:1737  Deposit(msg.sender, msg.value) */\n      mload(0x40)\n      tag_14\n      swap2\n      swap1\n      tag_15\n      jump\t// in\n    tag_14:\n      mload(0x40)\n      dup1\n      swap2\n      sub\n      swap1\n      log2\n        /* \"contracts/MultiSigWallet.sol\":58:2971  contract MultiSigWallet {... */\n      stop\n    tag_2:\n      0x00\n      dup1\n      revert\n        /* \"contracts/MultiSigWallet.sol\":456:479  address[] public owners */\n    tag_3:\n      callvalue\n      dup1\n      iszero\n      tag_16\n      jumpi\n      0x00\n      dup1\n      revert\n    tag_16:\n      pop\n      tag_17\n      0x04\n      dup1\n      calldatasize\n      sub\n      dup2\n      add\n      swap1\n      tag_18\n      swap2\n      swap1\n      tag_19\n      jump\t// in\n    tag_18:\n      tag_20\n      jump\t// in\n    tag_17:\n      mload(0x40)\n      tag_21\n      swap2\n      swap1\n      tag_22\n      jump\t// in\n    tag_21:\n      mload(0x40)\n      dup1\n      swap2\n      sub\n      swap1\n      return\n        /* \"contracts/MultiSigWallet.sol\":1750:2059  function submit(address _to, uint _value, bytes calldata data) ... */\n    tag_4:\n      callvalue\n      dup1\n      iszero\n      tag_23\n      jumpi\n      0x00\n      dup1\n      revert\n    tag_23:\n      pop\n      tag_24\n      0x04\n      dup1\n      calldatasize\n      sub\n      dup2\n      add\n      swap1\n      tag_25\n      swap2\n      swap1\n      tag_26\n      jump\t// in\n    tag_25:\n      tag_27\n      jump\t// in\n    tag_24:\n      stop\n        /* \"contracts/MultiSigWallet.sol\":485:524  mapping(address => bool) public isOwner */\n    tag_5:\n      callvalue\n      dup1\n      iszero\n      tag_28\n      jumpi\n      0x00\n      dup1\n      revert\n    tag_28:\n      pop\n      tag_29\n      0x04\n      dup1\n      calldatasize\n      sub\n      dup2\n      add\n      swap1\n      tag_30\n      swap2\n      swap1\n      tag_31\n      jump\t// in\n    tag_30:\n      tag_32\n      jump\t// in\n    tag_29:\n      mload(0x40)\n      tag_33\n      swap2\n      swap1\n      tag_34\n      jump\t// in\n    tag_33:\n      mload(0x40)\n      dup1\n      swap2\n      sub\n      swap1\n      return\n        /* \"contracts/MultiSigWallet.sol\":596:653  mapping(uint => mapping(address => bool)) public approved */\n    tag_6:\n      callvalue\n      dup1\n      iszero\n      tag_35\n      jumpi\n      0x00\n      dup1\n      revert\n    tag_35:\n      pop\n      tag_36\n      0x04\n      dup1\n      calldatasize\n      sub\n      dup2\n      add\n      swap1\n      tag_37\n      swap2\n      swap1\n      tag_38\n      jump\t// in\n    tag_37:\n      tag_39\n      jump\t// in\n    tag_36:\n      mload(0x40)\n      tag_40\n      swap2\n      swap1\n      tag_34\n      jump\t// in\n    tag_40:\n      mload(0x40)\n      dup1\n      swap2\n      sub\n      swap1\n      return\n        /* \"contracts/MultiSigWallet.sol\":557:590  Transaction[] public transactions */\n    tag_7:\n      callvalue\n      dup1\n      iszero\n      tag_41\n      jumpi\n      0x00\n      dup1\n      revert\n    tag_41:\n      pop\n      tag_42\n      0x04\n      dup1\n      calldatasize\n      sub\n      dup2\n      add\n      swap1\n      tag_43\n      swap2\n      swap1\n      tag_19\n      jump\t// in\n    tag_43:\n      tag_44\n      jump\t// in\n    tag_42:\n      mload(0x40)\n      tag_45\n      swap5\n      swap4\n      swap3\n      swap2\n      swap1\n      tag_46\n      jump\t// in\n    tag_45:\n      mload(0x40)\n      dup1\n      swap2\n      sub\n      swap1\n      return\n        /* \"contracts/MultiSigWallet.sol\":2065:2304  function approve(uint _txId) ... */\n    tag_8:\n      callvalue\n      dup1\n      iszero\n      tag_47\n      jumpi\n      0x00\n      dup1\n      revert\n    tag_47:\n      pop\n      tag_48\n      0x04\n      dup1\n      calldatasize\n      sub\n      dup2\n      add\n      swap1\n      tag_49\n      swap2\n      swap1\n      tag_19\n      jump\t// in\n    tag_49:\n      tag_50\n      jump\t// in\n    tag_48:\n      stop\n        /* \"contracts/MultiSigWallet.sol\":530:550  uint public required */\n    tag_9:\n      callvalue\n      dup1\n      iszero\n      tag_51\n      jumpi\n      0x00\n      dup1\n      revert\n    tag_51:\n      pop\n      tag_52\n      tag_53\n      jump\t// in\n    tag_52:\n      mload(0x40)\n      tag_54\n      swap2\n      swap1\n      tag_15\n      jump\t// in\n    tag_54:\n      mload(0x40)\n      dup1\n      swap2\n      sub\n      swap1\n      return\n        /* \"contracts/MultiSigWallet.sol\":2539:2969  function execute(uint _txId) ... */\n    tag_10:\n      callvalue\n      dup1\n      iszero\n      tag_55\n      jumpi\n      0x00\n      dup1\n      revert\n    tag_55:\n      pop\n      tag_56\n      0x04\n      dup1\n      calldatasize\n      sub\n      dup2\n      add\n      swap1\n      tag_57\n      swap2\n      swap1\n      tag_19\n      jump\t// in\n    tag_57:\n      tag_58\n      jump\t// in\n    tag_56:\n      stop\n        /* \"contracts/MultiSigWallet.sol\":456:479  address[] public owners */\n    tag_20:\n      0x00\n      dup2\n      dup2\n      sload\n      dup2\n      lt\n      tag_59\n      jumpi\n      0x00\n      dup1\n      revert\n    tag_59:\n      swap1\n      0x00\n      mstore\n      keccak256(0x00, 0x20)\n      add\n      0x00\n      swap2\n      pop\n      sload\n      swap1\n      0x0100\n      exp\n      swap1\n      div\n      0xffffffffffffffffffffffffffffffffffffffff\n      and\n      dup2\n      jump\t// out\n        /* \"contracts/MultiSigWallet.sol\":1750:2059  function submit(address _to, uint _value, bytes calldata data) ... */\n    tag_27:\n        /* \"contracts/MultiSigWallet.sol\":699:706  isOwner */\n      0x01\n        /* \"contracts/MultiSigWallet.sol\":699:718  isOwner[msg.sender] */\n      0x00\n        /* \"contracts/MultiSigWallet.sol\":707:717  msg.sender */\n      caller\n        /* \"contracts/MultiSigWallet.sol\":699:718  isOwner[msg.sender] */\n      0xffffffffffffffffffffffffffffffffffffffff\n      and\n      0xffffffffffffffffffffffffffffffffffffffff\n      and\n      dup2\n      mstore\n      0x20\n      add\n      swap1\n      dup2\n      mstore\n      0x20\n      add\n      0x00\n      keccak256\n      0x00\n      swap1\n      sload\n      swap1\n      0x0100\n      exp\n      swap1\n      div\n      0xff\n      and\n        /* \"contracts/MultiSigWallet.sol\":691:732  require(isOwner[msg.sender], \"not owner\") */\n      tag_62\n      jumpi\n      mload(0x40)\n      0x08c379a000000000000000000000000000000000000000000000000000000000\n      dup2\n      mstore\n      0x04\n      add\n      tag_63\n      swap1\n      tag_64\n      jump\t// in\n    tag_63:\n      mload(0x40)\n      dup1\n      swap2\n      sub\n      swap1\n      revert\n    tag_62:\n        /* \"contracts/MultiSigWallet.sol\":1863:1875  transactions */\n      0x03\n        /* \"contracts/MultiSigWallet.sol\":1881:2005  Transaction({... */\n      mload(0x40)\n      dup1\n      0x80\n      add\n      0x40\n      mstore\n      dup1\n        /* \"contracts/MultiSigWallet.sol\":1911:1914  _to */\n      dup7\n        /* \"contracts/MultiSigWallet.sol\":1881:2005  Transaction({... */\n      0xffffffffffffffffffffffffffffffffffffffff\n      and\n      dup2\n      mstore\n      0x20\n      add\n        /* \"contracts/MultiSigWallet.sol\":1935:1941  _value */\n      dup6\n        /* \"contracts/MultiSigWallet.sol\":1881:2005  Transaction({... */\n      dup2\n      mstore\n      0x20\n      add\n        /* \"contracts/MultiSigWallet.sol\":1961:1965  data */\n      dup5\n      dup5\n        /* \"contracts/MultiSigWallet.sol\":1881:2005  Transaction({... */\n      dup1\n      dup1\n      0x1f\n      add\n      0x20\n      dup1\n      swap2\n      div\n      mul\n      0x20\n      add\n      mload(0x40)\n      swap1\n      dup2\n      add\n      0x40\n      mstore\n      dup1\n      swap4\n      swap3\n      swap2\n      swap1\n      dup2\n      dup2\n      mstore\n      0x20\n      add\n      dup4\n      dup4\n      dup1\n      dup3\n      dup5\n      calldatacopy\n      0x00\n      dup2\n      dup5\n      add\n      mstore\n      not(0x1f)\n      0x1f\n      dup3\n      add\n      and\n      swap1\n      pop\n      dup1\n      dup4\n      add\n      swap3\n      pop\n      pop\n      pop\n      pop\n      pop\n      pop\n      pop\n      dup2\n      mstore\n      0x20\n      add\n        /* \"contracts/MultiSigWallet.sol\":1989:1994  false */\n      0x00\n        /* \"contracts/MultiSigWallet.sol\":1881:2005  Transaction({... */\n      iszero\n      iszero\n      dup2\n      mstore\n      pop\n        /* \"contracts/MultiSigWallet.sol\":1863:2006  transactions.push(Transaction({... */\n      swap1\n      dup1\n      0x01\n      dup2\n      sload\n      add\n      dup1\n      dup3\n      sstore\n      dup1\n      swap2\n      pop\n      pop\n      0x01\n      swap1\n      sub\n      swap1\n      0x00\n      mstore\n      keccak256(0x00, 0x20)\n      swap1\n      0x04\n      mul\n      add\n      0x00\n      swap1\n      swap2\n      swap1\n      swap2\n      swap1\n      swap2\n      pop\n      0x00\n      dup3\n      add\n      mload\n      dup2\n      0x00\n      add\n      exp(0x0100, 0x00)\n      dup2\n      sload\n      dup2\n      0xffffffffffffffffffffffffffffffffffffffff\n      mul\n      not\n      and\n      swap1\n      dup4\n      0xffffffffffffffffffffffffffffffffffffffff\n      and\n      mul\n      or\n      swap1\n      sstore\n      pop\n      0x20\n      dup3\n      add\n      mload\n      dup2\n      0x01\n      add\n      sstore\n      0x40\n      dup3\n      add\n      mload\n      dup2\n      0x02\n      add\n      swap1\n      dup1\n      mload\n      swap1\n      0x20\n      add\n      swap1\n      tag_67\n      swap3\n      swap2\n      swap1\n      tag_68\n      jump\t// in\n    tag_67:\n      pop\n      0x60\n      dup3\n      add\n      mload\n      dup2\n      0x03\n      add\n      exp(0x0100, 0x00)\n      dup2\n      sload\n      dup2\n      0xff\n      mul\n      not\n      and\n      swap1\n      dup4\n      iszero\n      iszero\n      mul\n      or\n      swap1\n      sstore\n      pop\n      pop\n      pop\n        /* \"contracts/MultiSigWallet.sol\":2050:2051  1 */\n      0x01\n        /* \"contracts/MultiSigWallet.sol\":2028:2040  transactions */\n      0x03\n        /* \"contracts/MultiSigWallet.sol\":2028:2047  transactions.length */\n      dup1\n      sload\n      swap1\n      pop\n        /* \"contracts/MultiSigWallet.sol\":2028:2051  transactions.length - 1 */\n      tag_69\n      swap2\n      swap1\n      tag_70\n      jump\t// in\n    tag_69:\n        /* \"contracts/MultiSigWallet.sol\":2021:2052  Submit(transactions.length - 1) */\n      0x08324b3d745b914e3abd4ffbfead91e3b78391a98c173202129215ab933adfbe\n      mload(0x40)\n      mload(0x40)\n      dup1\n      swap2\n      sub\n      swap1\n      log2\n        /* \"contracts/MultiSigWallet.sol\":1750:2059  function submit(address _to, uint _value, bytes calldata data) ... */\n      pop\n      pop\n      pop\n      pop\n      jump\t// out\n        /* \"contracts/MultiSigWallet.sol\":485:524  mapping(address => bool) public isOwner */\n    tag_32:\n      mstore(0x20, 0x01)\n      dup1\n      0x00\n      mstore\n      keccak256(0x00, 0x40)\n      0x00\n      swap2\n      pop\n      sload\n      swap1\n      0x0100\n      exp\n      swap1\n      div\n      0xff\n      and\n      dup2\n      jump\t// out\n        /* \"contracts/MultiSigWallet.sol\":596:653  mapping(uint => mapping(address => bool)) public approved */\n    tag_39:\n      mstore(0x20, 0x04)\n      dup2\n      0x00\n      mstore\n      mstore(0x20, keccak256(0x00, 0x40))\n      dup1\n      0x00\n      mstore\n      keccak256(0x00, 0x40)\n      0x00\n      swap2\n      pop\n      swap2\n      pop\n      swap1\n      sload\n      swap1\n      0x0100\n      exp\n      swap1\n      div\n      0xff\n      and\n      dup2\n      jump\t// out\n        /* \"contracts/MultiSigWallet.sol\":557:590  Transaction[] public transactions */\n    tag_44:\n      0x03\n      dup2\n      dup2\n      sload\n      dup2\n      lt\n      tag_71\n      jumpi\n      0x00\n      dup1\n      revert\n    tag_71:\n      swap1\n      0x00\n      mstore\n      keccak256(0x00, 0x20)\n      swap1\n      0x04\n      mul\n      add\n      0x00\n      swap2\n      pop\n      swap1\n      pop\n      dup1\n      0x00\n      add\n      0x00\n      swap1\n      sload\n      swap1\n      0x0100\n      exp\n      swap1\n      div\n      0xffffffffffffffffffffffffffffffffffffffff\n      and\n      swap1\n      dup1\n      0x01\n      add\n      sload\n      swap1\n      dup1\n      0x02\n      add\n      dup1\n      sload\n      tag_73\n      swap1\n      tag_74\n      jump\t// in\n    tag_73:\n      dup1\n      0x1f\n      add\n      0x20\n      dup1\n      swap2\n      div\n      mul\n      0x20\n      add\n      mload(0x40)\n      swap1\n      dup2\n      add\n      0x40\n      mstore\n      dup1\n      swap3\n      swap2\n      swap1\n      dup2\n      dup2\n      mstore\n      0x20\n      add\n      dup3\n      dup1\n      sload\n      tag_75\n      swap1\n      tag_74\n      jump\t// in\n    tag_75:\n      dup1\n      iszero\n      tag_76\n      jumpi\n      dup1\n      0x1f\n      lt\n      tag_77\n      jumpi\n      0x0100\n      dup1\n      dup4\n      sload\n      div\n      mul\n      dup4\n      mstore\n      swap2\n      0x20\n      add\n      swap2\n      jump(tag_76)\n    tag_77:\n      dup3\n      add\n      swap2\n      swap1\n      0x00\n      mstore\n      keccak256(0x00, 0x20)\n      swap1\n    tag_78:\n      dup2\n      sload\n      dup2\n      mstore\n      swap1\n      0x01\n      add\n      swap1\n      0x20\n      add\n      dup1\n      dup4\n      gt\n      tag_78\n      jumpi\n      dup3\n      swap1\n      sub\n      0x1f\n      and\n      dup3\n      add\n      swap2\n    tag_76:\n      pop\n      pop\n      pop\n      pop\n      pop\n      swap1\n      dup1\n      0x03\n      add\n      0x00\n      swap1\n      sload\n      swap1\n      0x0100\n      exp\n      swap1\n      div\n      0xff\n      and\n      swap1\n      pop\n      dup5\n      jump\t// out\n        /* \"contracts/MultiSigWallet.sol\":2065:2304  function approve(uint _txId) ... */\n    tag_50:\n        /* \"contracts/MultiSigWallet.sol\":699:706  isOwner */\n      0x01\n        /* \"contracts/MultiSigWallet.sol\":699:718  isOwner[msg.sender] */\n      0x00\n        /* \"contracts/MultiSigWallet.sol\":707:717  msg.sender */\n      caller\n        /* \"contracts/MultiSigWallet.sol\":699:718  isOwner[msg.sender] */\n      0xffffffffffffffffffffffffffffffffffffffff\n      and\n      0xffffffffffffffffffffffffffffffffffffffff\n      and\n      dup2\n      mstore\n      0x20\n      add\n      swap1\n      dup2\n      mstore\n      0x20\n      add\n      0x00\n      keccak256\n      0x00\n      swap1\n      sload\n      swap1\n      0x0100\n      exp\n      swap1\n      div\n      0xff\n      and\n        /* \"contracts/MultiSigWallet.sol\":691:732  require(isOwner[msg.sender], \"not owner\") */\n      tag_80\n      jumpi\n      mload(0x40)\n      0x08c379a000000000000000000000000000000000000000000000000000000000\n      dup2\n      mstore\n      0x04\n      add\n      tag_81\n      swap1\n      tag_64\n      jump\t// in\n    tag_81:\n      mload(0x40)\n      dup1\n      swap2\n      sub\n      swap1\n      revert\n    tag_80:\n        /* \"contracts/MultiSigWallet.sol\":2147:2152  _txId */\n      dup1\n        /* \"contracts/MultiSigWallet.sol\":826:831  _txId */\n      dup1\n        /* \"contracts/MultiSigWallet.sol\":804:816  transactions */\n      0x03\n        /* \"contracts/MultiSigWallet.sol\":804:823  transactions.length */\n      dup1\n      sload\n      swap1\n      pop\n        /* \"contracts/MultiSigWallet.sol\":804:831  transactions.length < _txId */\n      lt\n        /* \"contracts/MultiSigWallet.sol\":796:853  require(transactions.length < _txId, \"tx does not exist\") */\n      tag_83\n      jumpi\n      mload(0x40)\n      0x08c379a000000000000000000000000000000000000000000000000000000000\n      dup2\n      mstore\n      0x04\n      add\n      tag_84\n      swap1\n      tag_85\n      jump\t// in\n    tag_84:\n      mload(0x40)\n      dup1\n      swap2\n      sub\n      swap1\n      revert\n    tag_83:\n        /* \"contracts/MultiSigWallet.sol\":2174:2179  _txId */\n      dup2\n        /* \"contracts/MultiSigWallet.sol\":928:936  approved */\n      0x04\n        /* \"contracts/MultiSigWallet.sol\":928:943  approved[_txId] */\n      0x00\n        /* \"contracts/MultiSigWallet.sol\":937:942  _txId */\n      dup3\n        /* \"contracts/MultiSigWallet.sol\":928:943  approved[_txId] */\n      dup2\n      mstore\n      0x20\n      add\n      swap1\n      dup2\n      mstore\n      0x20\n      add\n      0x00\n      keccak256\n        /* \"contracts/MultiSigWallet.sol\":928:955  approved[_txId][msg.sender] */\n      0x00\n        /* \"contracts/MultiSigWallet.sol\":944:954  msg.sender */\n      caller\n        /* \"contracts/MultiSigWallet.sol\":928:955  approved[_txId][msg.sender] */\n      0xffffffffffffffffffffffffffffffffffffffff\n      and\n      0xffffffffffffffffffffffffffffffffffffffff\n      and\n      dup2\n      mstore\n      0x20\n      add\n      swap1\n      dup2\n      mstore\n      0x20\n      add\n      0x00\n      keccak256\n      0x00\n      swap1\n      sload\n      swap1\n      0x0100\n      exp\n      swap1\n      div\n      0xff\n      and\n        /* \"contracts/MultiSigWallet.sol\":927:955  !approved[_txId][msg.sender] */\n      iszero\n        /* \"contracts/MultiSigWallet.sol\":919:979  require(!approved[_txId][msg.sender], \"tx already approved\") */\n      tag_87\n      jumpi\n      mload(0x40)\n      0x08c379a000000000000000000000000000000000000000000000000000000000\n      dup2\n      mstore\n      0x04\n      add\n      tag_88\n      swap1\n      tag_89\n      jump\t// in\n    tag_88:\n      mload(0x40)\n      dup1\n      swap2\n      sub\n      swap1\n      revert\n    tag_87:\n        /* \"contracts/MultiSigWallet.sol\":2201:2206  _txId */\n      dup3\n        /* \"contracts/MultiSigWallet.sol\":1054:1066  transactions */\n      0x03\n        /* \"contracts/MultiSigWallet.sol\":1067:1072  _txId */\n      dup2\n        /* \"contracts/MultiSigWallet.sol\":1054:1073  transactions[_txId] */\n      dup2\n      sload\n      dup2\n      lt\n      tag_91\n      jumpi\n      tag_92\n      tag_93\n      jump\t// in\n    tag_92:\n    tag_91:\n      swap1\n      0x00\n      mstore\n      keccak256(0x00, 0x20)\n      swap1\n      0x04\n      mul\n      add\n        /* \"contracts/MultiSigWallet.sol\":1054:1082  transactions[_txId].executed */\n      0x03\n      add\n      0x00\n      swap1\n      sload\n      swap1\n      0x0100\n      exp\n      swap1\n      div\n      0xff\n      and\n        /* \"contracts/MultiSigWallet.sol\":1053:1082  !transactions[_txId].executed */\n      iszero\n        /* \"contracts/MultiSigWallet.sol\":1045:1106  require(!transactions[_txId].executed, \"tx already executed\") */\n      tag_95\n      jumpi\n      mload(0x40)\n      0x08c379a000000000000000000000000000000000000000000000000000000000\n      dup2\n      mstore\n      0x04\n      add\n      tag_96\n      swap1\n      tag_97\n      jump\t// in\n    tag_96:\n      mload(0x40)\n      dup1\n      swap2\n      sub\n      swap1\n      revert\n    tag_95:\n        /* \"contracts/MultiSigWallet.sol\":2252:2256  true */\n      0x01\n        /* \"contracts/MultiSigWallet.sol\":2222:2230  approved */\n      0x04\n        /* \"contracts/MultiSigWallet.sol\":2222:2237  approved[_txId] */\n      0x00\n        /* \"contracts/MultiSigWallet.sol\":2231:2236  _txId */\n      dup7\n        /* \"contracts/MultiSigWallet.sol\":2222:2237  approved[_txId] */\n      dup2\n      mstore\n      0x20\n      add\n      swap1\n      dup2\n      mstore\n      0x20\n      add\n      0x00\n      keccak256\n        /* \"contracts/MultiSigWallet.sol\":2222:2249  approved[_txId][msg.sender] */\n      0x00\n        /* \"contracts/MultiSigWallet.sol\":2238:2248  msg.sender */\n      caller\n        /* \"contracts/MultiSigWallet.sol\":2222:2249  approved[_txId][msg.sender] */\n      0xffffffffffffffffffffffffffffffffffffffff\n      and\n      0xffffffffffffffffffffffffffffffffffffffff\n      and\n      dup2\n      mstore\n      0x20\n      add\n      swap1\n      dup2\n      mstore\n      0x20\n      add\n      0x00\n      keccak256\n      0x00\n        /* \"contracts/MultiSigWallet.sol\":2222:2256  approved[_txId][msg.sender] = true */\n      0x0100\n      exp\n      dup2\n      sload\n      dup2\n      0xff\n      mul\n      not\n      and\n      swap1\n      dup4\n      iszero\n      iszero\n      mul\n      or\n      swap1\n      sstore\n      pop\n        /* \"contracts/MultiSigWallet.sol\":2291:2296  _txId */\n      dup4\n        /* \"contracts/MultiSigWallet.sol\":2279:2289  msg.sender */\n      caller\n        /* \"contracts/MultiSigWallet.sol\":2271:2297  Approve(msg.sender, _txId) */\n      0xffffffffffffffffffffffffffffffffffffffff\n      and\n      0x90ec57f18fa7b15c6b8d5e4d1deb90796c74b2ff23d4d0cecad0cb42a96b3128\n      mload(0x40)\n      mload(0x40)\n      dup1\n      swap2\n      sub\n      swap1\n      log3\n        /* \"contracts/MultiSigWallet.sol\":989:990  _ */\n      pop\n        /* \"contracts/MultiSigWallet.sol\":863:864  _ */\n      pop\n        /* \"contracts/MultiSigWallet.sol\":742:743  _ */\n      pop\n        /* \"contracts/MultiSigWallet.sol\":2065:2304  function approve(uint _txId) ... */\n      pop\n      jump\t// out\n        /* \"contracts/MultiSigWallet.sol\":530:550  uint public required */\n    tag_53:\n      sload(0x02)\n      dup2\n      jump\t// out\n        /* \"contracts/MultiSigWallet.sol\":2539:2969  function execute(uint _txId) ... */\n    tag_58:\n        /* \"contracts/MultiSigWallet.sol\":2603:2608  _txId */\n      dup1\n        /* \"contracts/MultiSigWallet.sol\":826:831  _txId */\n      dup1\n        /* \"contracts/MultiSigWallet.sol\":804:816  transactions */\n      0x03\n        /* \"contracts/MultiSigWallet.sol\":804:823  transactions.length */\n      dup1\n      sload\n      swap1\n      pop\n        /* \"contracts/MultiSigWallet.sol\":804:831  transactions.length < _txId */\n      lt\n        /* \"contracts/MultiSigWallet.sol\":796:853  require(transactions.length < _txId, \"tx does not exist\") */\n      tag_100\n      jumpi\n      mload(0x40)\n      0x08c379a000000000000000000000000000000000000000000000000000000000\n      dup2\n      mstore\n      0x04\n      add\n      tag_101\n      swap1\n      tag_85\n      jump\t// in\n    tag_101:\n      mload(0x40)\n      dup1\n      swap2\n      sub\n      swap1\n      revert\n    tag_100:\n        /* \"contracts/MultiSigWallet.sol\":2630:2635  _txId */\n      dup2\n        /* \"contracts/MultiSigWallet.sol\":1054:1066  transactions */\n      0x03\n        /* \"contracts/MultiSigWallet.sol\":1067:1072  _txId */\n      dup2\n        /* \"contracts/MultiSigWallet.sol\":1054:1073  transactions[_txId] */\n      dup2\n      sload\n      dup2\n      lt\n      tag_103\n      jumpi\n      tag_104\n      tag_93\n      jump\t// in\n    tag_104:\n    tag_103:\n      swap1\n      0x00\n      mstore\n      keccak256(0x00, 0x20)\n      swap1\n      0x04\n      mul\n      add\n        /* \"contracts/MultiSigWallet.sol\":1054:1082  transactions[_txId].executed */\n      0x03\n      add\n      0x00\n      swap1\n      sload\n      swap1\n      0x0100\n      exp\n      swap1\n      div\n      0xff\n      and\n        /* \"contracts/MultiSigWallet.sol\":1053:1082  !transactions[_txId].executed */\n      iszero\n        /* \"contracts/MultiSigWallet.sol\":1045:1106  require(!transactions[_txId].executed, \"tx already executed\") */\n      tag_106\n      jumpi\n      mload(0x40)\n      0x08c379a000000000000000000000000000000000000000000000000000000000\n      dup2\n      mstore\n      0x04\n      add\n      tag_107\n      swap1\n      tag_97\n      jump\t// in\n    tag_107:\n      mload(0x40)\n      dup1\n      swap2\n      sub\n      swap1\n      revert\n    tag_106:\n        /* \"contracts/MultiSigWallet.sol\":2687:2695  required */\n      sload(0x02)\n        /* \"contracts/MultiSigWallet.sol\":2659:2683  _getApprovalCount(_txId) */\n      tag_109\n        /* \"contracts/MultiSigWallet.sol\":2677:2682  _txId */\n      dup5\n        /* \"contracts/MultiSigWallet.sol\":2659:2676  _getApprovalCount */\n      tag_110\n        /* \"contracts/MultiSigWallet.sol\":2659:2683  _getApprovalCount(_txId) */\n      jump\t// in\n    tag_109:\n        /* \"contracts/MultiSigWallet.sol\":2659:2695  _getApprovalCount(_txId) >= required */\n      lt\n      iszero\n        /* \"contracts/MultiSigWallet.sol\":2651:2730  require(_getApprovalCount(_txId) >= required, \"transaction less than required\") */\n      tag_111\n      jumpi\n      mload(0x40)\n      0x08c379a000000000000000000000000000000000000000000000000000000000\n      dup2\n      mstore\n      0x04\n      add\n      tag_112\n      swap1\n      tag_113\n      jump\t// in\n    tag_112:\n      mload(0x40)\n      dup1\n      swap2\n      sub\n      swap1\n      revert\n    tag_111:\n        /* \"contracts/MultiSigWallet.sol\":2740:2771  Transaction storage transaction */\n      0x00\n        /* \"contracts/MultiSigWallet.sol\":2775:2787  transactions */\n      0x03\n        /* \"contracts/MultiSigWallet.sol\":2788:2793  _txId */\n      dup5\n        /* \"contracts/MultiSigWallet.sol\":2775:2794  transactions[_txId] */\n      dup2\n      sload\n      dup2\n      lt\n      tag_114\n      jumpi\n      tag_115\n      tag_93\n      jump\t// in\n    tag_115:\n    tag_114:\n      swap1\n      0x00\n      mstore\n      keccak256(0x00, 0x20)\n      swap1\n      0x04\n      mul\n      add\n        /* \"contracts/MultiSigWallet.sol\":2740:2794  Transaction storage transaction =  transactions[_txId] */\n      swap1\n      pop\n        /* \"contracts/MultiSigWallet.sol\":2827:2831  true */\n      0x01\n        /* \"contracts/MultiSigWallet.sol\":2804:2815  transaction */\n      dup2\n        /* \"contracts/MultiSigWallet.sol\":2804:2824  transaction.executed */\n      0x03\n      add\n      0x00\n        /* \"contracts/MultiSigWallet.sol\":2804:2831  transaction.executed = true */\n      0x0100\n      exp\n      dup2\n      sload\n      dup2\n      0xff\n      mul\n      not\n      and\n      swap1\n      dup4\n      iszero\n      iszero\n      mul\n      or\n      swap1\n      sstore\n      pop\n        /* \"contracts/MultiSigWallet.sol\":2842:2854  bool success */\n      0x00\n        /* \"contracts/MultiSigWallet.sol\":2860:2871  transaction */\n      dup2\n        /* \"contracts/MultiSigWallet.sol\":2860:2874  transaction.to */\n      0x00\n      add\n      0x00\n      swap1\n      sload\n      swap1\n      0x0100\n      exp\n      swap1\n      div\n      0xffffffffffffffffffffffffffffffffffffffff\n      and\n        /* \"contracts/MultiSigWallet.sol\":2860:2879  transaction.to.call */\n      0xffffffffffffffffffffffffffffffffffffffff\n      and\n        /* \"contracts/MultiSigWallet.sol\":2887:2898  transaction */\n      dup3\n        /* \"contracts/MultiSigWallet.sol\":2887:2904  transaction.value */\n      0x01\n      add\n      sload\n        /* \"contracts/MultiSigWallet.sol\":2906:2917  transaction */\n      dup4\n        /* \"contracts/MultiSigWallet.sol\":2906:2922  transaction.data */\n      0x02\n      add\n        /* \"contracts/MultiSigWallet.sol\":2860:2923  transaction.to.call{value: transaction.value}(transaction.data) */\n      mload(0x40)\n      tag_117\n      swap2\n      swap1\n      tag_118\n      jump\t// in\n    tag_117:\n      0x00\n      mload(0x40)\n      dup1\n      dup4\n      sub\n      dup2\n      dup6\n      dup8\n      gas\n      call\n      swap3\n      pop\n      pop\n      pop\n      returndatasize\n      dup1\n      0x00\n      dup2\n      eq\n      tag_121\n      jumpi\n      mload(0x40)\n      swap2\n      pop\n      and(add(returndatasize, 0x3f), not(0x1f))\n      dup3\n      add\n      0x40\n      mstore\n      returndatasize\n      dup3\n      mstore\n      returndatasize\n      0x00\n      0x20\n      dup5\n      add\n      returndatacopy\n      jump(tag_120)\n    tag_121:\n      0x60\n      swap2\n      pop\n    tag_120:\n      pop\n        /* \"contracts/MultiSigWallet.sol\":2841:2923  (bool success, ) = transaction.to.call{value: transaction.value}(transaction.data) */\n      pop\n      swap1\n      pop\n        /* \"contracts/MultiSigWallet.sol\":2941:2948  success */\n      dup1\n        /* \"contracts/MultiSigWallet.sol\":2933:2962  require(success, \"tx failed\") */\n      tag_122\n      jumpi\n      mload(0x40)\n      0x08c379a000000000000000000000000000000000000000000000000000000000\n      dup2\n      mstore\n      0x04\n      add\n      tag_123\n      swap1\n      tag_124\n      jump\t// in\n    tag_123:\n      mload(0x40)\n      dup1\n      swap2\n      sub\n      swap1\n      revert\n    tag_122:\n        /* \"contracts/MultiSigWallet.sol\":2641:2969  {... */\n      pop\n      pop\n        /* \"contracts/MultiSigWallet.sol\":863:864  _ */\n      pop\n        /* \"contracts/MultiSigWallet.sol\":2539:2969  function execute(uint _txId) ... */\n      pop\n      pop\n      jump\t// out\n        /* \"contracts/MultiSigWallet.sol\":2310:2533  function _getApprovalCount(uint _txId) private view returns (uint count) {... */\n    tag_110:\n        /* \"contracts/MultiSigWallet.sol\":2371:2381  uint count */\n      0x00\n        /* \"contracts/MultiSigWallet.sol\":2398:2404  uint i */\n      dup1\n        /* \"contracts/MultiSigWallet.sol\":2393:2527  for (uint i; i < owners.length; i++) {... */\n    tag_126:\n        /* \"contracts/MultiSigWallet.sol\":2410:2416  owners */\n      0x00\n        /* \"contracts/MultiSigWallet.sol\":2410:2423  owners.length */\n      dup1\n      sload\n      swap1\n      pop\n        /* \"contracts/MultiSigWallet.sol\":2406:2407  i */\n      dup2\n        /* \"contracts/MultiSigWallet.sol\":2406:2423  i < owners.length */\n      lt\n        /* \"contracts/MultiSigWallet.sol\":2393:2527  for (uint i; i < owners.length; i++) {... */\n      iszero\n      tag_127\n      jumpi\n        /* \"contracts/MultiSigWallet.sol\":2447:2455  approved */\n      0x04\n        /* \"contracts/MultiSigWallet.sol\":2447:2462  approved[_txId] */\n      0x00\n        /* \"contracts/MultiSigWallet.sol\":2456:2461  _txId */\n      dup5\n        /* \"contracts/MultiSigWallet.sol\":2447:2462  approved[_txId] */\n      dup2\n      mstore\n      0x20\n      add\n      swap1\n      dup2\n      mstore\n      0x20\n      add\n      0x00\n      keccak256\n        /* \"contracts/MultiSigWallet.sol\":2447:2473  approved[_txId][owners[i]] */\n      0x00\n        /* \"contracts/MultiSigWallet.sol\":2463:2469  owners */\n      dup1\n        /* \"contracts/MultiSigWallet.sol\":2470:2471  i */\n      dup4\n        /* \"contracts/MultiSigWallet.sol\":2463:2472  owners[i] */\n      dup2\n      sload\n      dup2\n      lt\n      tag_129\n      jumpi\n      tag_130\n      tag_93\n      jump\t// in\n    tag_130:\n    tag_129:\n      swap1\n      0x00\n      mstore\n      keccak256(0x00, 0x20)\n      add\n      0x00\n      swap1\n      sload\n      swap1\n      0x0100\n      exp\n      swap1\n      div\n      0xffffffffffffffffffffffffffffffffffffffff\n      and\n        /* \"contracts/MultiSigWallet.sol\":2447:2473  approved[_txId][owners[i]] */\n      0xffffffffffffffffffffffffffffffffffffffff\n      and\n      0xffffffffffffffffffffffffffffffffffffffff\n      and\n      dup2\n      mstore\n      0x20\n      add\n      swap1\n      dup2\n      mstore\n      0x20\n      add\n      0x00\n      keccak256\n      0x00\n      swap1\n      sload\n      swap1\n      0x0100\n      exp\n      swap1\n      div\n      0xff\n      and\n        /* \"contracts/MultiSigWallet.sol\":2444:2517  if(approved[_txId][owners[i]]){... */\n      iszero\n      tag_132\n      jumpi\n        /* \"contracts/MultiSigWallet.sol\":2501:2502  1 */\n      0x01\n        /* \"contracts/MultiSigWallet.sol\":2492:2502  count += 1 */\n      dup3\n      tag_133\n      swap2\n      swap1\n      tag_134\n      jump\t// in\n    tag_133:\n      swap2\n      pop\n        /* \"contracts/MultiSigWallet.sol\":2444:2517  if(approved[_txId][owners[i]]){... */\n    tag_132:\n        /* \"contracts/MultiSigWallet.sol\":2425:2428  i++ */\n      dup1\n      dup1\n      tag_135\n      swap1\n      tag_136\n      jump\t// in\n    tag_135:\n      swap2\n      pop\n      pop\n        /* \"contracts/MultiSigWallet.sol\":2393:2527  for (uint i; i < owners.length; i++) {... */\n      jump(tag_126)\n    tag_127:\n      pop\n        /* \"contracts/MultiSigWallet.sol\":2310:2533  function _getApprovalCount(uint _txId) private view returns (uint count) {... */\n      swap2\n      swap1\n      pop\n      jump\t// out\n    tag_68:\n      dup3\n      dup1\n      sload\n      tag_137\n      swap1\n      tag_74\n      jump\t// in\n    tag_137:\n      swap1\n      0x00\n      mstore\n      keccak256(0x00, 0x20)\n      swap1\n      0x1f\n      add\n      0x20\n      swap1\n      div\n      dup2\n      add\n      swap3\n      dup3\n      tag_139\n      jumpi\n      0x00\n      dup6\n      sstore\n      jump(tag_138)\n    tag_139:\n      dup3\n      0x1f\n      lt\n      tag_140\n      jumpi\n      dup1\n      mload\n      not(0xff)\n      and\n      dup4\n      dup1\n      add\n      or\n      dup6\n      sstore\n      jump(tag_138)\n    tag_140:\n      dup3\n      dup1\n      add\n      0x01\n      add\n      dup6\n      sstore\n      dup3\n      iszero\n      tag_138\n      jumpi\n      swap2\n      dup3\n      add\n    tag_141:\n      dup3\n      dup2\n      gt\n      iszero\n      tag_142\n      jumpi\n      dup3\n      mload\n      dup3\n      sstore\n      swap2\n      0x20\n      add\n      swap2\n      swap1\n      0x01\n      add\n      swap1\n      jump(tag_141)\n    tag_142:\n    tag_138:\n      pop\n      swap1\n      pop\n      tag_143\n      swap2\n      swap1\n      tag_144\n      jump\t// in\n    tag_143:\n      pop\n      swap1\n      jump\t// out\n    tag_144:\n    tag_145:\n      dup1\n      dup3\n      gt\n      iszero\n      tag_146\n      jumpi\n      0x00\n      dup2\n      0x00\n      swap1\n      sstore\n      pop\n      0x01\n      add\n      jump(tag_145)\n    tag_146:\n      pop\n      swap1\n      jump\t// out\n        /* \"#utility.yul\":7:84   */\n    tag_147:\n        /* \"#utility.yul\":44:51   */\n      0x00\n        /* \"#utility.yul\":73:78   */\n      dup2\n        /* \"#utility.yul\":62:78   */\n      swap1\n      pop\n        /* \"#utility.yul\":7:84   */\n      swap2\n      swap1\n      pop\n      jump\t// out\n        /* \"#utility.yul\":90:208   */\n    tag_148:\n        /* \"#utility.yul\":177:201   */\n      tag_191\n        /* \"#utility.yul\":195:200   */\n      dup2\n        /* \"#utility.yul\":177:201   */\n      tag_147\n      jump\t// in\n    tag_191:\n        /* \"#utility.yul\":172:175   */\n      dup3\n        /* \"#utility.yul\":165:202   */\n      mstore\n        /* \"#utility.yul\":90:208   */\n      pop\n      pop\n      jump\t// out\n        /* \"#utility.yul\":214:436   */\n    tag_15:\n        /* \"#utility.yul\":307:311   */\n      0x00\n        /* \"#utility.yul\":345:347   */\n      0x20\n        /* \"#utility.yul\":334:343   */\n      dup3\n        /* \"#utility.yul\":330:348   */\n      add\n        /* \"#utility.yul\":322:348   */\n      swap1\n      pop\n        /* \"#utility.yul\":358:429   */\n      tag_193\n        /* \"#utility.yul\":426:427   */\n      0x00\n        /* \"#utility.yul\":415:424   */\n      dup4\n        /* \"#utility.yul\":411:428   */\n      add\n        /* \"#utility.yul\":402:408   */\n      dup5\n        /* \"#utility.yul\":358:429   */\n      tag_148\n      jump\t// in\n    tag_193:\n        /* \"#utility.yul\":214:436   */\n      swap3\n      swap2\n      pop\n      pop\n      jump\t// out\n        /* \"#utility.yul\":523:640   */\n    tag_150:\n        /* \"#utility.yul\":632:633   */\n      0x00\n        /* \"#utility.yul\":629:630   */\n      dup1\n        /* \"#utility.yul\":622:634   */\n      revert\n        /* \"#utility.yul\":646:763   */\n    tag_151:\n        /* \"#utility.yul\":755:756   */\n      0x00\n        /* \"#utility.yul\":752:753   */\n      dup1\n        /* \"#utility.yul\":745:757   */\n      revert\n        /* \"#utility.yul\":769:891   */\n    tag_152:\n        /* \"#utility.yul\":842:866   */\n      tag_198\n        /* \"#utility.yul\":860:865   */\n      dup2\n        /* \"#utility.yul\":842:866   */\n      tag_147\n      jump\t// in\n    tag_198:\n        /* \"#utility.yul\":835:840   */\n      dup2\n        /* \"#utility.yul\":832:867   */\n      eq\n        /* \"#utility.yul\":822:885   */\n      tag_199\n      jumpi\n        /* \"#utility.yul\":881:882   */\n      0x00\n        /* \"#utility.yul\":878:879   */\n      dup1\n        /* \"#utility.yul\":871:883   */\n      revert\n        /* \"#utility.yul\":822:885   */\n    tag_199:\n        /* \"#utility.yul\":769:891   */\n      pop\n      jump\t// out\n        /* \"#utility.yul\":897:1036   */\n    tag_153:\n        /* \"#utility.yul\":943:948   */\n      0x00\n        /* \"#utility.yul\":981:987   */\n      dup2\n        /* \"#utility.yul\":968:988   */\n      calldataload\n        /* \"#utility.yul\":959:988   */\n      swap1\n      pop\n        /* \"#utility.yul\":997:1030   */\n      tag_201\n        /* \"#utility.yul\":1024:1029   */\n      dup2\n        /* \"#utility.yul\":997:1030   */\n      tag_152\n      jump\t// in\n    tag_201:\n        /* \"#utility.yul\":897:1036   */\n      swap3\n      swap2\n      pop\n      pop\n      jump\t// out\n        /* \"#utility.yul\":1042:1371   */\n    tag_19:\n        /* \"#utility.yul\":1101:1107   */\n      0x00\n        /* \"#utility.yul\":1150:1152   */\n      0x20\n        /* \"#utility.yul\":1138:1147   */\n      dup3\n        /* \"#utility.yul\":1129:1136   */\n      dup5\n        /* \"#utility.yul\":1125:1148   */\n      sub\n        /* \"#utility.yul\":1121:1153   */\n      slt\n        /* \"#utility.yul\":1118:1237   */\n      iszero\n      tag_203\n      jumpi\n        /* \"#utility.yul\":1156:1235   */\n      tag_204\n      tag_150\n      jump\t// in\n    tag_204:\n        /* \"#utility.yul\":1118:1237   */\n    tag_203:\n        /* \"#utility.yul\":1276:1277   */\n      0x00\n        /* \"#utility.yul\":1301:1354   */\n      tag_205\n        /* \"#utility.yul\":1346:1353   */\n      dup5\n        /* \"#utility.yul\":1337:1343   */\n      dup3\n        /* \"#utility.yul\":1326:1335   */\n      dup6\n        /* \"#utility.yul\":1322:1344   */\n      add\n        /* \"#utility.yul\":1301:1354   */\n      tag_153\n      jump\t// in\n    tag_205:\n        /* \"#utility.yul\":1291:1354   */\n      swap2\n      pop\n        /* \"#utility.yul\":1247:1364   */\n      pop\n        /* \"#utility.yul\":1042:1371   */\n      swap3\n      swap2\n      pop\n      pop\n      jump\t// out\n        /* \"#utility.yul\":1377:1503   */\n    tag_154:\n        /* \"#utility.yul\":1414:1421   */\n      0x00\n        /* \"#utility.yul\":1454:1496   */\n      0xffffffffffffffffffffffffffffffffffffffff\n        /* \"#utility.yul\":1447:1452   */\n      dup3\n        /* \"#utility.yul\":1443:1497   */\n      and\n        /* \"#utility.yul\":1432:1497   */\n      swap1\n      pop\n        /* \"#utility.yul\":1377:1503   */\n      swap2\n      swap1\n      pop\n      jump\t// out\n        /* \"#utility.yul\":1509:1605   */\n    tag_155:\n        /* \"#utility.yul\":1546:1553   */\n      0x00\n        /* \"#utility.yul\":1575:1599   */\n      tag_208\n        /* \"#utility.yul\":1593:1598   */\n      dup3\n        /* \"#utility.yul\":1575:1599   */\n      tag_154\n      jump\t// in\n    tag_208:\n        /* \"#utility.yul\":1564:1599   */\n      swap1\n      pop\n        /* \"#utility.yul\":1509:1605   */\n      swap2\n      swap1\n      pop\n      jump\t// out\n        /* \"#utility.yul\":1611:1729   */\n    tag_156:\n        /* \"#utility.yul\":1698:1722   */\n      tag_210\n        /* \"#utility.yul\":1716:1721   */\n      dup2\n        /* \"#utility.yul\":1698:1722   */\n      tag_155\n      jump\t// in\n    tag_210:\n        /* \"#utility.yul\":1693:1696   */\n      dup3\n        /* \"#utility.yul\":1686:1723   */\n      mstore\n        /* \"#utility.yul\":1611:1729   */\n      pop\n      pop\n      jump\t// out\n        /* \"#utility.yul\":1735:1957   */\n    tag_22:\n        /* \"#utility.yul\":1828:1832   */\n      0x00\n        /* \"#utility.yul\":1866:1868   */\n      0x20\n        /* \"#utility.yul\":1855:1864   */\n      dup3\n        /* \"#utility.yul\":1851:1869   */\n      add\n        /* \"#utility.yul\":1843:1869   */\n      swap1\n      pop\n        /* \"#utility.yul\":1879:1950   */\n      tag_212\n        /* \"#utility.yul\":1947:1948   */\n      0x00\n        /* \"#utility.yul\":1936:1945   */\n      dup4\n        /* \"#utility.yul\":1932:1949   */\n      add\n        /* \"#utility.yul\":1923:1929   */\n      dup5\n        /* \"#utility.yul\":1879:1950   */\n      tag_156\n      jump\t// in\n    tag_212:\n        /* \"#utility.yul\":1735:1957   */\n      swap3\n      swap2\n      pop\n      pop\n      jump\t// out\n        /* \"#utility.yul\":1963:2085   */\n    tag_157:\n        /* \"#utility.yul\":2036:2060   */\n      tag_214\n        /* \"#utility.yul\":2054:2059   */\n      dup2\n        /* \"#utility.yul\":2036:2060   */\n      tag_155\n      jump\t// in\n    tag_214:\n        /* \"#utility.yul\":2029:2034   */\n      dup2\n        /* \"#utility.yul\":2026:2061   */\n      eq\n        /* \"#utility.yul\":2016:2079   */\n      tag_215\n      jumpi\n        /* \"#utility.yul\":2075:2076   */\n      0x00\n        /* \"#utility.yul\":2072:2073   */\n      dup1\n        /* \"#utility.yul\":2065:2077   */\n      revert\n        /* \"#utility.yul\":2016:2079   */\n    tag_215:\n        /* \"#utility.yul\":1963:2085   */\n      pop\n      jump\t// out\n        /* \"#utility.yul\":2091:2230   */\n    tag_158:\n        /* \"#utility.yul\":2137:2142   */\n      0x00\n        /* \"#utility.yul\":2175:2181   */\n      dup2\n        /* \"#utility.yul\":2162:2182   */\n      calldataload\n        /* \"#utility.yul\":2153:2182   */\n      swap1\n      pop\n        /* \"#utility.yul\":2191:2224   */\n      tag_217\n        /* \"#utility.yul\":2218:2223   */\n      dup2\n        /* \"#utility.yul\":2191:2224   */\n      tag_157\n      jump\t// in\n    tag_217:\n        /* \"#utility.yul\":2091:2230   */\n      swap3\n      swap2\n      pop\n      pop\n      jump\t// out\n        /* \"#utility.yul\":2236:2353   */\n    tag_159:\n        /* \"#utility.yul\":2345:2346   */\n      0x00\n        /* \"#utility.yul\":2342:2343   */\n      dup1\n        /* \"#utility.yul\":2335:2347   */\n      revert\n        /* \"#utility.yul\":2359:2476   */\n    tag_160:\n        /* \"#utility.yul\":2468:2469   */\n      0x00\n        /* \"#utility.yul\":2465:2466   */\n      dup1\n        /* \"#utility.yul\":2458:2470   */\n      revert\n        /* \"#utility.yul\":2482:2599   */\n    tag_161:\n        /* \"#utility.yul\":2591:2592   */\n      0x00\n        /* \"#utility.yul\":2588:2589   */\n      dup1\n        /* \"#utility.yul\":2581:2593   */\n      revert\n        /* \"#utility.yul\":2618:3170   */\n    tag_162:\n        /* \"#utility.yul\":2675:2683   */\n      0x00\n        /* \"#utility.yul\":2685:2691   */\n      dup1\n        /* \"#utility.yul\":2735:2738   */\n      dup4\n        /* \"#utility.yul\":2728:2732   */\n      0x1f\n        /* \"#utility.yul\":2720:2726   */\n      dup5\n        /* \"#utility.yul\":2716:2733   */\n      add\n        /* \"#utility.yul\":2712:2739   */\n      slt\n        /* \"#utility.yul\":2702:2824   */\n      tag_222\n      jumpi\n        /* \"#utility.yul\":2743:2822   */\n      tag_223\n      tag_159\n      jump\t// in\n    tag_223:\n        /* \"#utility.yul\":2702:2824   */\n    tag_222:\n        /* \"#utility.yul\":2856:2862   */\n      dup3\n        /* \"#utility.yul\":2843:2863   */\n      calldataload\n        /* \"#utility.yul\":2833:2863   */\n      swap1\n      pop\n        /* \"#utility.yul\":2886:2904   */\n      0xffffffffffffffff\n        /* \"#utility.yul\":2878:2884   */\n      dup2\n        /* \"#utility.yul\":2875:2905   */\n      gt\n        /* \"#utility.yul\":2872:2989   */\n      iszero\n      tag_224\n      jumpi\n        /* \"#utility.yul\":2908:2987   */\n      tag_225\n      tag_160\n      jump\t// in\n    tag_225:\n        /* \"#utility.yul\":2872:2989   */\n    tag_224:\n        /* \"#utility.yul\":3022:3026   */\n      0x20\n        /* \"#utility.yul\":3014:3020   */\n      dup4\n        /* \"#utility.yul\":3010:3027   */\n      add\n        /* \"#utility.yul\":2998:3027   */\n      swap2\n      pop\n        /* \"#utility.yul\":3076:3079   */\n      dup4\n        /* \"#utility.yul\":3068:3072   */\n      0x01\n        /* \"#utility.yul\":3060:3066   */\n      dup3\n        /* \"#utility.yul\":3056:3073   */\n      mul\n        /* \"#utility.yul\":3046:3054   */\n      dup4\n        /* \"#utility.yul\":3042:3074   */\n      add\n        /* \"#utility.yul\":3039:3080   */\n      gt\n        /* \"#utility.yul\":3036:3164   */\n      iszero\n      tag_226\n      jumpi\n        /* \"#utility.yul\":3083:3162   */\n      tag_227\n      tag_161\n      jump\t// in\n    tag_227:\n        /* \"#utility.yul\":3036:3164   */\n    tag_226:\n        /* \"#utility.yul\":2618:3170   */\n      swap3\n      pop\n      swap3\n      swap1\n      pop\n      jump\t// out\n        /* \"#utility.yul\":3176:3993   */\n    tag_26:\n        /* \"#utility.yul\":3264:3270   */\n      0x00\n        /* \"#utility.yul\":3272:3278   */\n      dup1\n        /* \"#utility.yul\":3280:3286   */\n      0x00\n        /* \"#utility.yul\":3288:3294   */\n      dup1\n        /* \"#utility.yul\":3337:3339   */\n      0x60\n        /* \"#utility.yul\":3325:3334   */\n      dup6\n        /* \"#utility.yul\":3316:3323   */\n      dup8\n        /* \"#utility.yul\":3312:3335   */\n      sub\n        /* \"#utility.yul\":3308:3340   */\n      slt\n        /* \"#utility.yul\":3305:3424   */\n      iszero\n      tag_229\n      jumpi\n        /* \"#utility.yul\":3343:3422   */\n      tag_230\n      tag_150\n      jump\t// in\n    tag_230:\n        /* \"#utility.yul\":3305:3424   */\n    tag_229:\n        /* \"#utility.yul\":3463:3464   */\n      0x00\n        /* \"#utility.yul\":3488:3541   */\n      tag_231\n        /* \"#utility.yul\":3533:3540   */\n      dup8\n        /* \"#utility.yul\":3524:3530   */\n      dup3\n        /* \"#utility.yul\":3513:3522   */\n      dup9\n        /* \"#utility.yul\":3509:3531   */\n      add\n        /* \"#utility.yul\":3488:3541   */\n      tag_158\n      jump\t// in\n    tag_231:\n        /* \"#utility.yul\":3478:3541   */\n      swap5\n      pop\n        /* \"#utility.yul\":3434:3551   */\n      pop\n        /* \"#utility.yul\":3590:3592   */\n      0x20\n        /* \"#utility.yul\":3616:3669   */\n      tag_232\n        /* \"#utility.yul\":3661:3668   */\n      dup8\n        /* \"#utility.yul\":3652:3658   */\n      dup3\n        /* \"#utility.yul\":3641:3650   */\n      dup9\n        /* \"#utility.yul\":3637:3659   */\n      add\n        /* \"#utility.yul\":3616:3669   */\n      tag_153\n      jump\t// in\n    tag_232:\n        /* \"#utility.yul\":3606:3669   */\n      swap4\n      pop\n        /* \"#utility.yul\":3561:3679   */\n      pop\n        /* \"#utility.yul\":3746:3748   */\n      0x40\n        /* \"#utility.yul\":3735:3744   */\n      dup6\n        /* \"#utility.yul\":3731:3749   */\n      add\n        /* \"#utility.yul\":3718:3750   */\n      calldataload\n        /* \"#utility.yul\":3777:3795   */\n      0xffffffffffffffff\n        /* \"#utility.yul\":3769:3775   */\n      dup2\n        /* \"#utility.yul\":3766:3796   */\n      gt\n        /* \"#utility.yul\":3763:3880   */\n      iszero\n      tag_233\n      jumpi\n        /* \"#utility.yul\":3799:3878   */\n      tag_234\n      tag_151\n      jump\t// in\n    tag_234:\n        /* \"#utility.yul\":3763:3880   */\n    tag_233:\n        /* \"#utility.yul\":3912:3976   */\n      tag_235\n        /* \"#utility.yul\":3968:3975   */\n      dup8\n        /* \"#utility.yul\":3959:3965   */\n      dup3\n        /* \"#utility.yul\":3948:3957   */\n      dup9\n        /* \"#utility.yul\":3944:3966   */\n      add\n        /* \"#utility.yul\":3912:3976   */\n      tag_162\n      jump\t// in\n    tag_235:\n        /* \"#utility.yul\":3894:3976   */\n      swap3\n      pop\n      swap3\n      pop\n        /* \"#utility.yul\":3689:3986   */\n      pop\n        /* \"#utility.yul\":3176:3993   */\n      swap3\n      swap6\n      swap2\n      swap5\n      pop\n      swap3\n      pop\n      jump\t// out\n        /* \"#utility.yul\":3999:4328   */\n    tag_31:\n        /* \"#utility.yul\":4058:4064   */\n      0x00\n        /* \"#utility.yul\":4107:4109   */\n      0x20\n        /* \"#utility.yul\":4095:4104   */\n      dup3\n        /* \"#utility.yul\":4086:4093   */\n      dup5\n        /* \"#utility.yul\":4082:4105   */\n      sub\n        /* \"#utility.yul\":4078:4110   */\n      slt\n        /* \"#utility.yul\":4075:4194   */\n      iszero\n      tag_237\n      jumpi\n        /* \"#utility.yul\":4113:4192   */\n      tag_238\n      tag_150\n      jump\t// in\n    tag_238:\n        /* \"#utility.yul\":4075:4194   */\n    tag_237:\n        /* \"#utility.yul\":4233:4234   */\n      0x00\n        /* \"#utility.yul\":4258:4311   */\n      tag_239\n        /* \"#utility.yul\":4303:4310   */\n      dup5\n        /* \"#utility.yul\":4294:4300   */\n      dup3\n        /* \"#utility.yul\":4283:4292   */\n      dup6\n        /* \"#utility.yul\":4279:4301   */\n      add\n        /* \"#utility.yul\":4258:4311   */\n      tag_158\n      jump\t// in\n    tag_239:\n        /* \"#utility.yul\":4248:4311   */\n      swap2\n      pop\n        /* \"#utility.yul\":4204:4321   */\n      pop\n        /* \"#utility.yul\":3999:4328   */\n      swap3\n      swap2\n      pop\n      pop\n      jump\t// out\n        /* \"#utility.yul\":4334:4424   */\n    tag_163:\n        /* \"#utility.yul\":4368:4375   */\n      0x00\n        /* \"#utility.yul\":4411:4416   */\n      dup2\n        /* \"#utility.yul\":4404:4417   */\n      iszero\n        /* \"#utility.yul\":4397:4418   */\n      iszero\n        /* \"#utility.yul\":4386:4418   */\n      swap1\n      pop\n        /* \"#utility.yul\":4334:4424   */\n      swap2\n      swap1\n      pop\n      jump\t// out\n        /* \"#utility.yul\":4430:4539   */\n    tag_164:\n        /* \"#utility.yul\":4511:4532   */\n      tag_242\n        /* \"#utility.yul\":4526:4531   */\n      dup2\n        /* \"#utility.yul\":4511:4532   */\n      tag_163\n      jump\t// in\n    tag_242:\n        /* \"#utility.yul\":4506:4509   */\n      dup3\n        /* \"#utility.yul\":4499:4533   */\n      mstore\n        /* \"#utility.yul\":4430:4539   */\n      pop\n      pop\n      jump\t// out\n        /* \"#utility.yul\":4545:4755   */\n    tag_34:\n        /* \"#utility.yul\":4632:4636   */\n      0x00\n        /* \"#utility.yul\":4670:4672   */\n      0x20\n        /* \"#utility.yul\":4659:4668   */\n      dup3\n        /* \"#utility.yul\":4655:4673   */\n      add\n        /* \"#utility.yul\":4647:4673   */\n      swap1\n      pop\n        /* \"#utility.yul\":4683:4748   */\n      tag_244\n        /* \"#utility.yul\":4745:4746   */\n      0x00\n        /* \"#utility.yul\":4734:4743   */\n      dup4\n        /* \"#utility.yul\":4730:4747   */\n      add\n        /* \"#utility.yul\":4721:4727   */\n      dup5\n        /* \"#utility.yul\":4683:4748   */\n      tag_164\n      jump\t// in\n    tag_244:\n        /* \"#utility.yul\":4545:4755   */\n      swap3\n      swap2\n      pop\n      pop\n      jump\t// out\n        /* \"#utility.yul\":4761:5235   */\n    tag_38:\n        /* \"#utility.yul\":4829:4835   */\n      0x00\n        /* \"#utility.yul\":4837:4843   */\n      dup1\n        /* \"#utility.yul\":4886:4888   */\n      0x40\n        /* \"#utility.yul\":4874:4883   */\n      dup4\n        /* \"#utility.yul\":4865:4872   */\n      dup6\n        /* \"#utility.yul\":4861:4884   */\n      sub\n        /* \"#utility.yul\":4857:4889   */\n      slt\n        /* \"#utility.yul\":4854:4973   */\n      iszero\n      tag_246\n      jumpi\n        /* \"#utility.yul\":4892:4971   */\n      tag_247\n      tag_150\n      jump\t// in\n    tag_247:\n        /* \"#utility.yul\":4854:4973   */\n    tag_246:\n        /* \"#utility.yul\":5012:5013   */\n      0x00\n        /* \"#utility.yul\":5037:5090   */\n      tag_248\n        /* \"#utility.yul\":5082:5089   */\n      dup6\n        /* \"#utility.yul\":5073:5079   */\n      dup3\n        /* \"#utility.yul\":5062:5071   */\n      dup7\n        /* \"#utility.yul\":5058:5080   */\n      add\n        /* \"#utility.yul\":5037:5090   */\n      tag_153\n      jump\t// in\n    tag_248:\n        /* \"#utility.yul\":5027:5090   */\n      swap3\n      pop\n        /* \"#utility.yul\":4983:5100   */\n      pop\n        /* \"#utility.yul\":5139:5141   */\n      0x20\n        /* \"#utility.yul\":5165:5218   */\n      tag_249\n        /* \"#utility.yul\":5210:5217   */\n      dup6\n        /* \"#utility.yul\":5201:5207   */\n      dup3\n        /* \"#utility.yul\":5190:5199   */\n      dup7\n        /* \"#utility.yul\":5186:5208   */\n      add\n        /* \"#utility.yul\":5165:5218   */\n      tag_158\n      jump\t// in\n    tag_249:\n        /* \"#utility.yul\":5155:5218   */\n      swap2\n      pop\n        /* \"#utility.yul\":5110:5228   */\n      pop\n        /* \"#utility.yul\":4761:5235   */\n      swap3\n      pop\n      swap3\n      swap1\n      pop\n      jump\t// out\n        /* \"#utility.yul\":5241:5339   */\n    tag_165:\n        /* \"#utility.yul\":5292:5298   */\n      0x00\n        /* \"#utility.yul\":5326:5331   */\n      dup2\n        /* \"#utility.yul\":5320:5332   */\n      mload\n        /* \"#utility.yul\":5310:5332   */\n      swap1\n      pop\n        /* \"#utility.yul\":5241:5339   */\n      swap2\n      swap1\n      pop\n      jump\t// out\n        /* \"#utility.yul\":5345:5513   */\n    tag_166:\n        /* \"#utility.yul\":5428:5439   */\n      0x00\n        /* \"#utility.yul\":5462:5468   */\n      dup3\n        /* \"#utility.yul\":5457:5460   */\n      dup3\n        /* \"#utility.yul\":5450:5469   */\n      mstore\n        /* \"#utility.yul\":5502:5506   */\n      0x20\n        /* \"#utility.yul\":5497:5500   */\n      dup3\n        /* \"#utility.yul\":5493:5507   */\n      add\n        /* \"#utility.yul\":5478:5507   */\n      swap1\n      pop\n        /* \"#utility.yul\":5345:5513   */\n      swap3\n      swap2\n      pop\n      pop\n      jump\t// out\n        /* \"#utility.yul\":5519:5826   */\n    tag_167:\n        /* \"#utility.yul\":5587:5588   */\n      0x00\n        /* \"#utility.yul\":5597:5710   */\n    tag_253:\n        /* \"#utility.yul\":5611:5617   */\n      dup4\n        /* \"#utility.yul\":5608:5609   */\n      dup2\n        /* \"#utility.yul\":5605:5618   */\n      lt\n        /* \"#utility.yul\":5597:5710   */\n      iszero\n      tag_255\n      jumpi\n        /* \"#utility.yul\":5696:5697   */\n      dup1\n        /* \"#utility.yul\":5691:5694   */\n      dup3\n        /* \"#utility.yul\":5687:5698   */\n      add\n        /* \"#utility.yul\":5681:5699   */\n      mload\n        /* \"#utility.yul\":5677:5678   */\n      dup2\n        /* \"#utility.yul\":5672:5675   */\n      dup5\n        /* \"#utility.yul\":5668:5679   */\n      add\n        /* \"#utility.yul\":5661:5700   */\n      mstore\n        /* \"#utility.yul\":5633:5635   */\n      0x20\n        /* \"#utility.yul\":5630:5631   */\n      dup2\n        /* \"#utility.yul\":5626:5636   */\n      add\n        /* \"#utility.yul\":5621:5636   */\n      swap1\n      pop\n        /* \"#utility.yul\":5597:5710   */\n      jump(tag_253)\n    tag_255:\n        /* \"#utility.yul\":5728:5734   */\n      dup4\n        /* \"#utility.yul\":5725:5726   */\n      dup2\n        /* \"#utility.yul\":5722:5735   */\n      gt\n        /* \"#utility.yul\":5719:5820   */\n      iszero\n      tag_256\n      jumpi\n        /* \"#utility.yul\":5808:5809   */\n      0x00\n        /* \"#utility.yul\":5799:5805   */\n      dup5\n        /* \"#utility.yul\":5794:5797   */\n      dup5\n        /* \"#utility.yul\":5790:5806   */\n      add\n        /* \"#utility.yul\":5783:5810   */\n      mstore\n        /* \"#utility.yul\":5719:5820   */\n    tag_256:\n        /* \"#utility.yul\":5568:5826   */\n      pop\n        /* \"#utility.yul\":5519:5826   */\n      pop\n      pop\n      pop\n      jump\t// out\n        /* \"#utility.yul\":5832:5934   */\n    tag_168:\n        /* \"#utility.yul\":5873:5879   */\n      0x00\n        /* \"#utility.yul\":5924:5926   */\n      0x1f\n        /* \"#utility.yul\":5920:5927   */\n      not\n        /* \"#utility.yul\":5915:5917   */\n      0x1f\n        /* \"#utility.yul\":5908:5913   */\n      dup4\n        /* \"#utility.yul\":5904:5918   */\n      add\n        /* \"#utility.yul\":5900:5928   */\n      and\n        /* \"#utility.yul\":5890:5928   */\n      swap1\n      pop\n        /* \"#utility.yul\":5832:5934   */\n      swap2\n      swap1\n      pop\n      jump\t// out\n        /* \"#utility.yul\":5940:6300   */\n    tag_169:\n        /* \"#utility.yul\":6026:6029   */\n      0x00\n        /* \"#utility.yul\":6054:6092   */\n      tag_259\n        /* \"#utility.yul\":6086:6091   */\n      dup3\n        /* \"#utility.yul\":6054:6092   */\n      tag_165\n      jump\t// in\n    tag_259:\n        /* \"#utility.yul\":6108:6178   */\n      tag_260\n        /* \"#utility.yul\":6171:6177   */\n      dup2\n        /* \"#utility.yul\":6166:6169   */\n      dup6\n        /* \"#utility.yul\":6108:6178   */\n      tag_166\n      jump\t// in\n    tag_260:\n        /* \"#utility.yul\":6101:6178   */\n      swap4\n      pop\n        /* \"#utility.yul\":6187:6239   */\n      tag_261\n        /* \"#utility.yul\":6232:6238   */\n      dup2\n        /* \"#utility.yul\":6227:6230   */\n      dup6\n        /* \"#utility.yul\":6220:6224   */\n      0x20\n        /* \"#utility.yul\":6213:6218   */\n      dup7\n        /* \"#utility.yul\":6209:6225   */\n      add\n        /* \"#utility.yul\":6187:6239   */\n      tag_167\n      jump\t// in\n    tag_261:\n        /* \"#utility.yul\":6264:6293   */\n      tag_262\n        /* \"#utility.yul\":6286:6292   */\n      dup2\n        /* \"#utility.yul\":6264:6293   */\n      tag_168\n      jump\t// in\n    tag_262:\n        /* \"#utility.yul\":6259:6262   */\n      dup5\n        /* \"#utility.yul\":6255:6294   */\n      add\n        /* \"#utility.yul\":6248:6294   */\n      swap2\n      pop\n        /* \"#utility.yul\":6030:6300   */\n      pop\n        /* \"#utility.yul\":5940:6300   */\n      swap3\n      swap2\n      pop\n      pop\n      jump\t// out\n        /* \"#utility.yul\":6306:6934   */\n    tag_46:\n        /* \"#utility.yul\":6495:6499   */\n      0x00\n        /* \"#utility.yul\":6533:6536   */\n      0x80\n        /* \"#utility.yul\":6522:6531   */\n      dup3\n        /* \"#utility.yul\":6518:6537   */\n      add\n        /* \"#utility.yul\":6510:6537   */\n      swap1\n      pop\n        /* \"#utility.yul\":6547:6618   */\n      tag_264\n        /* \"#utility.yul\":6615:6616   */\n      0x00\n        /* \"#utility.yul\":6604:6613   */\n      dup4\n        /* \"#utility.yul\":6600:6617   */\n      add\n        /* \"#utility.yul\":6591:6597   */\n      dup8\n        /* \"#utility.yul\":6547:6618   */\n      tag_156\n      jump\t// in\n    tag_264:\n        /* \"#utility.yul\":6628:6700   */\n      tag_265\n        /* \"#utility.yul\":6696:6698   */\n      0x20\n        /* \"#utility.yul\":6685:6694   */\n      dup4\n        /* \"#utility.yul\":6681:6699   */\n      add\n        /* \"#utility.yul\":6672:6678   */\n      dup7\n        /* \"#utility.yul\":6628:6700   */\n      tag_148\n      jump\t// in\n    tag_265:\n        /* \"#utility.yul\":6747:6756   */\n      dup2\n        /* \"#utility.yul\":6741:6745   */\n      dup2\n        /* \"#utility.yul\":6737:6757   */\n      sub\n        /* \"#utility.yul\":6732:6734   */\n      0x40\n        /* \"#utility.yul\":6721:6730   */\n      dup4\n        /* \"#utility.yul\":6717:6735   */\n      add\n        /* \"#utility.yul\":6710:6758   */\n      mstore\n        /* \"#utility.yul\":6775:6851   */\n      tag_266\n        /* \"#utility.yul\":6846:6850   */\n      dup2\n        /* \"#utility.yul\":6837:6843   */\n      dup6\n        /* \"#utility.yul\":6775:6851   */\n      tag_169\n      jump\t// in\n    tag_266:\n        /* \"#utility.yul\":6767:6851   */\n      swap1\n      pop\n        /* \"#utility.yul\":6861:6927   */\n      tag_267\n        /* \"#utility.yul\":6923:6925   */\n      0x60\n        /* \"#utility.yul\":6912:6921   */\n      dup4\n        /* \"#utility.yul\":6908:6926   */\n      add\n        /* \"#utility.yul\":6899:6905   */\n      dup5\n        /* \"#utility.yul\":6861:6927   */\n      tag_164\n      jump\t// in\n    tag_267:\n        /* \"#utility.yul\":6306:6934   */\n      swap6\n      swap5\n      pop\n      pop\n      pop\n      pop\n      pop\n      jump\t// out\n        /* \"#utility.yul\":6940:7109   */\n    tag_170:\n        /* \"#utility.yul\":7024:7035   */\n      0x00\n        /* \"#utility.yul\":7058:7064   */\n      dup3\n        /* \"#utility.yul\":7053:7056   */\n      dup3\n        /* \"#utility.yul\":7046:7065   */\n      mstore\n        /* \"#utility.yul\":7098:7102   */\n      0x20\n        /* \"#utility.yul\":7093:7096   */\n      dup3\n        /* \"#utility.yul\":7089:7103   */\n      add\n        /* \"#utility.yul\":7074:7103   */\n      swap1\n      pop\n        /* \"#utility.yul\":6940:7109   */\n      swap3\n      swap2\n      pop\n      pop\n      jump\t// out\n        /* \"#utility.yul\":7115:7274   */\n    tag_171:\n        /* \"#utility.yul\":7255:7266   */\n      0x6e6f74206f776e65720000000000000000000000000000000000000000000000\n        /* \"#utility.yul\":7251:7252   */\n      0x00\n        /* \"#utility.yul\":7243:7249   */\n      dup3\n        /* \"#utility.yul\":7239:7253   */\n      add\n        /* \"#utility.yul\":7232:7267   */\n      mstore\n        /* \"#utility.yul\":7115:7274   */\n      pop\n      jump\t// out\n        /* \"#utility.yul\":7280:7645   */\n    tag_172:\n        /* \"#utility.yul\":7422:7425   */\n      0x00\n        /* \"#utility.yul\":7443:7509   */\n      tag_271\n        /* \"#utility.yul\":7507:7508   */\n      0x09\n        /* \"#utility.yul\":7502:7505   */\n      dup4\n        /* \"#utility.yul\":7443:7509   */\n      tag_170\n      jump\t// in\n    tag_271:\n        /* \"#utility.yul\":7436:7509   */\n      swap2\n      pop\n        /* \"#utility.yul\":7518:7611   */\n      tag_272\n        /* \"#utility.yul\":7607:7610   */\n      dup3\n        /* \"#utility.yul\":7518:7611   */\n      tag_171\n      jump\t// in\n    tag_272:\n        /* \"#utility.yul\":7636:7638   */\n      0x20\n        /* \"#utility.yul\":7631:7634   */\n      dup3\n        /* \"#utility.yul\":7627:7639   */\n      add\n        /* \"#utility.yul\":7620:7639   */\n      swap1\n      pop\n        /* \"#utility.yul\":7280:7645   */\n      swap2\n      swap1\n      pop\n      jump\t// out\n        /* \"#utility.yul\":7651:8070   */\n    tag_64:\n        /* \"#utility.yul\":7817:7821   */\n      0x00\n        /* \"#utility.yul\":7855:7857   */\n      0x20\n        /* \"#utility.yul\":7844:7853   */\n      dup3\n        /* \"#utility.yul\":7840:7858   */\n      add\n        /* \"#utility.yul\":7832:7858   */\n      swap1\n      pop\n        /* \"#utility.yul\":7904:7913   */\n      dup2\n        /* \"#utility.yul\":7898:7902   */\n      dup2\n        /* \"#utility.yul\":7894:7914   */\n      sub\n        /* \"#utility.yul\":7890:7891   */\n      0x00\n        /* \"#utility.yul\":7879:7888   */\n      dup4\n        /* \"#utility.yul\":7875:7892   */\n      add\n        /* \"#utility.yul\":7868:7915   */\n      mstore\n        /* \"#utility.yul\":7932:8063   */\n      tag_274\n        /* \"#utility.yul\":8058:8062   */\n      dup2\n        /* \"#utility.yul\":7932:8063   */\n      tag_172\n      jump\t// in\n    tag_274:\n        /* \"#utility.yul\":7924:8063   */\n      swap1\n      pop\n        /* \"#utility.yul\":7651:8070   */\n      swap2\n      swap1\n      pop\n      jump\t// out\n        /* \"#utility.yul\":8076:8256   */\n    tag_173:\n        /* \"#utility.yul\":8124:8201   */\n      0x4e487b7100000000000000000000000000000000000000000000000000000000\n        /* \"#utility.yul\":8121:8122   */\n      0x00\n        /* \"#utility.yul\":8114:8202   */\n      mstore\n        /* \"#utility.yul\":8221:8225   */\n      0x11\n        /* \"#utility.yul\":8218:8219   */\n      0x04\n        /* \"#utility.yul\":8211:8226   */\n      mstore\n        /* \"#utility.yul\":8245:8249   */\n      0x24\n        /* \"#utility.yul\":8242:8243   */\n      0x00\n        /* \"#utility.yul\":8235:8250   */\n      revert\n        /* \"#utility.yul\":8262:8453   */\n    tag_70:\n        /* \"#utility.yul\":8302:8306   */\n      0x00\n        /* \"#utility.yul\":8322:8342   */\n      tag_277\n        /* \"#utility.yul\":8340:8341   */\n      dup3\n        /* \"#utility.yul\":8322:8342   */\n      tag_147\n      jump\t// in\n    tag_277:\n        /* \"#utility.yul\":8317:8342   */\n      swap2\n      pop\n        /* \"#utility.yul\":8356:8376   */\n      tag_278\n        /* \"#utility.yul\":8374:8375   */\n      dup4\n        /* \"#utility.yul\":8356:8376   */\n      tag_147\n      jump\t// in\n    tag_278:\n        /* \"#utility.yul\":8351:8376   */\n      swap3\n      pop\n        /* \"#utility.yul\":8395:8396   */\n      dup3\n        /* \"#utility.yul\":8392:8393   */\n      dup3\n        /* \"#utility.yul\":8389:8397   */\n      lt\n        /* \"#utility.yul\":8386:8420   */\n      iszero\n      tag_279\n      jumpi\n        /* \"#utility.yul\":8400:8418   */\n      tag_280\n      tag_173\n      jump\t// in\n    tag_280:\n        /* \"#utility.yul\":8386:8420   */\n    tag_279:\n        /* \"#utility.yul\":8445:8446   */\n      dup3\n        /* \"#utility.yul\":8442:8443   */\n      dup3\n        /* \"#utility.yul\":8438:8447   */\n      sub\n        /* \"#utility.yul\":8430:8447   */\n      swap1\n      pop\n        /* \"#utility.yul\":8262:8453   */\n      swap3\n      swap2\n      pop\n      pop\n      jump\t// out\n        /* \"#utility.yul\":8459:8639   */\n    tag_174:\n        /* \"#utility.yul\":8507:8584   */\n      0x4e487b7100000000000000000000000000000000000000000000000000000000\n        /* \"#utility.yul\":8504:8505   */\n      0x00\n        /* \"#utility.yul\":8497:8585   */\n      mstore\n        /* \"#utility.yul\":8604:8608   */\n      0x22\n        /* \"#utility.yul\":8601:8602   */\n      0x04\n        /* \"#utility.yul\":8594:8609   */\n      mstore\n        /* \"#utility.yul\":8628:8632   */\n      0x24\n        /* \"#utility.yul\":8625:8626   */\n      0x00\n        /* \"#utility.yul\":8618:8633   */\n      revert\n        /* \"#utility.yul\":8645:8965   */\n    tag_74:\n        /* \"#utility.yul\":8689:8695   */\n      0x00\n        /* \"#utility.yul\":8726:8727   */\n      0x02\n        /* \"#utility.yul\":8720:8724   */\n      dup3\n        /* \"#utility.yul\":8716:8728   */\n      div\n        /* \"#utility.yul\":8706:8728   */\n      swap1\n      pop\n        /* \"#utility.yul\":8773:8774   */\n      0x01\n        /* \"#utility.yul\":8767:8771   */\n      dup3\n        /* \"#utility.yul\":8763:8775   */\n      and\n        /* \"#utility.yul\":8794:8812   */\n      dup1\n        /* \"#utility.yul\":8784:8865   */\n      tag_283\n      jumpi\n        /* \"#utility.yul\":8850:8854   */\n      0x7f\n        /* \"#utility.yul\":8842:8848   */\n      dup3\n        /* \"#utility.yul\":8838:8855   */\n      and\n        /* \"#utility.yul\":8828:8855   */\n      swap2\n      pop\n        /* \"#utility.yul\":8784:8865   */\n    tag_283:\n        /* \"#utility.yul\":8912:8914   */\n      0x20\n        /* \"#utility.yul\":8904:8910   */\n      dup3\n        /* \"#utility.yul\":8901:8915   */\n      lt\n        /* \"#utility.yul\":8881:8899   */\n      dup2\n        /* \"#utility.yul\":8878:8916   */\n      eq\n        /* \"#utility.yul\":8875:8959   */\n      iszero\n      tag_284\n      jumpi\n        /* \"#utility.yul\":8931:8949   */\n      tag_285\n      tag_174\n      jump\t// in\n    tag_285:\n        /* \"#utility.yul\":8875:8959   */\n    tag_284:\n        /* \"#utility.yul\":8696:8965   */\n      pop\n        /* \"#utility.yul\":8645:8965   */\n      swap2\n      swap1\n      pop\n      jump\t// out\n        /* \"#utility.yul\":8971:9138   */\n    tag_175:\n        /* \"#utility.yul\":9111:9130   */\n      0x747820646f6573206e6f74206578697374000000000000000000000000000000\n        /* \"#utility.yul\":9107:9108   */\n      0x00\n        /* \"#utility.yul\":9099:9105   */\n      dup3\n        /* \"#utility.yul\":9095:9109   */\n      add\n        /* \"#utility.yul\":9088:9131   */\n      mstore\n        /* \"#utility.yul\":8971:9138   */\n      pop\n      jump\t// out\n        /* \"#utility.yul\":9144:9510   */\n    tag_176:\n        /* \"#utility.yul\":9286:9289   */\n      0x00\n        /* \"#utility.yul\":9307:9374   */\n      tag_288\n        /* \"#utility.yul\":9371:9373   */\n      0x11\n        /* \"#utility.yul\":9366:9369   */\n      dup4\n        /* \"#utility.yul\":9307:9374   */\n      tag_170\n      jump\t// in\n    tag_288:\n        /* \"#utility.yul\":9300:9374   */\n      swap2\n      pop\n        /* \"#utility.yul\":9383:9476   */\n      tag_289\n        /* \"#utility.yul\":9472:9475   */\n      dup3\n        /* \"#utility.yul\":9383:9476   */\n      tag_175\n      jump\t// in\n    tag_289:\n        /* \"#utility.yul\":9501:9503   */\n      0x20\n        /* \"#utility.yul\":9496:9499   */\n      dup3\n        /* \"#utility.yul\":9492:9504   */\n      add\n        /* \"#utility.yul\":9485:9504   */\n      swap1\n      pop\n        /* \"#utility.yul\":9144:9510   */\n      swap2\n      swap1\n      pop\n      jump\t// out\n        /* \"#utility.yul\":9516:9935   */\n    tag_85:\n        /* \"#utility.yul\":9682:9686   */\n      0x00\n        /* \"#utility.yul\":9720:9722   */\n      0x20\n        /* \"#utility.yul\":9709:9718   */\n      dup3\n        /* \"#utility.yul\":9705:9723   */\n      add\n        /* \"#utility.yul\":9697:9723   */\n      swap1\n      pop\n        /* \"#utility.yul\":9769:9778   */\n      dup2\n        /* \"#utility.yul\":9763:9767   */\n      dup2\n        /* \"#utility.yul\":9759:9779   */\n      sub\n        /* \"#utility.yul\":9755:9756   */\n      0x00\n        /* \"#utility.yul\":9744:9753   */\n      dup4\n        /* \"#utility.yul\":9740:9757   */\n      add\n        /* \"#utility.yul\":9733:9780   */\n      mstore\n        /* \"#utility.yul\":9797:9928   */\n      tag_291\n        /* \"#utility.yul\":9923:9927   */\n      dup2\n        /* \"#utility.yul\":9797:9928   */\n      tag_176\n      jump\t// in\n    tag_291:\n        /* \"#utility.yul\":9789:9928   */\n      swap1\n      pop\n        /* \"#utility.yul\":9516:9935   */\n      swap2\n      swap1\n      pop\n      jump\t// out\n        /* \"#utility.yul\":9941:10110   */\n    tag_177:\n        /* \"#utility.yul\":10081:10102   */\n      0x747820616c726561647920617070726f76656400000000000000000000000000\n        /* \"#utility.yul\":10077:10078   */\n      0x00\n        /* \"#utility.yul\":10069:10075   */\n      dup3\n        /* \"#utility.yul\":10065:10079   */\n      add\n        /* \"#utility.yul\":10058:10103   */\n      mstore\n        /* \"#utility.yul\":9941:10110   */\n      pop\n      jump\t// out\n        /* \"#utility.yul\":10116:10482   */\n    tag_178:\n        /* \"#utility.yul\":10258:10261   */\n      0x00\n        /* \"#utility.yul\":10279:10346   */\n      tag_294\n        /* \"#utility.yul\":10343:10345   */\n      0x13\n        /* \"#utility.yul\":10338:10341   */\n      dup4\n        /* \"#utility.yul\":10279:10346   */\n      tag_170\n      jump\t// in\n    tag_294:\n        /* \"#utility.yul\":10272:10346   */\n      swap2\n      pop\n        /* \"#utility.yul\":10355:10448   */\n      tag_295\n        /* \"#utility.yul\":10444:10447   */\n      dup3\n        /* \"#utility.yul\":10355:10448   */\n      tag_177\n      jump\t// in\n    tag_295:\n        /* \"#utility.yul\":10473:10475   */\n      0x20\n        /* \"#utility.yul\":10468:10471   */\n      dup3\n        /* \"#utility.yul\":10464:10476   */\n      add\n        /* \"#utility.yul\":10457:10476   */\n      swap1\n      pop\n        /* \"#utility.yul\":10116:10482   */\n      swap2\n      swap1\n      pop\n      jump\t// out\n        /* \"#utility.yul\":10488:10907   */\n    tag_89:\n        /* \"#utility.yul\":10654:10658   */\n      0x00\n        /* \"#utility.yul\":10692:10694   */\n      0x20\n        /* \"#utility.yul\":10681:10690   */\n      dup3\n        /* \"#utility.yul\":10677:10695   */\n      add\n        /* \"#utility.yul\":10669:10695   */\n      swap1\n      pop\n        /* \"#utility.yul\":10741:10750   */\n      dup2\n        /* \"#utility.yul\":10735:10739   */\n      dup2\n        /* \"#utility.yul\":10731:10751   */\n      sub\n        /* \"#utility.yul\":10727:10728   */\n      0x00\n        /* \"#utility.yul\":10716:10725   */\n      dup4\n        /* \"#utility.yul\":10712:10729   */\n      add\n        /* \"#utility.yul\":10705:10752   */\n      mstore\n        /* \"#utility.yul\":10769:10900   */\n      tag_297\n        /* \"#utility.yul\":10895:10899   */\n      dup2\n        /* \"#utility.yul\":10769:10900   */\n      tag_178\n      jump\t// in\n    tag_297:\n        /* \"#utility.yul\":10761:10900   */\n      swap1\n      pop\n        /* \"#utility.yul\":10488:10907   */\n      swap2\n      swap1\n      pop\n      jump\t// out\n        /* \"#utility.yul\":10913:11093   */\n    tag_93:\n        /* \"#utility.yul\":10961:11038   */\n      0x4e487b7100000000000000000000000000000000000000000000000000000000\n        /* \"#utility.yul\":10958:10959   */\n      0x00\n        /* \"#utility.yul\":10951:11039   */\n      mstore\n        /* \"#utility.yul\":11058:11062   */\n      0x32\n        /* \"#utility.yul\":11055:11056   */\n      0x04\n        /* \"#utility.yul\":11048:11063   */\n      mstore\n        /* \"#utility.yul\":11082:11086   */\n      0x24\n        /* \"#utility.yul\":11079:11080   */\n      0x00\n        /* \"#utility.yul\":11072:11087   */\n      revert\n        /* \"#utility.yul\":11099:11268   */\n    tag_179:\n        /* \"#utility.yul\":11239:11260   */\n      0x747820616c726561647920657865637574656400000000000000000000000000\n        /* \"#utility.yul\":11235:11236   */\n      0x00\n        /* \"#utility.yul\":11227:11233   */\n      dup3\n        /* \"#utility.yul\":11223:11237   */\n      add\n        /* \"#utility.yul\":11216:11261   */\n      mstore\n        /* \"#utility.yul\":11099:11268   */\n      pop\n      jump\t// out\n        /* \"#utility.yul\":11274:11640   */\n    tag_180:\n        /* \"#utility.yul\":11416:11419   */\n      0x00\n        /* \"#utility.yul\":11437:11504   */\n      tag_301\n        /* \"#utility.yul\":11501:11503   */\n      0x13\n        /* \"#utility.yul\":11496:11499   */\n      dup4\n        /* \"#utility.yul\":11437:11504   */\n      tag_170\n      jump\t// in\n    tag_301:\n        /* \"#utility.yul\":11430:11504   */\n      swap2\n      pop\n        /* \"#utility.yul\":11513:11606   */\n      tag_302\n        /* \"#utility.yul\":11602:11605   */\n      dup3\n        /* \"#utility.yul\":11513:11606   */\n      tag_179\n      jump\t// in\n    tag_302:\n        /* \"#utility.yul\":11631:11633   */\n      0x20\n        /* \"#utility.yul\":11626:11629   */\n      dup3\n        /* \"#utility.yul\":11622:11634   */\n      add\n        /* \"#utility.yul\":11615:11634   */\n      swap1\n      pop\n        /* \"#utility.yul\":11274:11640   */\n      swap2\n      swap1\n      pop\n      jump\t// out\n        /* \"#utility.yul\":11646:12065   */\n    tag_97:\n        /* \"#utility.yul\":11812:11816   */\n      0x00\n        /* \"#utility.yul\":11850:11852   */\n      0x20\n        /* \"#utility.yul\":11839:11848   */\n      dup3\n        /* \"#utility.yul\":11835:11853   */\n      add\n        /* \"#utility.yul\":11827:11853   */\n      swap1\n      pop\n        /* \"#utility.yul\":11899:11908   */\n      dup2\n        /* \"#utility.yul\":11893:11897   */\n      dup2\n        /* \"#utility.yul\":11889:11909   */\n      sub\n        /* \"#utility.yul\":11885:11886   */\n      0x00\n        /* \"#utility.yul\":11874:11883   */\n      dup4\n        /* \"#utility.yul\":11870:11887   */\n      add\n        /* \"#utility.yul\":11863:11910   */\n      mstore\n        /* \"#utility.yul\":11927:12058   */\n      tag_304\n        /* \"#utility.yul\":12053:12057   */\n      dup2\n        /* \"#utility.yul\":11927:12058   */\n      tag_180\n      jump\t// in\n    tag_304:\n        /* \"#utility.yul\":11919:12058   */\n      swap1\n      pop\n        /* \"#utility.yul\":11646:12065   */\n      swap2\n      swap1\n      pop\n      jump\t// out\n        /* \"#utility.yul\":12071:12251   */\n    tag_181:\n        /* \"#utility.yul\":12211:12243   */\n      0x7472616e73616374696f6e206c657373207468616e2072657175697265640000\n        /* \"#utility.yul\":12207:12208   */\n      0x00\n        /* \"#utility.yul\":12199:12205   */\n      dup3\n        /* \"#utility.yul\":12195:12209   */\n      add\n        /* \"#utility.yul\":12188:12244   */\n      mstore\n        /* \"#utility.yul\":12071:12251   */\n      pop\n      jump\t// out\n        /* \"#utility.yul\":12257:12623   */\n    tag_182:\n        /* \"#utility.yul\":12399:12402   */\n      0x00\n        /* \"#utility.yul\":12420:12487   */\n      tag_307\n        /* \"#utility.yul\":12484:12486   */\n      0x1e\n        /* \"#utility.yul\":12479:12482   */\n      dup4\n        /* \"#utility.yul\":12420:12487   */\n      tag_170\n      jump\t// in\n    tag_307:\n        /* \"#utility.yul\":12413:12487   */\n      swap2\n      pop\n        /* \"#utility.yul\":12496:12589   */\n      tag_308\n        /* \"#utility.yul\":12585:12588   */\n      dup3\n        /* \"#utility.yul\":12496:12589   */\n      tag_181\n      jump\t// in\n    tag_308:\n        /* \"#utility.yul\":12614:12616   */\n      0x20\n        /* \"#utility.yul\":12609:12612   */\n      dup3\n        /* \"#utility.yul\":12605:12617   */\n      add\n        /* \"#utility.yul\":12598:12617   */\n      swap1\n      pop\n        /* \"#utility.yul\":12257:12623   */\n      swap2\n      swap1\n      pop\n      jump\t// out\n        /* \"#utility.yul\":12629:13048   */\n    tag_113:\n        /* \"#utility.yul\":12795:12799   */\n      0x00\n        /* \"#utility.yul\":12833:12835   */\n      0x20\n        /* \"#utility.yul\":12822:12831   */\n      dup3\n        /* \"#utility.yul\":12818:12836   */\n      add\n        /* \"#utility.yul\":12810:12836   */\n      swap1\n      pop\n        /* \"#utility.yul\":12882:12891   */\n      dup2\n        /* \"#utility.yul\":12876:12880   */\n      dup2\n        /* \"#utility.yul\":12872:12892   */\n      sub\n        /* \"#utility.yul\":12868:12869   */\n      0x00\n        /* \"#utility.yul\":12857:12866   */\n      dup4\n        /* \"#utility.yul\":12853:12870   */\n      add\n        /* \"#utility.yul\":12846:12893   */\n      mstore\n        /* \"#utility.yul\":12910:13041   */\n      tag_310\n        /* \"#utility.yul\":13036:13040   */\n      dup2\n        /* \"#utility.yul\":12910:13041   */\n      tag_182\n      jump\t// in\n    tag_310:\n        /* \"#utility.yul\":12902:13041   */\n      swap1\n      pop\n        /* \"#utility.yul\":12629:13048   */\n      swap2\n      swap1\n      pop\n      jump\t// out\n        /* \"#utility.yul\":13054:13201   */\n    tag_183:\n        /* \"#utility.yul\":13155:13166   */\n      0x00\n        /* \"#utility.yul\":13192:13195   */\n      dup2\n        /* \"#utility.yul\":13177:13195   */\n      swap1\n      pop\n        /* \"#utility.yul\":13054:13201   */\n      swap3\n      swap2\n      pop\n      pop\n      jump\t// out\n        /* \"#utility.yul\":13207:13347   */\n    tag_184:\n        /* \"#utility.yul\":13255:13259   */\n      0x00\n        /* \"#utility.yul\":13278:13281   */\n      dup2\n        /* \"#utility.yul\":13270:13281   */\n      swap1\n      pop\n        /* \"#utility.yul\":13301:13304   */\n      dup2\n        /* \"#utility.yul\":13298:13299   */\n      0x00\n        /* \"#utility.yul\":13291:13305   */\n      mstore\n        /* \"#utility.yul\":13335:13339   */\n      0x20\n        /* \"#utility.yul\":13332:13333   */\n      0x00\n        /* \"#utility.yul\":13322:13340   */\n      keccak256\n        /* \"#utility.yul\":13314:13340   */\n      swap1\n      pop\n        /* \"#utility.yul\":13207:13347   */\n      swap2\n      swap1\n      pop\n      jump\t// out\n        /* \"#utility.yul\":13375:14216   */\n    tag_185:\n        /* \"#utility.yul\":13476:13479   */\n      0x00\n        /* \"#utility.yul\":13513:13518   */\n      dup2\n        /* \"#utility.yul\":13507:13519   */\n      sload\n        /* \"#utility.yul\":13542:13578   */\n      tag_314\n        /* \"#utility.yul\":13568:13577   */\n      dup2\n        /* \"#utility.yul\":13542:13578   */\n      tag_74\n      jump\t// in\n    tag_314:\n        /* \"#utility.yul\":13594:13682   */\n      tag_315\n        /* \"#utility.yul\":13675:13681   */\n      dup2\n        /* \"#utility.yul\":13670:13673   */\n      dup7\n        /* \"#utility.yul\":13594:13682   */\n      tag_183\n      jump\t// in\n    tag_315:\n        /* \"#utility.yul\":13587:13682   */\n      swap5\n      pop\n        /* \"#utility.yul\":13713:13714   */\n      0x01\n        /* \"#utility.yul\":13702:13711   */\n      dup3\n        /* \"#utility.yul\":13698:13715   */\n      and\n        /* \"#utility.yul\":13729:13730   */\n      0x00\n        /* \"#utility.yul\":13724:13861   */\n      dup2\n      eq\n      tag_317\n      jumpi\n        /* \"#utility.yul\":13875:13876   */\n      0x01\n        /* \"#utility.yul\":13870:14210   */\n      dup2\n      eq\n      tag_318\n      jumpi\n        /* \"#utility.yul\":13691:14210   */\n      jump(tag_316)\n        /* \"#utility.yul\":13724:13861   */\n    tag_317:\n        /* \"#utility.yul\":13808:13812   */\n      0xff\n        /* \"#utility.yul\":13804:13813   */\n      not\n        /* \"#utility.yul\":13793:13802   */\n      dup4\n        /* \"#utility.yul\":13789:13814   */\n      and\n        /* \"#utility.yul\":13784:13787   */\n      dup7\n        /* \"#utility.yul\":13777:13815   */\n      mstore\n        /* \"#utility.yul\":13844:13850   */\n      dup2\n        /* \"#utility.yul\":13839:13842   */\n      dup7\n        /* \"#utility.yul\":13835:13851   */\n      add\n        /* \"#utility.yul\":13828:13851   */\n      swap4\n      pop\n        /* \"#utility.yul\":13724:13861   */\n      jump(tag_316)\n        /* \"#utility.yul\":13870:14210   */\n    tag_318:\n        /* \"#utility.yul\":13937:13974   */\n      tag_319\n        /* \"#utility.yul\":13968:13973   */\n      dup6\n        /* \"#utility.yul\":13937:13974   */\n      tag_184\n      jump\t// in\n    tag_319:\n        /* \"#utility.yul\":13996:13997   */\n      0x00\n        /* \"#utility.yul\":14010:14164   */\n    tag_320:\n        /* \"#utility.yul\":14024:14030   */\n      dup4\n        /* \"#utility.yul\":14021:14022   */\n      dup2\n        /* \"#utility.yul\":14018:14031   */\n      lt\n        /* \"#utility.yul\":14010:14164   */\n      iszero\n      tag_322\n      jumpi\n        /* \"#utility.yul\":14098:14105   */\n      dup2\n        /* \"#utility.yul\":14092:14106   */\n      sload\n        /* \"#utility.yul\":14088:14089   */\n      dup2\n        /* \"#utility.yul\":14083:14086   */\n      dup10\n        /* \"#utility.yul\":14079:14090   */\n      add\n        /* \"#utility.yul\":14072:14107   */\n      mstore\n        /* \"#utility.yul\":14148:14149   */\n      0x01\n        /* \"#utility.yul\":14139:14146   */\n      dup3\n        /* \"#utility.yul\":14135:14150   */\n      add\n        /* \"#utility.yul\":14124:14150   */\n      swap2\n      pop\n        /* \"#utility.yul\":14046:14050   */\n      0x20\n        /* \"#utility.yul\":14043:14044   */\n      dup2\n        /* \"#utility.yul\":14039:14051   */\n      add\n        /* \"#utility.yul\":14034:14051   */\n      swap1\n      pop\n        /* \"#utility.yul\":14010:14164   */\n      jump(tag_320)\n    tag_322:\n        /* \"#utility.yul\":14193:14199   */\n      dup4\n        /* \"#utility.yul\":14188:14191   */\n      dup9\n        /* \"#utility.yul\":14184:14200   */\n      add\n        /* \"#utility.yul\":14177:14200   */\n      swap6\n      pop\n        /* \"#utility.yul\":13877:14210   */\n      pop\n      pop\n        /* \"#utility.yul\":13691:14210   */\n    tag_316:\n      pop\n        /* \"#utility.yul\":13480:14216   */\n      pop\n      pop\n        /* \"#utility.yul\":13375:14216   */\n      swap3\n      swap2\n      pop\n      pop\n      jump\t// out\n        /* \"#utility.yul\":14222:14487   */\n    tag_118:\n        /* \"#utility.yul\":14349:14352   */\n      0x00\n        /* \"#utility.yul\":14371:14461   */\n      tag_324\n        /* \"#utility.yul\":14457:14460   */\n      dup3\n        /* \"#utility.yul\":14448:14454   */\n      dup5\n        /* \"#utility.yul\":14371:14461   */\n      tag_185\n      jump\t// in\n    tag_324:\n        /* \"#utility.yul\":14364:14461   */\n      swap2\n      pop\n        /* \"#utility.yul\":14478:14481   */\n      dup2\n        /* \"#utility.yul\":14471:14481   */\n      swap1\n      pop\n        /* \"#utility.yul\":14222:14487   */\n      swap3\n      swap2\n      pop\n      pop\n      jump\t// out\n        /* \"#utility.yul\":14493:14652   */\n    tag_186:\n        /* \"#utility.yul\":14633:14644   */\n      0x7478206661696c65640000000000000000000000000000000000000000000000\n        /* \"#utility.yul\":14629:14630   */\n      0x00\n        /* \"#utility.yul\":14621:14627   */\n      dup3\n        /* \"#utility.yul\":14617:14631   */\n      add\n        /* \"#utility.yul\":14610:14645   */\n      mstore\n        /* \"#utility.yul\":14493:14652   */\n      pop\n      jump\t// out\n        /* \"#utility.yul\":14658:15023   */\n    tag_187:\n        /* \"#utility.yul\":14800:14803   */\n      0x00\n        /* \"#utility.yul\":14821:14887   */\n      tag_327\n        /* \"#utility.yul\":14885:14886   */\n      0x09\n        /* \"#utility.yul\":14880:14883   */\n      dup4\n        /* \"#utility.yul\":14821:14887   */\n      tag_170\n      jump\t// in\n    tag_327:\n        /* \"#utility.yul\":14814:14887   */\n      swap2\n      pop\n        /* \"#utility.yul\":14896:14989   */\n      tag_328\n        /* \"#utility.yul\":14985:14988   */\n      dup3\n        /* \"#utility.yul\":14896:14989   */\n      tag_186\n      jump\t// in\n    tag_328:\n        /* \"#utility.yul\":15014:15016   */\n      0x20\n        /* \"#utility.yul\":15009:15012   */\n      dup3\n        /* \"#utility.yul\":15005:15017   */\n      add\n        /* \"#utility.yul\":14998:15017   */\n      swap1\n      pop\n        /* \"#utility.yul\":14658:15023   */\n      swap2\n      swap1\n      pop\n      jump\t// out\n        /* \"#utility.yul\":15029:15448   */\n    tag_124:\n        /* \"#utility.yul\":15195:15199   */\n      0x00\n        /* \"#utility.yul\":15233:15235   */\n      0x20\n        /* \"#utility.yul\":15222:15231   */\n      dup3\n        /* \"#utility.yul\":15218:15236   */\n      add\n        /* \"#utility.yul\":15210:15236   */\n      swap1\n      pop\n        /* \"#utility.yul\":15282:15291   */\n      dup2\n        /* \"#utility.yul\":15276:15280   */\n      dup2\n        /* \"#utility.yul\":15272:15292   */\n      sub\n        /* \"#utility.yul\":15268:15269   */\n      0x00\n        /* \"#utility.yul\":15257:15266   */\n      dup4\n        /* \"#utility.yul\":15253:15270   */\n      add\n        /* \"#utility.yul\":15246:15293   */\n      mstore\n        /* \"#utility.yul\":15310:15441   */\n      tag_330\n        /* \"#utility.yul\":15436:15440   */\n      dup2\n        /* \"#utility.yul\":15310:15441   */\n      tag_187\n      jump\t// in\n    tag_330:\n        /* \"#utility.yul\":15302:15441   */\n      swap1\n      pop\n        /* \"#utility.yul\":15029:15448   */\n      swap2\n      swap1\n      pop\n      jump\t// out\n        /* \"#utility.yul\":15454:15759   */\n    tag_134:\n        /* \"#utility.yul\":15494:15497   */\n      0x00\n        /* \"#utility.yul\":15513:15533   */\n      tag_332\n        /* \"#utility.yul\":15531:15532   */\n      dup3\n        /* \"#utility.yul\":15513:15533   */\n      tag_147\n      jump\t// in\n    tag_332:\n        /* \"#utility.yul\":15508:15533   */\n      swap2\n      pop\n        /* \"#utility.yul\":15547:15567   */\n      tag_333\n        /* \"#utility.yul\":15565:15566   */\n      dup4\n        /* \"#utility.yul\":15547:15567   */\n      tag_147\n      jump\t// in\n    tag_333:\n        /* \"#utility.yul\":15542:15567   */\n      swap3\n      pop\n        /* \"#utility.yul\":15701:15702   */\n      dup3\n        /* \"#utility.yul\":15633:15699   */\n      0xffffffffffffffffffffffffffffffffffffffffffffffffffffffffffffffff\n        /* \"#utility.yul\":15629:15703   */\n      sub\n        /* \"#utility.yul\":15626:15627   */\n      dup3\n        /* \"#utility.yul\":15623:15704   */\n      gt\n        /* \"#utility.yul\":15620:15727   */\n      iszero\n      tag_334\n      jumpi\n        /* \"#utility.yul\":15707:15725   */\n      tag_335\n      tag_173\n      jump\t// in\n    tag_335:\n        /* \"#utility.yul\":15620:15727   */\n    tag_334:\n        /* \"#utility.yul\":15751:15752   */\n      dup3\n        /* \"#utility.yul\":15748:15749   */\n      dup3\n        /* \"#utility.yul\":15744:15753   */\n      add\n        /* \"#utility.yul\":15737:15753   */\n      swap1\n      pop\n        /* \"#utility.yul\":15454:15759   */\n      swap3\n      swap2\n      pop\n      pop\n      jump\t// out\n        /* \"#utility.yul\":15765:15998   */\n    tag_136:\n        /* \"#utility.yul\":15804:15807   */\n      0x00\n        /* \"#utility.yul\":15827:15851   */\n      tag_337\n        /* \"#utility.yul\":15845:15850   */\n      dup3\n        /* \"#utility.yul\":15827:15851   */\n      tag_147\n      jump\t// in\n    tag_337:\n        /* \"#utility.yul\":15818:15851   */\n      swap2\n      pop\n        /* \"#utility.yul\":15873:15939   */\n      0xffffffffffffffffffffffffffffffffffffffffffffffffffffffffffffffff\n        /* \"#utility.yul\":15866:15871   */\n      dup3\n        /* \"#utility.yul\":15863:15940   */\n      eq\n        /* \"#utility.yul\":15860:15963   */\n      iszero\n      tag_338\n      jumpi\n        /* \"#utility.yul\":15943:15961   */\n      tag_339\n      tag_173\n      jump\t// in\n    tag_339:\n        /* \"#utility.yul\":15860:15963   */\n    tag_338:\n        /* \"#utility.yul\":15990:15991   */\n      0x01\n        /* \"#utility.yul\":15983:15988   */\n      dup3\n        /* \"#utility.yul\":15979:15992   */\n      add\n        /* \"#utility.yul\":15972:15992   */\n      swap1\n      pop\n        /* \"#utility.yul\":15765:15998   */\n      swap2\n      swap1\n      pop\n      jump\t// out\n\n    auxdata: 0xa2646970667358221220c043f5e6c5b1db82f255497ac4a98ac37edfbdaa8f95a1a38d60c045cff5b73d64736f6c634300080a0033\n}\n",
				"bytecode": {
					"linkReferences": {},
					"object": "60806040523480156200001157600080fd5b5060405162001d1238038062001d1283398181016040528101906200003791906200050f565b60008251116200007e576040517f08c379a00000000000000000000000000000000000000000000000000000000081526004016200007590620005d6565b60405180910390fd5b6000811180156200009457506000805490508111155b620000d6576040517f08c379a0000000000000000000000000000000000000000000000000000000008152600401620000cd906200066e565b60405180910390fd5b60005b600080549050811015620002dd576000838281518110620000ff57620000fe62000690565b5b60200260200101519050600073ffffffffffffffffffffffffffffffffffffffff168173ffffffffffffffffffffffffffffffffffffffff1614156200017c576040517f08c379a000000000000000000000000000000000000000000000000000000000815260040162000173906200070f565b60405180910390fd5b600160008273ffffffffffffffffffffffffffffffffffffffff1673ffffffffffffffffffffffffffffffffffffffff16815260200190815260200160002060009054906101000a900460ff16156200020c576040517f08c379a0000000000000000000000000000000000000000000000000000000008152600401620002039062000781565b60405180910390fd5b60018060008373ffffffffffffffffffffffffffffffffffffffff1673ffffffffffffffffffffffffffffffffffffffff16815260200190815260200160002060006101000a81548160ff0219169083151502179055506000819080600181540180825580915050600190039060005260206000200160009091909190916101000a81548173ffffffffffffffffffffffffffffffffffffffff021916908373ffffffffffffffffffffffffffffffffffffffff160217905550508080620002d490620007d2565b915050620000d9565b50505062000820565b6000604051905090565b600080fd5b600080fd5b600080fd5b6000601f19601f8301169050919050565b7f4e487b7100000000000000000000000000000000000000000000000000000000600052604160045260246000fd5b6200034a82620002ff565b810181811067ffffffffffffffff821117156200036c576200036b62000310565b5b80604052505050565b600062000381620002e6565b90506200038f82826200033f565b919050565b600067ffffffffffffffff821115620003b257620003b162000310565b5b602082029050602081019050919050565b600080fd5b600073ffffffffffffffffffffffffffffffffffffffff82169050919050565b6000620003f582620003c8565b9050919050565b6200040781620003e8565b81146200041357600080fd5b50565b6000815190506200042781620003fc565b92915050565b6000620004446200043e8462000394565b62000375565b905080838252602082019050602084028301858111156200046a5762000469620003c3565b5b835b8181101562000497578062000482888262000416565b8452602084019350506020810190506200046c565b5050509392505050565b600082601f830112620004b957620004b8620002fa565b5b8151620004cb8482602086016200042d565b91505092915050565b6000819050919050565b620004e981620004d4565b8114620004f557600080fd5b50565b6000815190506200050981620004de565b92915050565b60008060408385031215620005295762000528620002f0565b5b600083015167ffffffffffffffff8111156200054a5762000549620002f5565b5b6200055885828601620004a1565b92505060206200056b85828601620004f8565b9150509250929050565b600082825260208201905092915050565b7f6f776e6572732072657175697265640000000000000000000000000000000000600082015250565b6000620005be600f8362000575565b9150620005cb8262000586565b602082019050919050565b60006020820190508181036000830152620005f181620005af565b9050919050565b7f696e76616c6964207265717569726564206e756d626572206f66206f776e657260008201527f7300000000000000000000000000000000000000000000000000000000000000602082015250565b60006200065660218362000575565b91506200066382620005f8565b604082019050919050565b60006020820190508181036000830152620006898162000647565b9050919050565b7f4e487b7100000000000000000000000000000000000000000000000000000000600052603260045260246000fd5b7f696e76616c6964206f776e657200000000000000000000000000000000000000600082015250565b6000620006f7600d8362000575565b91506200070482620006bf565b602082019050919050565b600060208201905081810360008301526200072a81620006e8565b9050919050565b7f6f776e6572206973206e6f7420756e6971756500000000000000000000000000600082015250565b60006200076960138362000575565b9150620007768262000731565b602082019050919050565b600060208201905081810360008301526200079c816200075a565b9050919050565b7f4e487b7100000000000000000000000000000000000000000000000000000000600052601160045260246000fd5b6000620007df82620004d4565b91507fffffffffffffffffffffffffffffffffffffffffffffffffffffffffffffffff821415620008155762000814620007a3565b5b600182019050919050565b6114e280620008306000396000f3fe60806040526004361061007f5760003560e01c80639ace38c21161004e5780639ace38c2146101b9578063b759f954146101f9578063dc8452cd14610222578063fe0d94c11461024d576100d4565b8063025e7c27146100d957806314de327f146101165780632f54bf6e1461013f5780638253951a1461017c576100d4565b366100d4573373ffffffffffffffffffffffffffffffffffffffff167fe1fffcc4923d04b559f4d29a8bfc6cda04eb5b0d3c460751c2402c5c5cc9109c346040516100ca9190610c64565b60405180910390a2005b600080fd5b3480156100e557600080fd5b5061010060048036038101906100fb9190610cb5565b610276565b60405161010d9190610d23565b60405180910390f35b34801561012257600080fd5b5061013d60048036038101906101389190610dcf565b6102b5565b005b34801561014b57600080fd5b5061016660048036038101906101619190610e43565b6104be565b6040516101739190610e8b565b60405180910390f35b34801561018857600080fd5b506101a3600480360381019061019e9190610ea6565b6104de565b6040516101b09190610e8b565b60405180910390f35b3480156101c557600080fd5b506101e060048036038101906101db9190610cb5565b61050d565b6040516101f09493929190610f7f565b60405180910390f35b34801561020557600080fd5b50610220600480360381019061021b9190610cb5565b610602565b005b34801561022e57600080fd5b5061023761089c565b6040516102449190610c64565b60405180910390f35b34801561025957600080fd5b50610274600480360381019061026f9190610cb5565b6108a2565b005b6000818154811061028657600080fd5b906000526020600020016000915054906101000a900473ffffffffffffffffffffffffffffffffffffffff1681565b600160003373ffffffffffffffffffffffffffffffffffffffff1673ffffffffffffffffffffffffffffffffffffffff16815260200190815260200160002060009054906101000a900460ff16610341576040517f08c379a000000000000000000000000000000000000000000000000000000000815260040161033890611028565b60405180910390fd5b600360405180608001604052808673ffffffffffffffffffffffffffffffffffffffff16815260200185815260200184848080601f016020809104026020016040519081016040528093929190818152602001838380828437600081840152601f19601f82011690508083019250505050505050815260200160001515815250908060018154018082558091505060019003906000526020600020906004020160009091909190915060008201518160000160006101000a81548173ffffffffffffffffffffffffffffffffffffffff021916908373ffffffffffffffffffffffffffffffffffffffff160217905550602082015181600101556040820151816002019080519060200190610457929190610ba8565b5060608201518160030160006101000a81548160ff0219169083151502179055505050600160038054905061048c9190611077565b7f08324b3d745b914e3abd4ffbfead91e3b78391a98c173202129215ab933adfbe60405160405180910390a250505050565b60016020528060005260406000206000915054906101000a900460ff1681565b60046020528160005260406000206020528060005260406000206000915091509054906101000a900460ff1681565b6003818154811061051d57600080fd5b90600052602060002090600402016000915090508060000160009054906101000a900473ffffffffffffffffffffffffffffffffffffffff169080600101549080600201805461056c906110da565b80601f0160208091040260200160405190810160405280929190818152602001828054610598906110da565b80156105e55780601f106105ba576101008083540402835291602001916105e5565b820191906000526020600020905b8154815290600101906020018083116105c857829003601f168201915b5050505050908060030160009054906101000a900460ff16905084565b600160003373ffffffffffffffffffffffffffffffffffffffff1673ffffffffffffffffffffffffffffffffffffffff16815260200190815260200160002060009054906101000a900460ff1661068e576040517f08c379a000000000000000000000000000000000000000000000000000000000815260040161068590611028565b60405180910390fd5b8080600380549050106106d6576040517f08c379a00000000000000000000000000000000000000000000000000000000081526004016106cd90611158565b60405180910390fd5b816004600082815260200190815260200160002060003373ffffffffffffffffffffffffffffffffffffffff1673ffffffffffffffffffffffffffffffffffffffff16815260200190815260200160002060009054906101000a900460ff1615610775576040517f08c379a000000000000000000000000000000000000000000000000000000000815260040161076c906111c4565b60405180910390fd5b826003818154811061078a576107896111e4565b5b906000526020600020906004020160030160009054906101000a900460ff16156107e9576040517f08c379a00000000000000000000000000000000000000000000000000000000081526004016107e09061125f565b60405180910390fd5b60016004600086815260200190815260200160002060003373ffffffffffffffffffffffffffffffffffffffff1673ffffffffffffffffffffffffffffffffffffffff16815260200190815260200160002060006101000a81548160ff021916908315150217905550833373ffffffffffffffffffffffffffffffffffffffff167f90ec57f18fa7b15c6b8d5e4d1deb90796c74b2ff23d4d0cecad0cb42a96b312860405160405180910390a350505050565b60025481565b8080600380549050106108ea576040517f08c379a00000000000000000000000000000000000000000000000000000000081526004016108e190611158565b60405180910390fd5b81600381815481106108ff576108fe6111e4565b5b906000526020600020906004020160030160009054906101000a900460ff161561095e576040517f08c379a00000000000000000000000000000000000000000000000000000000081526004016109559061125f565b60405180910390fd5b60025461096a84610ace565b10156109ab576040517f08c379a00000000000000000000000000000000000000000000000000000000081526004016109a2906112cb565b60405180910390fd5b6000600384815481106109c1576109c06111e4565b5b9060005260206000209060040201905060018160030160006101000a81548160ff02191690831515021790555060008160000160009054906101000a900473ffffffffffffffffffffffffffffffffffffffff1673ffffffffffffffffffffffffffffffffffffffff16826001015483600201604051610a41919061138a565b60006040518083038185875af1925050503d8060008114610a7e576040519150601f19603f3d011682016040523d82523d6000602084013e610a83565b606091505b5050905080610ac7576040517f08c379a0000000000000000000000000000000000000000000000000000000008152600401610abe906113ed565b60405180910390fd5b5050505050565b6000805b600080549050811015610ba257600460008481526020019081526020016000206000808381548110610b0757610b066111e4565b5b9060005260206000200160009054906101000a900473ffffffffffffffffffffffffffffffffffffffff1673ffffffffffffffffffffffffffffffffffffffff1673ffffffffffffffffffffffffffffffffffffffff16815260200190815260200160002060009054906101000a900460ff1615610b8f57600182610b8c919061140d565b91505b8080610b9a90611463565b915050610ad2565b50919050565b828054610bb4906110da565b90600052602060002090601f016020900481019282610bd65760008555610c1d565b82601f10610bef57805160ff1916838001178555610c1d565b82800160010185558215610c1d579182015b82811115610c1c578251825591602001919060010190610c01565b5b509050610c2a9190610c2e565b5090565b5b80821115610c47576000816000905550600101610c2f565b5090565b6000819050919050565b610c5e81610c4b565b82525050565b6000602082019050610c796000830184610c55565b92915050565b600080fd5b600080fd5b610c9281610c4b565b8114610c9d57600080fd5b50565b600081359050610caf81610c89565b92915050565b600060208284031215610ccb57610cca610c7f565b5b6000610cd984828501610ca0565b91505092915050565b600073ffffffffffffffffffffffffffffffffffffffff82169050919050565b6000610d0d82610ce2565b9050919050565b610d1d81610d02565b82525050565b6000602082019050610d386000830184610d14565b92915050565b610d4781610d02565b8114610d5257600080fd5b50565b600081359050610d6481610d3e565b92915050565b600080fd5b600080fd5b600080fd5b60008083601f840112610d8f57610d8e610d6a565b5b8235905067ffffffffffffffff811115610dac57610dab610d6f565b5b602083019150836001820283011115610dc857610dc7610d74565b5b9250929050565b60008060008060608587031215610de957610de8610c7f565b5b6000610df787828801610d55565b9450506020610e0887828801610ca0565b935050604085013567ffffffffffffffff811115610e2957610e28610c84565b5b610e3587828801610d79565b925092505092959194509250565b600060208284031215610e5957610e58610c7f565b5b6000610e6784828501610d55565b91505092915050565b60008115159050919050565b610e8581610e70565b82525050565b6000602082019050610ea06000830184610e7c565b92915050565b60008060408385031215610ebd57610ebc610c7f565b5b6000610ecb85828601610ca0565b9250506020610edc85828601610d55565b9150509250929050565b600081519050919050565b600082825260208201905092915050565b60005b83811015610f20578082015181840152602081019050610f05565b83811115610f2f576000848401525b50505050565b6000601f19601f8301169050919050565b6000610f5182610ee6565b610f5b8185610ef1565b9350610f6b818560208601610f02565b610f7481610f35565b840191505092915050565b6000608082019050610f946000830187610d14565b610fa16020830186610c55565b8181036040830152610fb38185610f46565b9050610fc26060830184610e7c565b95945050505050565b600082825260208201905092915050565b7f6e6f74206f776e65720000000000000000000000000000000000000000000000600082015250565b6000611012600983610fcb565b915061101d82610fdc565b602082019050919050565b6000602082019050818103600083015261104181611005565b9050919050565b7f4e487b7100000000000000000000000000000000000000000000000000000000600052601160045260246000fd5b600061108282610c4b565b915061108d83610c4b565b9250828210156110a05761109f611048565b5b828203905092915050565b7f4e487b7100000000000000000000000000000000000000000000000000000000600052602260045260246000fd5b600060028204905060018216806110f257607f821691505b60208210811415611106576111056110ab565b5b50919050565b7f747820646f6573206e6f74206578697374000000000000000000000000000000600082015250565b6000611142601183610fcb565b915061114d8261110c565b602082019050919050565b6000602082019050818103600083015261117181611135565b9050919050565b7f747820616c726561647920617070726f76656400000000000000000000000000600082015250565b60006111ae601383610fcb565b91506111b982611178565b602082019050919050565b600060208201905081810360008301526111dd816111a1565b9050919050565b7f4e487b7100000000000000000000000000000000000000000000000000000000600052603260045260246000fd5b7f747820616c726561647920657865637574656400000000000000000000000000600082015250565b6000611249601383610fcb565b915061125482611213565b602082019050919050565b600060208201905081810360008301526112788161123c565b9050919050565b7f7472616e73616374696f6e206c657373207468616e2072657175697265640000600082015250565b60006112b5601e83610fcb565b91506112c08261127f565b602082019050919050565b600060208201905081810360008301526112e4816112a8565b9050919050565b600081905092915050565b60008190508160005260206000209050919050565b60008154611318816110da565b61132281866112eb565b9450600182166000811461133d576001811461134e57611381565b60ff19831686528186019350611381565b611357856112f6565b60005b838110156113795781548189015260018201915060208101905061135a565b838801955050505b50505092915050565b6000611396828461130b565b915081905092915050565b7f7478206661696c65640000000000000000000000000000000000000000000000600082015250565b60006113d7600983610fcb565b91506113e2826113a1565b602082019050919050565b60006020820190508181036000830152611406816113ca565b9050919050565b600061141882610c4b565b915061142383610c4b565b9250827fffffffffffffffffffffffffffffffffffffffffffffffffffffffffffffffff0382111561145857611457611048565b5b828201905092915050565b600061146e82610c4b565b91507fffffffffffffffffffffffffffffffffffffffffffffffffffffffffffffffff8214156114a1576114a0611048565b5b60018201905091905056fea2646970667358221220c043f5e6c5b1db82f255497ac4a98ac37edfbdaa8f95a1a38d60c045cff5b73d64736f6c634300080a0033",
					"opcodes": "PUSH1 0x80 PUSH1 0x40 MSTORE CALLVALUE DUP1 ISZERO PUSH3 0x11 JUMPI PUSH1 0x0 DUP1 REVERT JUMPDEST POP PUSH1 0x40 MLOAD PUSH3 0x1D12 CODESIZE SUB DUP1 PUSH3 0x1D12 DUP4 CODECOPY DUP2 DUP2 ADD PUSH1 0x40 MSTORE DUP2 ADD SWAP1 PUSH3 0x37 SWAP2 SWAP1 PUSH3 0x50F JUMP JUMPDEST PUSH1 0x0 DUP3 MLOAD GT PUSH3 0x7E JUMPI PUSH1 0x40 MLOAD PUSH32 0x8C379A000000000000000000000000000000000000000000000000000000000 DUP2 MSTORE PUSH1 0x4 ADD PUSH3 0x75 SWAP1 PUSH3 0x5D6 JUMP JUMPDEST PUSH1 0x40 MLOAD DUP1 SWAP2 SUB SWAP1 REVERT JUMPDEST PUSH1 0x0 DUP2 GT DUP1 ISZERO PUSH3 0x94 JUMPI POP PUSH1 0x0 DUP1 SLOAD SWAP1 POP DUP2 GT ISZERO JUMPDEST PUSH3 0xD6 JUMPI PUSH1 0x40 MLOAD PUSH32 0x8C379A000000000000000000000000000000000000000000000000000000000 DUP2 MSTORE PUSH1 0x4 ADD PUSH3 0xCD SWAP1 PUSH3 0x66E JUMP JUMPDEST PUSH1 0x40 MLOAD DUP1 SWAP2 SUB SWAP1 REVERT JUMPDEST PUSH1 0x0 JUMPDEST PUSH1 0x0 DUP1 SLOAD SWAP1 POP DUP2 LT ISZERO PUSH3 0x2DD JUMPI PUSH1 0x0 DUP4 DUP3 DUP2 MLOAD DUP2 LT PUSH3 0xFF JUMPI PUSH3 0xFE PUSH3 0x690 JUMP JUMPDEST JUMPDEST PUSH1 0x20 MUL PUSH1 0x20 ADD ADD MLOAD SWAP1 POP PUSH1 0x0 PUSH20 0xFFFFFFFFFFFFFFFFFFFFFFFFFFFFFFFFFFFFFFFF AND DUP2 PUSH20 0xFFFFFFFFFFFFFFFFFFFFFFFFFFFFFFFFFFFFFFFF AND EQ ISZERO PUSH3 0x17C JUMPI PUSH1 0x40 MLOAD PUSH32 0x8C379A000000000000000000000000000000000000000000000000000000000 DUP2 MSTORE PUSH1 0x4 ADD PUSH3 0x173 SWAP1 PUSH3 0x70F JUMP JUMPDEST PUSH1 0x40 MLOAD DUP1 SWAP2 SUB SWAP1 REVERT JUMPDEST PUSH1 0x1 PUSH1 0x0 DUP3 PUSH20 0xFFFFFFFFFFFFFFFFFFFFFFFFFFFFFFFFFFFFFFFF AND PUSH20 0xFFFFFFFFFFFFFFFFFFFFFFFFFFFFFFFFFFFFFFFF AND DUP2 MSTORE PUSH1 0x20 ADD SWAP1 DUP2 MSTORE PUSH1 0x20 ADD PUSH1 0x0 KECCAK256 PUSH1 0x0 SWAP1 SLOAD SWAP1 PUSH2 0x100 EXP SWAP1 DIV PUSH1 0xFF AND ISZERO PUSH3 0x20C JUMPI PUSH1 0x40 MLOAD PUSH32 0x8C379A000000000000000000000000000000000000000000000000000000000 DUP2 MSTORE PUSH1 0x4 ADD PUSH3 0x203 SWAP1 PUSH3 0x781 JUMP JUMPDEST PUSH1 0x40 MLOAD DUP1 SWAP2 SUB SWAP1 REVERT JUMPDEST PUSH1 0x1 DUP1 PUSH1 0x0 DUP4 PUSH20 0xFFFFFFFFFFFFFFFFFFFFFFFFFFFFFFFFFFFFFFFF AND PUSH20 0xFFFFFFFFFFFFFFFFFFFFFFFFFFFFFFFFFFFFFFFF AND DUP2 MSTORE PUSH1 0x20 ADD SWAP1 DUP2 MSTORE PUSH1 0x20 ADD PUSH1 0x0 KECCAK256 PUSH1 0x0 PUSH2 0x100 EXP DUP2 SLOAD DUP2 PUSH1 0xFF MUL NOT AND SWAP1 DUP4 ISZERO ISZERO MUL OR SWAP1 SSTORE POP PUSH1 0x0 DUP2 SWAP1 DUP1 PUSH1 0x1 DUP2 SLOAD ADD DUP1 DUP3 SSTORE DUP1 SWAP2 POP POP PUSH1 0x1 SWAP1 SUB SWAP1 PUSH1 0x0 MSTORE PUSH1 0x20 PUSH1 0x0 KECCAK256 ADD PUSH1 0x0 SWAP1 SWAP2 SWAP1 SWAP2 SWAP1 SWAP2 PUSH2 0x100 EXP DUP2 SLOAD DUP2 PUSH20 0xFFFFFFFFFFFFFFFFFFFFFFFFFFFFFFFFFFFFFFFF MUL NOT AND SWAP1 DUP4 PUSH20 0xFFFFFFFFFFFFFFFFFFFFFFFFFFFFFFFFFFFFFFFF AND MUL OR SWAP1 SSTORE POP POP DUP1 DUP1 PUSH3 0x2D4 SWAP1 PUSH3 0x7D2 JUMP JUMPDEST SWAP2 POP POP PUSH3 0xD9 JUMP JUMPDEST POP POP POP PUSH3 0x820 JUMP JUMPDEST PUSH1 0x0 PUSH1 0x40 MLOAD SWAP1 POP SWAP1 JUMP JUMPDEST PUSH1 0x0 DUP1 REVERT JUMPDEST PUSH1 0x0 DUP1 REVERT JUMPDEST PUSH1 0x0 DUP1 REVERT JUMPDEST PUSH1 0x0 PUSH1 0x1F NOT PUSH1 0x1F DUP4 ADD AND SWAP1 POP SWAP2 SWAP1 POP JUMP JUMPDEST PUSH32 0x4E487B7100000000000000000000000000000000000000000000000000000000 PUSH1 0x0 MSTORE PUSH1 0x41 PUSH1 0x4 MSTORE PUSH1 0x24 PUSH1 0x0 REVERT JUMPDEST PUSH3 0x34A DUP3 PUSH3 0x2FF JUMP JUMPDEST DUP2 ADD DUP2 DUP2 LT PUSH8 0xFFFFFFFFFFFFFFFF DUP3 GT OR ISZERO PUSH3 0x36C JUMPI PUSH3 0x36B PUSH3 0x310 JUMP JUMPDEST JUMPDEST DUP1 PUSH1 0x40 MSTORE POP POP POP JUMP JUMPDEST PUSH1 0x0 PUSH3 0x381 PUSH3 0x2E6 JUMP JUMPDEST SWAP1 POP PUSH3 0x38F DUP3 DUP3 PUSH3 0x33F JUMP JUMPDEST SWAP2 SWAP1 POP JUMP JUMPDEST PUSH1 0x0 PUSH8 0xFFFFFFFFFFFFFFFF DUP3 GT ISZERO PUSH3 0x3B2 JUMPI PUSH3 0x3B1 PUSH3 0x310 JUMP JUMPDEST JUMPDEST PUSH1 0x20 DUP3 MUL SWAP1 POP PUSH1 0x20 DUP2 ADD SWAP1 POP SWAP2 SWAP1 POP JUMP JUMPDEST PUSH1 0x0 DUP1 REVERT JUMPDEST PUSH1 0x0 PUSH20 0xFFFFFFFFFFFFFFFFFFFFFFFFFFFFFFFFFFFFFFFF DUP3 AND SWAP1 POP SWAP2 SWAP1 POP JUMP JUMPDEST PUSH1 0x0 PUSH3 0x3F5 DUP3 PUSH3 0x3C8 JUMP JUMPDEST SWAP1 POP SWAP2 SWAP1 POP JUMP JUMPDEST PUSH3 0x407 DUP2 PUSH3 0x3E8 JUMP JUMPDEST DUP2 EQ PUSH3 0x413 JUMPI PUSH1 0x0 DUP1 REVERT JUMPDEST POP JUMP JUMPDEST PUSH1 0x0 DUP2 MLOAD SWAP1 POP PUSH3 0x427 DUP2 PUSH3 0x3FC JUMP JUMPDEST SWAP3 SWAP2 POP POP JUMP JUMPDEST PUSH1 0x0 PUSH3 0x444 PUSH3 0x43E DUP5 PUSH3 0x394 JUMP JUMPDEST PUSH3 0x375 JUMP JUMPDEST SWAP1 POP DUP1 DUP4 DUP3 MSTORE PUSH1 0x20 DUP3 ADD SWAP1 POP PUSH1 0x20 DUP5 MUL DUP4 ADD DUP6 DUP2 GT ISZERO PUSH3 0x46A JUMPI PUSH3 0x469 PUSH3 0x3C3 JUMP JUMPDEST JUMPDEST DUP4 JUMPDEST DUP2 DUP2 LT ISZERO PUSH3 0x497 JUMPI DUP1 PUSH3 0x482 DUP9 DUP3 PUSH3 0x416 JUMP JUMPDEST DUP5 MSTORE PUSH1 0x20 DUP5 ADD SWAP4 POP POP PUSH1 0x20 DUP2 ADD SWAP1 POP PUSH3 0x46C JUMP JUMPDEST POP POP POP SWAP4 SWAP3 POP POP POP JUMP JUMPDEST PUSH1 0x0 DUP3 PUSH1 0x1F DUP4 ADD SLT PUSH3 0x4B9 JUMPI PUSH3 0x4B8 PUSH3 0x2FA JUMP JUMPDEST JUMPDEST DUP2 MLOAD PUSH3 0x4CB DUP5 DUP3 PUSH1 0x20 DUP7 ADD PUSH3 0x42D JUMP JUMPDEST SWAP2 POP POP SWAP3 SWAP2 POP POP JUMP JUMPDEST PUSH1 0x0 DUP2 SWAP1 POP SWAP2 SWAP1 POP JUMP JUMPDEST PUSH3 0x4E9 DUP2 PUSH3 0x4D4 JUMP JUMPDEST DUP2 EQ PUSH3 0x4F5 JUMPI PUSH1 0x0 DUP1 REVERT JUMPDEST POP JUMP JUMPDEST PUSH1 0x0 DUP2 MLOAD SWAP1 POP PUSH3 0x509 DUP2 PUSH3 0x4DE JUMP JUMPDEST SWAP3 SWAP2 POP POP JUMP JUMPDEST PUSH1 0x0 DUP1 PUSH1 0x40 DUP4 DUP6 SUB SLT ISZERO PUSH3 0x529 JUMPI PUSH3 0x528 PUSH3 0x2F0 JUMP JUMPDEST JUMPDEST PUSH1 0x0 DUP4 ADD MLOAD PUSH8 0xFFFFFFFFFFFFFFFF DUP2 GT ISZERO PUSH3 0x54A JUMPI PUSH3 0x549 PUSH3 0x2F5 JUMP JUMPDEST JUMPDEST PUSH3 0x558 DUP6 DUP3 DUP7 ADD PUSH3 0x4A1 JUMP JUMPDEST SWAP3 POP POP PUSH1 0x20 PUSH3 0x56B DUP6 DUP3 DUP7 ADD PUSH3 0x4F8 JUMP JUMPDEST SWAP2 POP POP SWAP3 POP SWAP3 SWAP1 POP JUMP JUMPDEST PUSH1 0x0 DUP3 DUP3 MSTORE PUSH1 0x20 DUP3 ADD SWAP1 POP SWAP3 SWAP2 POP POP JUMP JUMPDEST PUSH32 0x6F776E6572732072657175697265640000000000000000000000000000000000 PUSH1 0x0 DUP3 ADD MSTORE POP JUMP JUMPDEST PUSH1 0x0 PUSH3 0x5BE PUSH1 0xF DUP4 PUSH3 0x575 JUMP JUMPDEST SWAP2 POP PUSH3 0x5CB DUP3 PUSH3 0x586 JUMP JUMPDEST PUSH1 0x20 DUP3 ADD SWAP1 POP SWAP2 SWAP1 POP JUMP JUMPDEST PUSH1 0x0 PUSH1 0x20 DUP3 ADD SWAP1 POP DUP2 DUP2 SUB PUSH1 0x0 DUP4 ADD MSTORE PUSH3 0x5F1 DUP2 PUSH3 0x5AF JUMP JUMPDEST SWAP1 POP SWAP2 SWAP1 POP JUMP JUMPDEST PUSH32 0x696E76616C6964207265717569726564206E756D626572206F66206F776E6572 PUSH1 0x0 DUP3 ADD MSTORE PUSH32 0x7300000000000000000000000000000000000000000000000000000000000000 PUSH1 0x20 DUP3 ADD MSTORE POP JUMP JUMPDEST PUSH1 0x0 PUSH3 0x656 PUSH1 0x21 DUP4 PUSH3 0x575 JUMP JUMPDEST SWAP2 POP PUSH3 0x663 DUP3 PUSH3 0x5F8 JUMP JUMPDEST PUSH1 0x40 DUP3 ADD SWAP1 POP SWAP2 SWAP1 POP JUMP JUMPDEST PUSH1 0x0 PUSH1 0x20 DUP3 ADD SWAP1 POP DUP2 DUP2 SUB PUSH1 0x0 DUP4 ADD MSTORE PUSH3 0x689 DUP2 PUSH3 0x647 JUMP JUMPDEST SWAP1 POP SWAP2 SWAP1 POP JUMP JUMPDEST PUSH32 0x4E487B7100000000000000000000000000000000000000000000000000000000 PUSH1 0x0 MSTORE PUSH1 0x32 PUSH1 0x4 MSTORE PUSH1 0x24 PUSH1 0x0 REVERT JUMPDEST PUSH32 0x696E76616C6964206F776E657200000000000000000000000000000000000000 PUSH1 0x0 DUP3 ADD MSTORE POP JUMP JUMPDEST PUSH1 0x0 PUSH3 0x6F7 PUSH1 0xD DUP4 PUSH3 0x575 JUMP JUMPDEST SWAP2 POP PUSH3 0x704 DUP3 PUSH3 0x6BF JUMP JUMPDEST PUSH1 0x20 DUP3 ADD SWAP1 POP SWAP2 SWAP1 POP JUMP JUMPDEST PUSH1 0x0 PUSH1 0x20 DUP3 ADD SWAP1 POP DUP2 DUP2 SUB PUSH1 0x0 DUP4 ADD MSTORE PUSH3 0x72A DUP2 PUSH3 0x6E8 JUMP JUMPDEST SWAP1 POP SWAP2 SWAP1 POP JUMP JUMPDEST PUSH32 0x6F776E6572206973206E6F7420756E6971756500000000000000000000000000 PUSH1 0x0 DUP3 ADD MSTORE POP JUMP JUMPDEST PUSH1 0x0 PUSH3 0x769 PUSH1 0x13 DUP4 PUSH3 0x575 JUMP JUMPDEST SWAP2 POP PUSH3 0x776 DUP3 PUSH3 0x731 JUMP JUMPDEST PUSH1 0x20 DUP3 ADD SWAP1 POP SWAP2 SWAP1 POP JUMP JUMPDEST PUSH1 0x0 PUSH1 0x20 DUP3 ADD SWAP1 POP DUP2 DUP2 SUB PUSH1 0x0 DUP4 ADD MSTORE PUSH3 0x79C DUP2 PUSH3 0x75A JUMP JUMPDEST SWAP1 POP SWAP2 SWAP1 POP JUMP JUMPDEST PUSH32 0x4E487B7100000000000000000000000000000000000000000000000000000000 PUSH1 0x0 MSTORE PUSH1 0x11 PUSH1 0x4 MSTORE PUSH1 0x24 PUSH1 0x0 REVERT JUMPDEST PUSH1 0x0 PUSH3 0x7DF DUP3 PUSH3 0x4D4 JUMP JUMPDEST SWAP2 POP PUSH32 0xFFFFFFFFFFFFFFFFFFFFFFFFFFFFFFFFFFFFFFFFFFFFFFFFFFFFFFFFFFFFFFFF DUP3 EQ ISZERO PUSH3 0x815 JUMPI PUSH3 0x814 PUSH3 0x7A3 JUMP JUMPDEST JUMPDEST PUSH1 0x1 DUP3 ADD SWAP1 POP SWAP2 SWAP1 POP JUMP JUMPDEST PUSH2 0x14E2 DUP1 PUSH3 0x830 PUSH1 0x0 CODECOPY PUSH1 0x0 RETURN INVALID PUSH1 0x80 PUSH1 0x40 MSTORE PUSH1 0x4 CALLDATASIZE LT PUSH2 0x7F JUMPI PUSH1 0x0 CALLDATALOAD PUSH1 0xE0 SHR DUP1 PUSH4 0x9ACE38C2 GT PUSH2 0x4E JUMPI DUP1 PUSH4 0x9ACE38C2 EQ PUSH2 0x1B9 JUMPI DUP1 PUSH4 0xB759F954 EQ PUSH2 0x1F9 JUMPI DUP1 PUSH4 0xDC8452CD EQ PUSH2 0x222 JUMPI DUP1 PUSH4 0xFE0D94C1 EQ PUSH2 0x24D JUMPI PUSH2 0xD4 JUMP JUMPDEST DUP1 PUSH4 0x25E7C27 EQ PUSH2 0xD9 JUMPI DUP1 PUSH4 0x14DE327F EQ PUSH2 0x116 JUMPI DUP1 PUSH4 0x2F54BF6E EQ PUSH2 0x13F JUMPI DUP1 PUSH4 0x8253951A EQ PUSH2 0x17C JUMPI PUSH2 0xD4 JUMP JUMPDEST CALLDATASIZE PUSH2 0xD4 JUMPI CALLER PUSH20 0xFFFFFFFFFFFFFFFFFFFFFFFFFFFFFFFFFFFFFFFF AND PUSH32 0xE1FFFCC4923D04B559F4D29A8BFC6CDA04EB5B0D3C460751C2402C5C5CC9109C CALLVALUE PUSH1 0x40 MLOAD PUSH2 0xCA SWAP2 SWAP1 PUSH2 0xC64 JUMP JUMPDEST PUSH1 0x40 MLOAD DUP1 SWAP2 SUB SWAP1 LOG2 STOP JUMPDEST PUSH1 0x0 DUP1 REVERT JUMPDEST CALLVALUE DUP1 ISZERO PUSH2 0xE5 JUMPI PUSH1 0x0 DUP1 REVERT JUMPDEST POP PUSH2 0x100 PUSH1 0x4 DUP1 CALLDATASIZE SUB DUP2 ADD SWAP1 PUSH2 0xFB SWAP2 SWAP1 PUSH2 0xCB5 JUMP JUMPDEST PUSH2 0x276 JUMP JUMPDEST PUSH1 0x40 MLOAD PUSH2 0x10D SWAP2 SWAP1 PUSH2 0xD23 JUMP JUMPDEST PUSH1 0x40 MLOAD DUP1 SWAP2 SUB SWAP1 RETURN JUMPDEST CALLVALUE DUP1 ISZERO PUSH2 0x122 JUMPI PUSH1 0x0 DUP1 REVERT JUMPDEST POP PUSH2 0x13D PUSH1 0x4 DUP1 CALLDATASIZE SUB DUP2 ADD SWAP1 PUSH2 0x138 SWAP2 SWAP1 PUSH2 0xDCF JUMP JUMPDEST PUSH2 0x2B5 JUMP JUMPDEST STOP JUMPDEST CALLVALUE DUP1 ISZERO PUSH2 0x14B JUMPI PUSH1 0x0 DUP1 REVERT JUMPDEST POP PUSH2 0x166 PUSH1 0x4 DUP1 CALLDATASIZE SUB DUP2 ADD SWAP1 PUSH2 0x161 SWAP2 SWAP1 PUSH2 0xE43 JUMP JUMPDEST PUSH2 0x4BE JUMP JUMPDEST PUSH1 0x40 MLOAD PUSH2 0x173 SWAP2 SWAP1 PUSH2 0xE8B JUMP JUMPDEST PUSH1 0x40 MLOAD DUP1 SWAP2 SUB SWAP1 RETURN JUMPDEST CALLVALUE DUP1 ISZERO PUSH2 0x188 JUMPI PUSH1 0x0 DUP1 REVERT JUMPDEST POP PUSH2 0x1A3 PUSH1 0x4 DUP1 CALLDATASIZE SUB DUP2 ADD SWAP1 PUSH2 0x19E SWAP2 SWAP1 PUSH2 0xEA6 JUMP JUMPDEST PUSH2 0x4DE JUMP JUMPDEST PUSH1 0x40 MLOAD PUSH2 0x1B0 SWAP2 SWAP1 PUSH2 0xE8B JUMP JUMPDEST PUSH1 0x40 MLOAD DUP1 SWAP2 SUB SWAP1 RETURN JUMPDEST CALLVALUE DUP1 ISZERO PUSH2 0x1C5 JUMPI PUSH1 0x0 DUP1 REVERT JUMPDEST POP PUSH2 0x1E0 PUSH1 0x4 DUP1 CALLDATASIZE SUB DUP2 ADD SWAP1 PUSH2 0x1DB SWAP2 SWAP1 PUSH2 0xCB5 JUMP JUMPDEST PUSH2 0x50D JUMP JUMPDEST PUSH1 0x40 MLOAD PUSH2 0x1F0 SWAP5 SWAP4 SWAP3 SWAP2 SWAP1 PUSH2 0xF7F JUMP JUMPDEST PUSH1 0x40 MLOAD DUP1 SWAP2 SUB SWAP1 RETURN JUMPDEST CALLVALUE DUP1 ISZERO PUSH2 0x205 JUMPI PUSH1 0x0 DUP1 REVERT JUMPDEST POP PUSH2 0x220 PUSH1 0x4 DUP1 CALLDATASIZE SUB DUP2 ADD SWAP1 PUSH2 0x21B SWAP2 SWAP1 PUSH2 0xCB5 JUMP JUMPDEST PUSH2 0x602 JUMP JUMPDEST STOP JUMPDEST CALLVALUE DUP1 ISZERO PUSH2 0x22E JUMPI PUSH1 0x0 DUP1 REVERT JUMPDEST POP PUSH2 0x237 PUSH2 0x89C JUMP JUMPDEST PUSH1 0x40 MLOAD PUSH2 0x244 SWAP2 SWAP1 PUSH2 0xC64 JUMP JUMPDEST PUSH1 0x40 MLOAD DUP1 SWAP2 SUB SWAP1 RETURN JUMPDEST CALLVALUE DUP1 ISZERO PUSH2 0x259 JUMPI PUSH1 0x0 DUP1 REVERT JUMPDEST POP PUSH2 0x274 PUSH1 0x4 DUP1 CALLDATASIZE SUB DUP2 ADD SWAP1 PUSH2 0x26F SWAP2 SWAP1 PUSH2 0xCB5 JUMP JUMPDEST PUSH2 0x8A2 JUMP JUMPDEST STOP JUMPDEST PUSH1 0x0 DUP2 DUP2 SLOAD DUP2 LT PUSH2 0x286 JUMPI PUSH1 0x0 DUP1 REVERT JUMPDEST SWAP1 PUSH1 0x0 MSTORE PUSH1 0x20 PUSH1 0x0 KECCAK256 ADD PUSH1 0x0 SWAP2 POP SLOAD SWAP1 PUSH2 0x100 EXP SWAP1 DIV PUSH20 0xFFFFFFFFFFFFFFFFFFFFFFFFFFFFFFFFFFFFFFFF AND DUP2 JUMP JUMPDEST PUSH1 0x1 PUSH1 0x0 CALLER PUSH20 0xFFFFFFFFFFFFFFFFFFFFFFFFFFFFFFFFFFFFFFFF AND PUSH20 0xFFFFFFFFFFFFFFFFFFFFFFFFFFFFFFFFFFFFFFFF AND DUP2 MSTORE PUSH1 0x20 ADD SWAP1 DUP2 MSTORE PUSH1 0x20 ADD PUSH1 0x0 KECCAK256 PUSH1 0x0 SWAP1 SLOAD SWAP1 PUSH2 0x100 EXP SWAP1 DIV PUSH1 0xFF AND PUSH2 0x341 JUMPI PUSH1 0x40 MLOAD PUSH32 0x8C379A000000000000000000000000000000000000000000000000000000000 DUP2 MSTORE PUSH1 0x4 ADD PUSH2 0x338 SWAP1 PUSH2 0x1028 JUMP JUMPDEST PUSH1 0x40 MLOAD DUP1 SWAP2 SUB SWAP1 REVERT JUMPDEST PUSH1 0x3 PUSH1 0x40 MLOAD DUP1 PUSH1 0x80 ADD PUSH1 0x40 MSTORE DUP1 DUP7 PUSH20 0xFFFFFFFFFFFFFFFFFFFFFFFFFFFFFFFFFFFFFFFF AND DUP2 MSTORE PUSH1 0x20 ADD DUP6 DUP2 MSTORE PUSH1 0x20 ADD DUP5 DUP5 DUP1 DUP1 PUSH1 0x1F ADD PUSH1 0x20 DUP1 SWAP2 DIV MUL PUSH1 0x20 ADD PUSH1 0x40 MLOAD SWAP1 DUP2 ADD PUSH1 0x40 MSTORE DUP1 SWAP4 SWAP3 SWAP2 SWAP1 DUP2 DUP2 MSTORE PUSH1 0x20 ADD DUP4 DUP4 DUP1 DUP3 DUP5 CALLDATACOPY PUSH1 0x0 DUP2 DUP5 ADD MSTORE PUSH1 0x1F NOT PUSH1 0x1F DUP3 ADD AND SWAP1 POP DUP1 DUP4 ADD SWAP3 POP POP POP POP POP POP POP DUP2 MSTORE PUSH1 0x20 ADD PUSH1 0x0 ISZERO ISZERO DUP2 MSTORE POP SWAP1 DUP1 PUSH1 0x1 DUP2 SLOAD ADD DUP1 DUP3 SSTORE DUP1 SWAP2 POP POP PUSH1 0x1 SWAP1 SUB SWAP1 PUSH1 0x0 MSTORE PUSH1 0x20 PUSH1 0x0 KECCAK256 SWAP1 PUSH1 0x4 MUL ADD PUSH1 0x0 SWAP1 SWAP2 SWAP1 SWAP2 SWAP1 SWAP2 POP PUSH1 0x0 DUP3 ADD MLOAD DUP2 PUSH1 0x0 ADD PUSH1 0x0 PUSH2 0x100 EXP DUP2 SLOAD DUP2 PUSH20 0xFFFFFFFFFFFFFFFFFFFFFFFFFFFFFFFFFFFFFFFF MUL NOT AND SWAP1 DUP4 PUSH20 0xFFFFFFFFFFFFFFFFFFFFFFFFFFFFFFFFFFFFFFFF AND MUL OR SWAP1 SSTORE POP PUSH1 0x20 DUP3 ADD MLOAD DUP2 PUSH1 0x1 ADD SSTORE PUSH1 0x40 DUP3 ADD MLOAD DUP2 PUSH1 0x2 ADD SWAP1 DUP1 MLOAD SWAP1 PUSH1 0x20 ADD SWAP1 PUSH2 0x457 SWAP3 SWAP2 SWAP1 PUSH2 0xBA8 JUMP JUMPDEST POP PUSH1 0x60 DUP3 ADD MLOAD DUP2 PUSH1 0x3 ADD PUSH1 0x0 PUSH2 0x100 EXP DUP2 SLOAD DUP2 PUSH1 0xFF MUL NOT AND SWAP1 DUP4 ISZERO ISZERO MUL OR SWAP1 SSTORE POP POP POP PUSH1 0x1 PUSH1 0x3 DUP1 SLOAD SWAP1 POP PUSH2 0x48C SWAP2 SWAP1 PUSH2 0x1077 JUMP JUMPDEST PUSH32 0x8324B3D745B914E3ABD4FFBFEAD91E3B78391A98C173202129215AB933ADFBE PUSH1 0x40 MLOAD PUSH1 0x40 MLOAD DUP1 SWAP2 SUB SWAP1 LOG2 POP POP POP POP JUMP JUMPDEST PUSH1 0x1 PUSH1 0x20 MSTORE DUP1 PUSH1 0x0 MSTORE PUSH1 0x40 PUSH1 0x0 KECCAK256 PUSH1 0x0 SWAP2 POP SLOAD SWAP1 PUSH2 0x100 EXP SWAP1 DIV PUSH1 0xFF AND DUP2 JUMP JUMPDEST PUSH1 0x4 PUSH1 0x20 MSTORE DUP2 PUSH1 0x0 MSTORE PUSH1 0x40 PUSH1 0x0 KECCAK256 PUSH1 0x20 MSTORE DUP1 PUSH1 0x0 MSTORE PUSH1 0x40 PUSH1 0x0 KECCAK256 PUSH1 0x0 SWAP2 POP SWAP2 POP SWAP1 SLOAD SWAP1 PUSH2 0x100 EXP SWAP1 DIV PUSH1 0xFF AND DUP2 JUMP JUMPDEST PUSH1 0x3 DUP2 DUP2 SLOAD DUP2 LT PUSH2 0x51D JUMPI PUSH1 0x0 DUP1 REVERT JUMPDEST SWAP1 PUSH1 0x0 MSTORE PUSH1 0x20 PUSH1 0x0 KECCAK256 SWAP1 PUSH1 0x4 MUL ADD PUSH1 0x0 SWAP2 POP SWAP1 POP DUP1 PUSH1 0x0 ADD PUSH1 0x0 SWAP1 SLOAD SWAP1 PUSH2 0x100 EXP SWAP1 DIV PUSH20 0xFFFFFFFFFFFFFFFFFFFFFFFFFFFFFFFFFFFFFFFF AND SWAP1 DUP1 PUSH1 0x1 ADD SLOAD SWAP1 DUP1 PUSH1 0x2 ADD DUP1 SLOAD PUSH2 0x56C SWAP1 PUSH2 0x10DA JUMP JUMPDEST DUP1 PUSH1 0x1F ADD PUSH1 0x20 DUP1 SWAP2 DIV MUL PUSH1 0x20 ADD PUSH1 0x40 MLOAD SWAP1 DUP2 ADD PUSH1 0x40 MSTORE DUP1 SWAP3 SWAP2 SWAP1 DUP2 DUP2 MSTORE PUSH1 0x20 ADD DUP3 DUP1 SLOAD PUSH2 0x598 SWAP1 PUSH2 0x10DA JUMP JUMPDEST DUP1 ISZERO PUSH2 0x5E5 JUMPI DUP1 PUSH1 0x1F LT PUSH2 0x5BA JUMPI PUSH2 0x100 DUP1 DUP4 SLOAD DIV MUL DUP4 MSTORE SWAP2 PUSH1 0x20 ADD SWAP2 PUSH2 0x5E5 JUMP JUMPDEST DUP3 ADD SWAP2 SWAP1 PUSH1 0x0 MSTORE PUSH1 0x20 PUSH1 0x0 KECCAK256 SWAP1 JUMPDEST DUP2 SLOAD DUP2 MSTORE SWAP1 PUSH1 0x1 ADD SWAP1 PUSH1 0x20 ADD DUP1 DUP4 GT PUSH2 0x5C8 JUMPI DUP3 SWAP1 SUB PUSH1 0x1F AND DUP3 ADD SWAP2 JUMPDEST POP POP POP POP POP SWAP1 DUP1 PUSH1 0x3 ADD PUSH1 0x0 SWAP1 SLOAD SWAP1 PUSH2 0x100 EXP SWAP1 DIV PUSH1 0xFF AND SWAP1 POP DUP5 JUMP JUMPDEST PUSH1 0x1 PUSH1 0x0 CALLER PUSH20 0xFFFFFFFFFFFFFFFFFFFFFFFFFFFFFFFFFFFFFFFF AND PUSH20 0xFFFFFFFFFFFFFFFFFFFFFFFFFFFFFFFFFFFFFFFF AND DUP2 MSTORE PUSH1 0x20 ADD SWAP1 DUP2 MSTORE PUSH1 0x20 ADD PUSH1 0x0 KECCAK256 PUSH1 0x0 SWAP1 SLOAD SWAP1 PUSH2 0x100 EXP SWAP1 DIV PUSH1 0xFF AND PUSH2 0x68E JUMPI PUSH1 0x40 MLOAD PUSH32 0x8C379A000000000000000000000000000000000000000000000000000000000 DUP2 MSTORE PUSH1 0x4 ADD PUSH2 0x685 SWAP1 PUSH2 0x1028 JUMP JUMPDEST PUSH1 0x40 MLOAD DUP1 SWAP2 SUB SWAP1 REVERT JUMPDEST DUP1 DUP1 PUSH1 0x3 DUP1 SLOAD SWAP1 POP LT PUSH2 0x6D6 JUMPI PUSH1 0x40 MLOAD PUSH32 0x8C379A000000000000000000000000000000000000000000000000000000000 DUP2 MSTORE PUSH1 0x4 ADD PUSH2 0x6CD SWAP1 PUSH2 0x1158 JUMP JUMPDEST PUSH1 0x40 MLOAD DUP1 SWAP2 SUB SWAP1 REVERT JUMPDEST DUP2 PUSH1 0x4 PUSH1 0x0 DUP3 DUP2 MSTORE PUSH1 0x20 ADD SWAP1 DUP2 MSTORE PUSH1 0x20 ADD PUSH1 0x0 KECCAK256 PUSH1 0x0 CALLER PUSH20 0xFFFFFFFFFFFFFFFFFFFFFFFFFFFFFFFFFFFFFFFF AND PUSH20 0xFFFFFFFFFFFFFFFFFFFFFFFFFFFFFFFFFFFFFFFF AND DUP2 MSTORE PUSH1 0x20 ADD SWAP1 DUP2 MSTORE PUSH1 0x20 ADD PUSH1 0x0 KECCAK256 PUSH1 0x0 SWAP1 SLOAD SWAP1 PUSH2 0x100 EXP SWAP1 DIV PUSH1 0xFF AND ISZERO PUSH2 0x775 JUMPI PUSH1 0x40 MLOAD PUSH32 0x8C379A000000000000000000000000000000000000000000000000000000000 DUP2 MSTORE PUSH1 0x4 ADD PUSH2 0x76C SWAP1 PUSH2 0x11C4 JUMP JUMPDEST PUSH1 0x40 MLOAD DUP1 SWAP2 SUB SWAP1 REVERT JUMPDEST DUP3 PUSH1 0x3 DUP2 DUP2 SLOAD DUP2 LT PUSH2 0x78A JUMPI PUSH2 0x789 PUSH2 0x11E4 JUMP JUMPDEST JUMPDEST SWAP1 PUSH1 0x0 MSTORE PUSH1 0x20 PUSH1 0x0 KECCAK256 SWAP1 PUSH1 0x4 MUL ADD PUSH1 0x3 ADD PUSH1 0x0 SWAP1 SLOAD SWAP1 PUSH2 0x100 EXP SWAP1 DIV PUSH1 0xFF AND ISZERO PUSH2 0x7E9 JUMPI PUSH1 0x40 MLOAD PUSH32 0x8C379A000000000000000000000000000000000000000000000000000000000 DUP2 MSTORE PUSH1 0x4 ADD PUSH2 0x7E0 SWAP1 PUSH2 0x125F JUMP JUMPDEST PUSH1 0x40 MLOAD DUP1 SWAP2 SUB SWAP1 REVERT JUMPDEST PUSH1 0x1 PUSH1 0x4 PUSH1 0x0 DUP7 DUP2 MSTORE PUSH1 0x20 ADD SWAP1 DUP2 MSTORE PUSH1 0x20 ADD PUSH1 0x0 KECCAK256 PUSH1 0x0 CALLER PUSH20 0xFFFFFFFFFFFFFFFFFFFFFFFFFFFFFFFFFFFFFFFF AND PUSH20 0xFFFFFFFFFFFFFFFFFFFFFFFFFFFFFFFFFFFFFFFF AND DUP2 MSTORE PUSH1 0x20 ADD SWAP1 DUP2 MSTORE PUSH1 0x20 ADD PUSH1 0x0 KECCAK256 PUSH1 0x0 PUSH2 0x100 EXP DUP2 SLOAD DUP2 PUSH1 0xFF MUL NOT AND SWAP1 DUP4 ISZERO ISZERO MUL OR SWAP1 SSTORE POP DUP4 CALLER PUSH20 0xFFFFFFFFFFFFFFFFFFFFFFFFFFFFFFFFFFFFFFFF AND PUSH32 0x90EC57F18FA7B15C6B8D5E4D1DEB90796C74B2FF23D4D0CECAD0CB42A96B3128 PUSH1 0x40 MLOAD PUSH1 0x40 MLOAD DUP1 SWAP2 SUB SWAP1 LOG3 POP POP POP POP JUMP JUMPDEST PUSH1 0x2 SLOAD DUP2 JUMP JUMPDEST DUP1 DUP1 PUSH1 0x3 DUP1 SLOAD SWAP1 POP LT PUSH2 0x8EA JUMPI PUSH1 0x40 MLOAD PUSH32 0x8C379A000000000000000000000000000000000000000000000000000000000 DUP2 MSTORE PUSH1 0x4 ADD PUSH2 0x8E1 SWAP1 PUSH2 0x1158 JUMP JUMPDEST PUSH1 0x40 MLOAD DUP1 SWAP2 SUB SWAP1 REVERT JUMPDEST DUP2 PUSH1 0x3 DUP2 DUP2 SLOAD DUP2 LT PUSH2 0x8FF JUMPI PUSH2 0x8FE PUSH2 0x11E4 JUMP JUMPDEST JUMPDEST SWAP1 PUSH1 0x0 MSTORE PUSH1 0x20 PUSH1 0x0 KECCAK256 SWAP1 PUSH1 0x4 MUL ADD PUSH1 0x3 ADD PUSH1 0x0 SWAP1 SLOAD SWAP1 PUSH2 0x100 EXP SWAP1 DIV PUSH1 0xFF AND ISZERO PUSH2 0x95E JUMPI PUSH1 0x40 MLOAD PUSH32 0x8C379A000000000000000000000000000000000000000000000000000000000 DUP2 MSTORE PUSH1 0x4 ADD PUSH2 0x955 SWAP1 PUSH2 0x125F JUMP JUMPDEST PUSH1 0x40 MLOAD DUP1 SWAP2 SUB SWAP1 REVERT JUMPDEST PUSH1 0x2 SLOAD PUSH2 0x96A DUP5 PUSH2 0xACE JUMP JUMPDEST LT ISZERO PUSH2 0x9AB JUMPI PUSH1 0x40 MLOAD PUSH32 0x8C379A000000000000000000000000000000000000000000000000000000000 DUP2 MSTORE PUSH1 0x4 ADD PUSH2 0x9A2 SWAP1 PUSH2 0x12CB JUMP JUMPDEST PUSH1 0x40 MLOAD DUP1 SWAP2 SUB SWAP1 REVERT JUMPDEST PUSH1 0x0 PUSH1 0x3 DUP5 DUP2 SLOAD DUP2 LT PUSH2 0x9C1 JUMPI PUSH2 0x9C0 PUSH2 0x11E4 JUMP JUMPDEST JUMPDEST SWAP1 PUSH1 0x0 MSTORE PUSH1 0x20 PUSH1 0x0 KECCAK256 SWAP1 PUSH1 0x4 MUL ADD SWAP1 POP PUSH1 0x1 DUP2 PUSH1 0x3 ADD PUSH1 0x0 PUSH2 0x100 EXP DUP2 SLOAD DUP2 PUSH1 0xFF MUL NOT AND SWAP1 DUP4 ISZERO ISZERO MUL OR SWAP1 SSTORE POP PUSH1 0x0 DUP2 PUSH1 0x0 ADD PUSH1 0x0 SWAP1 SLOAD SWAP1 PUSH2 0x100 EXP SWAP1 DIV PUSH20 0xFFFFFFFFFFFFFFFFFFFFFFFFFFFFFFFFFFFFFFFF AND PUSH20 0xFFFFFFFFFFFFFFFFFFFFFFFFFFFFFFFFFFFFFFFF AND DUP3 PUSH1 0x1 ADD SLOAD DUP4 PUSH1 0x2 ADD PUSH1 0x40 MLOAD PUSH2 0xA41 SWAP2 SWAP1 PUSH2 0x138A JUMP JUMPDEST PUSH1 0x0 PUSH1 0x40 MLOAD DUP1 DUP4 SUB DUP2 DUP6 DUP8 GAS CALL SWAP3 POP POP POP RETURNDATASIZE DUP1 PUSH1 0x0 DUP2 EQ PUSH2 0xA7E JUMPI PUSH1 0x40 MLOAD SWAP2 POP PUSH1 0x1F NOT PUSH1 0x3F RETURNDATASIZE ADD AND DUP3 ADD PUSH1 0x40 MSTORE RETURNDATASIZE DUP3 MSTORE RETURNDATASIZE PUSH1 0x0 PUSH1 0x20 DUP5 ADD RETURNDATACOPY PUSH2 0xA83 JUMP JUMPDEST PUSH1 0x60 SWAP2 POP JUMPDEST POP POP SWAP1 POP DUP1 PUSH2 0xAC7 JUMPI PUSH1 0x40 MLOAD PUSH32 0x8C379A000000000000000000000000000000000000000000000000000000000 DUP2 MSTORE PUSH1 0x4 ADD PUSH2 0xABE SWAP1 PUSH2 0x13ED JUMP JUMPDEST PUSH1 0x40 MLOAD DUP1 SWAP2 SUB SWAP1 REVERT JUMPDEST POP POP POP POP POP JUMP JUMPDEST PUSH1 0x0 DUP1 JUMPDEST PUSH1 0x0 DUP1 SLOAD SWAP1 POP DUP2 LT ISZERO PUSH2 0xBA2 JUMPI PUSH1 0x4 PUSH1 0x0 DUP5 DUP2 MSTORE PUSH1 0x20 ADD SWAP1 DUP2 MSTORE PUSH1 0x20 ADD PUSH1 0x0 KECCAK256 PUSH1 0x0 DUP1 DUP4 DUP2 SLOAD DUP2 LT PUSH2 0xB07 JUMPI PUSH2 0xB06 PUSH2 0x11E4 JUMP JUMPDEST JUMPDEST SWAP1 PUSH1 0x0 MSTORE PUSH1 0x20 PUSH1 0x0 KECCAK256 ADD PUSH1 0x0 SWAP1 SLOAD SWAP1 PUSH2 0x100 EXP SWAP1 DIV PUSH20 0xFFFFFFFFFFFFFFFFFFFFFFFFFFFFFFFFFFFFFFFF AND PUSH20 0xFFFFFFFFFFFFFFFFFFFFFFFFFFFFFFFFFFFFFFFF AND PUSH20 0xFFFFFFFFFFFFFFFFFFFFFFFFFFFFFFFFFFFFFFFF AND DUP2 MSTORE PUSH1 0x20 ADD SWAP1 DUP2 MSTORE PUSH1 0x20 ADD PUSH1 0x0 KECCAK256 PUSH1 0x0 SWAP1 SLOAD SWAP1 PUSH2 0x100 EXP SWAP1 DIV PUSH1 0xFF AND ISZERO PUSH2 0xB8F JUMPI PUSH1 0x1 DUP3 PUSH2 0xB8C SWAP2 SWAP1 PUSH2 0x140D JUMP JUMPDEST SWAP2 POP JUMPDEST DUP1 DUP1 PUSH2 0xB9A SWAP1 PUSH2 0x1463 JUMP JUMPDEST SWAP2 POP POP PUSH2 0xAD2 JUMP JUMPDEST POP SWAP2 SWAP1 POP JUMP JUMPDEST DUP3 DUP1 SLOAD PUSH2 0xBB4 SWAP1 PUSH2 0x10DA JUMP JUMPDEST SWAP1 PUSH1 0x0 MSTORE PUSH1 0x20 PUSH1 0x0 KECCAK256 SWAP1 PUSH1 0x1F ADD PUSH1 0x20 SWAP1 DIV DUP2 ADD SWAP3 DUP3 PUSH2 0xBD6 JUMPI PUSH1 0x0 DUP6 SSTORE PUSH2 0xC1D JUMP JUMPDEST DUP3 PUSH1 0x1F LT PUSH2 0xBEF JUMPI DUP1 MLOAD PUSH1 0xFF NOT AND DUP4 DUP1 ADD OR DUP6 SSTORE PUSH2 0xC1D JUMP JUMPDEST DUP3 DUP1 ADD PUSH1 0x1 ADD DUP6 SSTORE DUP3 ISZERO PUSH2 0xC1D JUMPI SWAP2 DUP3 ADD JUMPDEST DUP3 DUP2 GT ISZERO PUSH2 0xC1C JUMPI DUP3 MLOAD DUP3 SSTORE SWAP2 PUSH1 0x20 ADD SWAP2 SWAP1 PUSH1 0x1 ADD SWAP1 PUSH2 0xC01 JUMP JUMPDEST JUMPDEST POP SWAP1 POP PUSH2 0xC2A SWAP2 SWAP1 PUSH2 0xC2E JUMP JUMPDEST POP SWAP1 JUMP JUMPDEST JUMPDEST DUP1 DUP3 GT ISZERO PUSH2 0xC47 JUMPI PUSH1 0x0 DUP2 PUSH1 0x0 SWAP1 SSTORE POP PUSH1 0x1 ADD PUSH2 0xC2F JUMP JUMPDEST POP SWAP1 JUMP JUMPDEST PUSH1 0x0 DUP2 SWAP1 POP SWAP2 SWAP1 POP JUMP JUMPDEST PUSH2 0xC5E DUP2 PUSH2 0xC4B JUMP JUMPDEST DUP3 MSTORE POP POP JUMP JUMPDEST PUSH1 0x0 PUSH1 0x20 DUP3 ADD SWAP1 POP PUSH2 0xC79 PUSH1 0x0 DUP4 ADD DUP5 PUSH2 0xC55 JUMP JUMPDEST SWAP3 SWAP2 POP POP JUMP JUMPDEST PUSH1 0x0 DUP1 REVERT JUMPDEST PUSH1 0x0 DUP1 REVERT JUMPDEST PUSH2 0xC92 DUP2 PUSH2 0xC4B JUMP JUMPDEST DUP2 EQ PUSH2 0xC9D JUMPI PUSH1 0x0 DUP1 REVERT JUMPDEST POP JUMP JUMPDEST PUSH1 0x0 DUP2 CALLDATALOAD SWAP1 POP PUSH2 0xCAF DUP2 PUSH2 0xC89 JUMP JUMPDEST SWAP3 SWAP2 POP POP JUMP JUMPDEST PUSH1 0x0 PUSH1 0x20 DUP3 DUP5 SUB SLT ISZERO PUSH2 0xCCB JUMPI PUSH2 0xCCA PUSH2 0xC7F JUMP JUMPDEST JUMPDEST PUSH1 0x0 PUSH2 0xCD9 DUP5 DUP3 DUP6 ADD PUSH2 0xCA0 JUMP JUMPDEST SWAP2 POP POP SWAP3 SWAP2 POP POP JUMP JUMPDEST PUSH1 0x0 PUSH20 0xFFFFFFFFFFFFFFFFFFFFFFFFFFFFFFFFFFFFFFFF DUP3 AND SWAP1 POP SWAP2 SWAP1 POP JUMP JUMPDEST PUSH1 0x0 PUSH2 0xD0D DUP3 PUSH2 0xCE2 JUMP JUMPDEST SWAP1 POP SWAP2 SWAP1 POP JUMP JUMPDEST PUSH2 0xD1D DUP2 PUSH2 0xD02 JUMP JUMPDEST DUP3 MSTORE POP POP JUMP JUMPDEST PUSH1 0x0 PUSH1 0x20 DUP3 ADD SWAP1 POP PUSH2 0xD38 PUSH1 0x0 DUP4 ADD DUP5 PUSH2 0xD14 JUMP JUMPDEST SWAP3 SWAP2 POP POP JUMP JUMPDEST PUSH2 0xD47 DUP2 PUSH2 0xD02 JUMP JUMPDEST DUP2 EQ PUSH2 0xD52 JUMPI PUSH1 0x0 DUP1 REVERT JUMPDEST POP JUMP JUMPDEST PUSH1 0x0 DUP2 CALLDATALOAD SWAP1 POP PUSH2 0xD64 DUP2 PUSH2 0xD3E JUMP JUMPDEST SWAP3 SWAP2 POP POP JUMP JUMPDEST PUSH1 0x0 DUP1 REVERT JUMPDEST PUSH1 0x0 DUP1 REVERT JUMPDEST PUSH1 0x0 DUP1 REVERT JUMPDEST PUSH1 0x0 DUP1 DUP4 PUSH1 0x1F DUP5 ADD SLT PUSH2 0xD8F JUMPI PUSH2 0xD8E PUSH2 0xD6A JUMP JUMPDEST JUMPDEST DUP3 CALLDATALOAD SWAP1 POP PUSH8 0xFFFFFFFFFFFFFFFF DUP2 GT ISZERO PUSH2 0xDAC JUMPI PUSH2 0xDAB PUSH2 0xD6F JUMP JUMPDEST JUMPDEST PUSH1 0x20 DUP4 ADD SWAP2 POP DUP4 PUSH1 0x1 DUP3 MUL DUP4 ADD GT ISZERO PUSH2 0xDC8 JUMPI PUSH2 0xDC7 PUSH2 0xD74 JUMP JUMPDEST JUMPDEST SWAP3 POP SWAP3 SWAP1 POP JUMP JUMPDEST PUSH1 0x0 DUP1 PUSH1 0x0 DUP1 PUSH1 0x60 DUP6 DUP8 SUB SLT ISZERO PUSH2 0xDE9 JUMPI PUSH2 0xDE8 PUSH2 0xC7F JUMP JUMPDEST JUMPDEST PUSH1 0x0 PUSH2 0xDF7 DUP8 DUP3 DUP9 ADD PUSH2 0xD55 JUMP JUMPDEST SWAP5 POP POP PUSH1 0x20 PUSH2 0xE08 DUP8 DUP3 DUP9 ADD PUSH2 0xCA0 JUMP JUMPDEST SWAP4 POP POP PUSH1 0x40 DUP6 ADD CALLDATALOAD PUSH8 0xFFFFFFFFFFFFFFFF DUP2 GT ISZERO PUSH2 0xE29 JUMPI PUSH2 0xE28 PUSH2 0xC84 JUMP JUMPDEST JUMPDEST PUSH2 0xE35 DUP8 DUP3 DUP9 ADD PUSH2 0xD79 JUMP JUMPDEST SWAP3 POP SWAP3 POP POP SWAP3 SWAP6 SWAP2 SWAP5 POP SWAP3 POP JUMP JUMPDEST PUSH1 0x0 PUSH1 0x20 DUP3 DUP5 SUB SLT ISZERO PUSH2 0xE59 JUMPI PUSH2 0xE58 PUSH2 0xC7F JUMP JUMPDEST JUMPDEST PUSH1 0x0 PUSH2 0xE67 DUP5 DUP3 DUP6 ADD PUSH2 0xD55 JUMP JUMPDEST SWAP2 POP POP SWAP3 SWAP2 POP POP JUMP JUMPDEST PUSH1 0x0 DUP2 ISZERO ISZERO SWAP1 POP SWAP2 SWAP1 POP JUMP JUMPDEST PUSH2 0xE85 DUP2 PUSH2 0xE70 JUMP JUMPDEST DUP3 MSTORE POP POP JUMP JUMPDEST PUSH1 0x0 PUSH1 0x20 DUP3 ADD SWAP1 POP PUSH2 0xEA0 PUSH1 0x0 DUP4 ADD DUP5 PUSH2 0xE7C JUMP JUMPDEST SWAP3 SWAP2 POP POP JUMP JUMPDEST PUSH1 0x0 DUP1 PUSH1 0x40 DUP4 DUP6 SUB SLT ISZERO PUSH2 0xEBD JUMPI PUSH2 0xEBC PUSH2 0xC7F JUMP JUMPDEST JUMPDEST PUSH1 0x0 PUSH2 0xECB DUP6 DUP3 DUP7 ADD PUSH2 0xCA0 JUMP JUMPDEST SWAP3 POP POP PUSH1 0x20 PUSH2 0xEDC DUP6 DUP3 DUP7 ADD PUSH2 0xD55 JUMP JUMPDEST SWAP2 POP POP SWAP3 POP SWAP3 SWAP1 POP JUMP JUMPDEST PUSH1 0x0 DUP2 MLOAD SWAP1 POP SWAP2 SWAP1 POP JUMP JUMPDEST PUSH1 0x0 DUP3 DUP3 MSTORE PUSH1 0x20 DUP3 ADD SWAP1 POP SWAP3 SWAP2 POP POP JUMP JUMPDEST PUSH1 0x0 JUMPDEST DUP4 DUP2 LT ISZERO PUSH2 0xF20 JUMPI DUP1 DUP3 ADD MLOAD DUP2 DUP5 ADD MSTORE PUSH1 0x20 DUP2 ADD SWAP1 POP PUSH2 0xF05 JUMP JUMPDEST DUP4 DUP2 GT ISZERO PUSH2 0xF2F JUMPI PUSH1 0x0 DUP5 DUP5 ADD MSTORE JUMPDEST POP POP POP POP JUMP JUMPDEST PUSH1 0x0 PUSH1 0x1F NOT PUSH1 0x1F DUP4 ADD AND SWAP1 POP SWAP2 SWAP1 POP JUMP JUMPDEST PUSH1 0x0 PUSH2 0xF51 DUP3 PUSH2 0xEE6 JUMP JUMPDEST PUSH2 0xF5B DUP2 DUP6 PUSH2 0xEF1 JUMP JUMPDEST SWAP4 POP PUSH2 0xF6B DUP2 DUP6 PUSH1 0x20 DUP7 ADD PUSH2 0xF02 JUMP JUMPDEST PUSH2 0xF74 DUP2 PUSH2 0xF35 JUMP JUMPDEST DUP5 ADD SWAP2 POP POP SWAP3 SWAP2 POP POP JUMP JUMPDEST PUSH1 0x0 PUSH1 0x80 DUP3 ADD SWAP1 POP PUSH2 0xF94 PUSH1 0x0 DUP4 ADD DUP8 PUSH2 0xD14 JUMP JUMPDEST PUSH2 0xFA1 PUSH1 0x20 DUP4 ADD DUP7 PUSH2 0xC55 JUMP JUMPDEST DUP2 DUP2 SUB PUSH1 0x40 DUP4 ADD MSTORE PUSH2 0xFB3 DUP2 DUP6 PUSH2 0xF46 JUMP JUMPDEST SWAP1 POP PUSH2 0xFC2 PUSH1 0x60 DUP4 ADD DUP5 PUSH2 0xE7C JUMP JUMPDEST SWAP6 SWAP5 POP POP POP POP POP JUMP JUMPDEST PUSH1 0x0 DUP3 DUP3 MSTORE PUSH1 0x20 DUP3 ADD SWAP1 POP SWAP3 SWAP2 POP POP JUMP JUMPDEST PUSH32 0x6E6F74206F776E65720000000000000000000000000000000000000000000000 PUSH1 0x0 DUP3 ADD MSTORE POP JUMP JUMPDEST PUSH1 0x0 PUSH2 0x1012 PUSH1 0x9 DUP4 PUSH2 0xFCB JUMP JUMPDEST SWAP2 POP PUSH2 0x101D DUP3 PUSH2 0xFDC JUMP JUMPDEST PUSH1 0x20 DUP3 ADD SWAP1 POP SWAP2 SWAP1 POP JUMP JUMPDEST PUSH1 0x0 PUSH1 0x20 DUP3 ADD SWAP1 POP DUP2 DUP2 SUB PUSH1 0x0 DUP4 ADD MSTORE PUSH2 0x1041 DUP2 PUSH2 0x1005 JUMP JUMPDEST SWAP1 POP SWAP2 SWAP1 POP JUMP JUMPDEST PUSH32 0x4E487B7100000000000000000000000000000000000000000000000000000000 PUSH1 0x0 MSTORE PUSH1 0x11 PUSH1 0x4 MSTORE PUSH1 0x24 PUSH1 0x0 REVERT JUMPDEST PUSH1 0x0 PUSH2 0x1082 DUP3 PUSH2 0xC4B JUMP JUMPDEST SWAP2 POP PUSH2 0x108D DUP4 PUSH2 0xC4B JUMP JUMPDEST SWAP3 POP DUP3 DUP3 LT ISZERO PUSH2 0x10A0 JUMPI PUSH2 0x109F PUSH2 0x1048 JUMP JUMPDEST JUMPDEST DUP3 DUP3 SUB SWAP1 POP SWAP3 SWAP2 POP POP JUMP JUMPDEST PUSH32 0x4E487B7100000000000000000000000000000000000000000000000000000000 PUSH1 0x0 MSTORE PUSH1 0x22 PUSH1 0x4 MSTORE PUSH1 0x24 PUSH1 0x0 REVERT JUMPDEST PUSH1 0x0 PUSH1 0x2 DUP3 DIV SWAP1 POP PUSH1 0x1 DUP3 AND DUP1 PUSH2 0x10F2 JUMPI PUSH1 0x7F DUP3 AND SWAP2 POP JUMPDEST PUSH1 0x20 DUP3 LT DUP2 EQ ISZERO PUSH2 0x1106 JUMPI PUSH2 0x1105 PUSH2 0x10AB JUMP JUMPDEST JUMPDEST POP SWAP2 SWAP1 POP JUMP JUMPDEST PUSH32 0x747820646F6573206E6F74206578697374000000000000000000000000000000 PUSH1 0x0 DUP3 ADD MSTORE POP JUMP JUMPDEST PUSH1 0x0 PUSH2 0x1142 PUSH1 0x11 DUP4 PUSH2 0xFCB JUMP JUMPDEST SWAP2 POP PUSH2 0x114D DUP3 PUSH2 0x110C JUMP JUMPDEST PUSH1 0x20 DUP3 ADD SWAP1 POP SWAP2 SWAP1 POP JUMP JUMPDEST PUSH1 0x0 PUSH1 0x20 DUP3 ADD SWAP1 POP DUP2 DUP2 SUB PUSH1 0x0 DUP4 ADD MSTORE PUSH2 0x1171 DUP2 PUSH2 0x1135 JUMP JUMPDEST SWAP1 POP SWAP2 SWAP1 POP JUMP JUMPDEST PUSH32 0x747820616C726561647920617070726F76656400000000000000000000000000 PUSH1 0x0 DUP3 ADD MSTORE POP JUMP JUMPDEST PUSH1 0x0 PUSH2 0x11AE PUSH1 0x13 DUP4 PUSH2 0xFCB JUMP JUMPDEST SWAP2 POP PUSH2 0x11B9 DUP3 PUSH2 0x1178 JUMP JUMPDEST PUSH1 0x20 DUP3 ADD SWAP1 POP SWAP2 SWAP1 POP JUMP JUMPDEST PUSH1 0x0 PUSH1 0x20 DUP3 ADD SWAP1 POP DUP2 DUP2 SUB PUSH1 0x0 DUP4 ADD MSTORE PUSH2 0x11DD DUP2 PUSH2 0x11A1 JUMP JUMPDEST SWAP1 POP SWAP2 SWAP1 POP JUMP JUMPDEST PUSH32 0x4E487B7100000000000000000000000000000000000000000000000000000000 PUSH1 0x0 MSTORE PUSH1 0x32 PUSH1 0x4 MSTORE PUSH1 0x24 PUSH1 0x0 REVERT JUMPDEST PUSH32 0x747820616C726561647920657865637574656400000000000000000000000000 PUSH1 0x0 DUP3 ADD MSTORE POP JUMP JUMPDEST PUSH1 0x0 PUSH2 0x1249 PUSH1 0x13 DUP4 PUSH2 0xFCB JUMP JUMPDEST SWAP2 POP PUSH2 0x1254 DUP3 PUSH2 0x1213 JUMP JUMPDEST PUSH1 0x20 DUP3 ADD SWAP1 POP SWAP2 SWAP1 POP JUMP JUMPDEST PUSH1 0x0 PUSH1 0x20 DUP3 ADD SWAP1 POP DUP2 DUP2 SUB PUSH1 0x0 DUP4 ADD MSTORE PUSH2 0x1278 DUP2 PUSH2 0x123C JUMP JUMPDEST SWAP1 POP SWAP2 SWAP1 POP JUMP JUMPDEST PUSH32 0x7472616E73616374696F6E206C657373207468616E2072657175697265640000 PUSH1 0x0 DUP3 ADD MSTORE POP JUMP JUMPDEST PUSH1 0x0 PUSH2 0x12B5 PUSH1 0x1E DUP4 PUSH2 0xFCB JUMP JUMPDEST SWAP2 POP PUSH2 0x12C0 DUP3 PUSH2 0x127F JUMP JUMPDEST PUSH1 0x20 DUP3 ADD SWAP1 POP SWAP2 SWAP1 POP JUMP JUMPDEST PUSH1 0x0 PUSH1 0x20 DUP3 ADD SWAP1 POP DUP2 DUP2 SUB PUSH1 0x0 DUP4 ADD MSTORE PUSH2 0x12E4 DUP2 PUSH2 0x12A8 JUMP JUMPDEST SWAP1 POP SWAP2 SWAP1 POP JUMP JUMPDEST PUSH1 0x0 DUP2 SWAP1 POP SWAP3 SWAP2 POP POP JUMP JUMPDEST PUSH1 0x0 DUP2 SWAP1 POP DUP2 PUSH1 0x0 MSTORE PUSH1 0x20 PUSH1 0x0 KECCAK256 SWAP1 POP SWAP2 SWAP1 POP JUMP JUMPDEST PUSH1 0x0 DUP2 SLOAD PUSH2 0x1318 DUP2 PUSH2 0x10DA JUMP JUMPDEST PUSH2 0x1322 DUP2 DUP7 PUSH2 0x12EB JUMP JUMPDEST SWAP5 POP PUSH1 0x1 DUP3 AND PUSH1 0x0 DUP2 EQ PUSH2 0x133D JUMPI PUSH1 0x1 DUP2 EQ PUSH2 0x134E JUMPI PUSH2 0x1381 JUMP JUMPDEST PUSH1 0xFF NOT DUP4 AND DUP7 MSTORE DUP2 DUP7 ADD SWAP4 POP PUSH2 0x1381 JUMP JUMPDEST PUSH2 0x1357 DUP6 PUSH2 0x12F6 JUMP JUMPDEST PUSH1 0x0 JUMPDEST DUP4 DUP2 LT ISZERO PUSH2 0x1379 JUMPI DUP2 SLOAD DUP2 DUP10 ADD MSTORE PUSH1 0x1 DUP3 ADD SWAP2 POP PUSH1 0x20 DUP2 ADD SWAP1 POP PUSH2 0x135A JUMP JUMPDEST DUP4 DUP9 ADD SWAP6 POP POP POP JUMPDEST POP POP POP SWAP3 SWAP2 POP POP JUMP JUMPDEST PUSH1 0x0 PUSH2 0x1396 DUP3 DUP5 PUSH2 0x130B JUMP JUMPDEST SWAP2 POP DUP2 SWAP1 POP SWAP3 SWAP2 POP POP JUMP JUMPDEST PUSH32 0x7478206661696C65640000000000000000000000000000000000000000000000 PUSH1 0x0 DUP3 ADD MSTORE POP JUMP JUMPDEST PUSH1 0x0 PUSH2 0x13D7 PUSH1 0x9 DUP4 PUSH2 0xFCB JUMP JUMPDEST SWAP2 POP PUSH2 0x13E2 DUP3 PUSH2 0x13A1 JUMP JUMPDEST PUSH1 0x20 DUP3 ADD SWAP1 POP SWAP2 SWAP1 POP JUMP JUMPDEST PUSH1 0x0 PUSH1 0x20 DUP3 ADD SWAP1 POP DUP2 DUP2 SUB PUSH1 0x0 DUP4 ADD MSTORE PUSH2 0x1406 DUP2 PUSH2 0x13CA JUMP JUMPDEST SWAP1 POP SWAP2 SWAP1 POP JUMP JUMPDEST PUSH1 0x0 PUSH2 0x1418 DUP3 PUSH2 0xC4B JUMP JUMPDEST SWAP2 POP PUSH2 0x1423 DUP4 PUSH2 0xC4B JUMP JUMPDEST SWAP3 POP DUP3 PUSH32 0xFFFFFFFFFFFFFFFFFFFFFFFFFFFFFFFFFFFFFFFFFFFFFFFFFFFFFFFFFFFFFFFF SUB DUP3 GT ISZERO PUSH2 0x1458 JUMPI PUSH2 0x1457 PUSH2 0x1048 JUMP JUMPDEST JUMPDEST DUP3 DUP3 ADD SWAP1 POP SWAP3 SWAP2 POP POP JUMP JUMPDEST PUSH1 0x0 PUSH2 0x146E DUP3 PUSH2 0xC4B JUMP JUMPDEST SWAP2 POP PUSH32 0xFFFFFFFFFFFFFFFFFFFFFFFFFFFFFFFFFFFFFFFFFFFFFFFFFFFFFFFFFFFFFFFF DUP3 EQ ISZERO PUSH2 0x14A1 JUMPI PUSH2 0x14A0 PUSH2 0x1048 JUMP JUMPDEST JUMPDEST PUSH1 0x1 DUP3 ADD SWAP1 POP SWAP2 SWAP1 POP JUMP INVALID LOG2 PUSH5 0x6970667358 0x22 SLT KECCAK256 0xC0 NUMBER CREATE2 0xE6 0xC5 0xB1 0xDB DUP3 CALLCODE SSTORE 0x49 PUSH27 0xC4A98AC37EDFBDAA8F95A1A38D60C045CFF5B73D64736F6C634300 ADDMOD EXP STOP CALLER "
				},
				"gasEstimates": {
					"creation": {
						"codeDepositCost": "1069200",
						"executionCost": "infinite",
						"totalCost": "infinite"
					},
					"external": {
						"approve(uint256)": "37464",
						"approved(uint256,address)": "3154",
						"execute(uint256)": "infinite",
						"isOwner(address)": "2890",
						"owners(uint256)": "4957",
						"required()": "2473",
						"submit(address,uint256,bytes)": "infinite",
						"transactions(uint256)": "infinite"
					},
					"internal": {
						"_getApprovalCount(uint256)": "infinite"
					}
				},
				"methodIdentifiers": {
					"approve(uint256)": "b759f954",
					"approved(uint256,address)": "8253951a",
					"execute(uint256)": "fe0d94c1",
					"isOwner(address)": "2f54bf6e",
					"owners(uint256)": "025e7c27",
					"required()": "dc8452cd",
					"submit(address,uint256,bytes)": "14de327f",
					"transactions(uint256)": "9ace38c2"
				}
			},
			"storageLayout": {
				"storage": [
					{
						"astId": 39,
						"contract": "contracts/MultiSigWallet.sol:MultiSigWallet",
						"label": "owners",
						"offset": 0,
						"slot": "0",
						"type": "t_array(t_address)dyn_storage"
					},
					{
						"astId": 43,
						"contract": "contracts/MultiSigWallet.sol:MultiSigWallet",
						"label": "isOwner",
						"offset": 0,
						"slot": "1",
						"type": "t_mapping(t_address,t_bool)"
					},
					{
						"astId": 45,
						"contract": "contracts/MultiSigWallet.sol:MultiSigWallet",
						"label": "required",
						"offset": 0,
						"slot": "2",
						"type": "t_uint256"
					},
					{
						"astId": 49,
						"contract": "contracts/MultiSigWallet.sol:MultiSigWallet",
						"label": "transactions",
						"offset": 0,
						"slot": "3",
						"type": "t_array(t_struct(Transaction)36_storage)dyn_storage"
					},
					{
						"astId": 55,
						"contract": "contracts/MultiSigWallet.sol:MultiSigWallet",
						"label": "approved",
						"offset": 0,
						"slot": "4",
						"type": "t_mapping(t_uint256,t_mapping(t_address,t_bool))"
					}
				],
				"types": {
					"t_address": {
						"encoding": "inplace",
						"label": "address",
						"numberOfBytes": "20"
					},
					"t_array(t_address)dyn_storage": {
						"base": "t_address",
						"encoding": "dynamic_array",
						"label": "address[]",
						"numberOfBytes": "32"
					},
					"t_array(t_struct(Transaction)36_storage)dyn_storage": {
						"base": "t_struct(Transaction)36_storage",
						"encoding": "dynamic_array",
						"label": "struct MultiSigWallet.Transaction[]",
						"numberOfBytes": "32"
					},
					"t_bool": {
						"encoding": "inplace",
						"label": "bool",
						"numberOfBytes": "1"
					},
					"t_bytes_storage": {
						"encoding": "bytes",
						"label": "bytes",
						"numberOfBytes": "32"
					},
					"t_mapping(t_address,t_bool)": {
						"encoding": "mapping",
						"key": "t_address",
						"label": "mapping(address => bool)",
						"numberOfBytes": "32",
						"value": "t_bool"
					},
					"t_mapping(t_uint256,t_mapping(t_address,t_bool))": {
						"encoding": "mapping",
						"key": "t_uint256",
						"label": "mapping(uint256 => mapping(address => bool))",
						"numberOfBytes": "32",
						"value": "t_mapping(t_address,t_bool)"
					},
					"t_struct(Transaction)36_storage": {
						"encoding": "inplace",
						"label": "struct MultiSigWallet.Transaction",
						"members": [
							{
								"astId": 29,
								"contract": "contracts/MultiSigWallet.sol:MultiSigWallet",
								"label": "to",
								"offset": 0,
								"slot": "0",
								"type": "t_address"
							},
							{
								"astId": 31,
								"contract": "contracts/MultiSigWallet.sol:MultiSigWallet",
								"label": "value",
								"offset": 0,
								"slot": "1",
								"type": "t_uint256"
							},
							{
								"astId": 33,
								"contract": "contracts/MultiSigWallet.sol:MultiSigWallet",
								"label": "data",
								"offset": 0,
								"slot": "2",
								"type": "t_bytes_storage"
							},
							{
								"astId": 35,
								"contract": "contracts/MultiSigWallet.sol:MultiSigWallet",
								"label": "executed",
								"offset": 0,
								"slot": "3",
								"type": "t_bool"
							}
						],
						"numberOfBytes": "128"
					},
					"t_uint256": {
						"encoding": "inplace",
						"label": "uint256",
						"numberOfBytes": "32"
					}
				}
			},
			"userdoc": {
				"kind": "user",
				"methods": {},
				"version": 1
			}
		}
	}
}